:100000000C9446000C9458000C9458000C94580022
:100010000C9458000C9458000C9458000C94580000
:100020000C9458000C9458000C9458000C945800F0
:100030000C9458000C9458000C9458000C948200B6
:100040000C9458000C9458000C9458000C945800D0
:100050000C9458000C9458000C9458000C945800C0
:100060000C9458000C9458000C9458000C945800B0
:100070000C9458000C9458000C9458000C945800A0
:100080000C9458000C9458000C94580011241FBE76
:10009000CFEFD0E1DEBFCDBF21E0A0E0B1E001C0F5
:1000A0001D92A731B207E1F70E94C8010C94F90133
:1000B0000C9400000895B89A08950F931F938091AF
:1000C0000001882319F0813081F019C001E010E0AF
:1000D00020E030E040E050E0BA018FE091E00E9483
:1000E0003A0181E0809300010AC08FE091E00E9414
:1000F0007C01811104C098B381E0892788BB1F91DE
:100100000F9108951F920F920FB60F9211240BB604
:100110000F928F929F92AF92BF92CF92DF92EF9207
:10012000FF922F933F934F935F936F937F938F93A0
:100130009F93AF93BF93CF93EF93FF93C09007012B
:10014000D0900801E0900901F0900A01809103012C
:1001500090910401A0910501B091060180910201E6
:1001600090910101CFE1C80FCD3730F48FEFC81A5D
:10017000D80AE80AF80A07C0C2EAC80F82E0C80E27
:10018000D11CE11CF11CC701B60128EE33E040E0B0
:1001900050E00E94D70149015A01DC01CB0168946B
:1001A00012F8B695A795979587951694D1F7682F6D
:1001B0008F3138F061EE680F8FEF881A980AA80A1D
:1001C000B80AC0920701D0920801E0920901F092AA
:1001D0000A01C09302018092030190920401A0924F
:1001E0000501B092060160930101FF91EF91CF915B
:1001F000BF91AF919F918F917F916F915F914F913F
:100200003F912F91FF90EF90DF90CF90BF90AF90F4
:100210009F908F900F900BBE0F900FBE0F901F906E
:10022000189510920B0110920C0110920D01109272
:100230000E0110920701109208011092090110920C
:100240000A0110920301109204011092050110920C
:100250000601109202011092010108952FB7F8943F
:100260006091030170910401809105019091060154
:100270002FBF08958F929F92AF92BF92CF92DF923D
:10028000EF92FF920F931F93CF93DF93EC014A01FC
:100290005B01680179010E942E01688379838A835A
:1002A0009B8381149104A104B10459F0DC01CB01BA
:1002B000880D991DAA1DBB1D88839983AA83BB83C2
:1002C0000AC0DC01CB018C0D9D1DAE1DBF1D8883B6
:1002D0009983AA83BB83CC82DD82EE82FF82DF9189
:1002E000CF911F910F91FF90EF90DF90CF90BF9033
:1002F000AF909F908F9008950F931F93CF93DF93AC
:10030000FC0144815581668177814F3F5F4F6F4F7C
:100310007F4F51F1EC010E942E01088119812A8141
:100320003B81601771078207930700F14C815D8163
:100330006E817F81411551056105710561F0D9011B
:10034000C801840F951FA61FB71F88839983AA83AE
:10035000BB8380E00CC08FEF9FEFDC018C839D831B
:10036000AE83BF8380E003C080E001C081E0DF9105
:10037000CF911F910F91089583B7846083BF83B796
:10038000886083BF83B78F7B83BF88ED81BF08956B
:100390000E945A000E94BC010E9411010E945B0051
:1003A00087B7826087BF78940E945D00FDCFA1E28D
:1003B0001A2EAA1BBB1BFD010DC0AA1FBB1FEE1FDF
:1003C000FF1FA217B307E407F50720F0A21BB30B2A
:1003D000E40BF50B661F771F881F991F1A9469F7A6
:1003E00060957095809590959B01AC01BD01CF0102
:0603F0000895F894FFCF10
:00000001FF
