:100000000C94A3010C94C0010C94C0010C94C00189
:100010000C94C0010C94C0010C94C0010C94C0015C
:100020000C94C0010C94C0010C94C0010C94A50D5B
:100030000C94C0010C94DD1C0C94C0010C94C00104
:100040000C94C0010C94181A0C94C0010C94B016B6
:100050000C94C0014E0B5D0B650B860BA40BD20BF1
:10006000F10B0B0C230C370C4E0CEE0F5002ED0E67
:100070006A00EB0D6E00E70C7200DE0B7600DD0A05
:100080007A00DB097E00D7088200BE078600BD0625
:100090008A00BB058E00B70492007E0396007D02A5
:1000A0009A007B019E007700A200C301BD01B6014A
:1000B000AD01A601A00199019001860178016401BA
:1000C000560150014401360129011B0114010B01A5
:1000D00003010001FB00F800EC00DC00535953540D
:1000E000454D2044495341424C45440052455345F7
:1000F00054205041544348000D0A004F4B0D0A0054
:10010000524400454E41424C45440044495341420B
:100110004C454400444556494345004E4F54204306
:100120004F4E4E45435445440052533438352044D5
:10013000455649434500524553504F4E534520467E
:10014000524F4D004D454D4F525920494E49540094
:100150005072696E74004D41444520494E20454718
:10016000595054007777772E736D617274736F6C8A
:100170002D65672E636F6D0053657420576F726B2A
:100180002054696D650053455249414C20203A0086
:1001900056455253494F4E3A004F50732E2E2E0063
:1001A000456D70747900536176696E6700576169B7
:1001B0007474696E670053656C656374004D6F6499
:1001C000656C004E616D65002802DD013B02540242
:1001D000210ED401352E44657669636500C801F8A7
:1001E000013B0254021E0DE901342E576F726B69F8
:1001F0006E672054696D6500DD010F023B025402F9
:100200007B070402332E50726F647563747300F8B9
:100210000128023B025402BC051B02322E4E6577B8
:1002200020506F64756374000F02F8013B025402A2
:10023000C3023402312E54696D65005402540254D5
:1002400002280200004702302E53595354454D00F6
:10025000FF0000000000000000000000000000009F
:1002600053756E004D6F6E005475650057656400E0
:100270005468750046726900536174004A414E002B
:10028000464542004D415200415052004D415900F7
:100290004A554E004A554C004155470053455000C1
:1002A0004F4354004E4F5600444543001F1C1F1E31
:1002B0001F1E1F1F1E1F1E3D0334032F032C032967
:1002C00003250322031F031C03150310030E03F968
:1002D00002E102DD02D7025020202C3100220D0A5B
:1002E00000422020202C2020202C202C312C322CAD
:1002F000322C34352C4E2C2200412020202C202062
:10030000202C202C202C312C312C4E2C22004E0065
:100310006631303000523231322C30004F44004AC6
:1003200046005A540044313200533400724E00717A
:1003300038333100513230332C3032340049382CCC
:10034000412C3030310011241FBECFE5D4E0DEBF98
:10035000CDBF10E0A0E6B0E0E0E0FFE302C0059012
:100360000D92AE38B107D9F722E0AEE8B0E001C097
:100370001D92AA3CB207E1F70E94351E0C947E1F25
:100380000C9400008A9A08950E944A040E94FE027A
:100390000E9449060E9433080E942E0B0E94130EF1
:1003A00086EA90E00C9416120C94BA0883E08093CD
:1003B0008F00089581E990E00E94A70F83E0809369
:1003C0008F0008951F93CF93DF93CDB7DEB7679764
:1003D0000FB6F894DEBF0FBECDBF182FBE01605F11
:1003E0007F4F81E990E00E94F318BE016F5F7F4F5D
:1003F00081E990E00E9414190E94391428E0AE01AE
:10040000405F5F4F64E080E00E941F142FE0AE0168
:100410004F5F5F4F61E081E00E941F141123B1F034
:1004200060918E0081E0682760938E00E0919000DB
:100430000E2E000CFF0BE957FF4F8081982F9F7005
:10044000690F82958F700E94051402C00E94FF13ED
:100450000E94101567960FB6F894DEBF0FBECDBF91
:10046000DF91CF911F910895809190008F3F11F4FB
:100470001092900080919000811102C086E001C02E
:1004800081508093900081E080938E000E94E20171
:1004900082E080938F00089580919000863024F44C
:1004A0008F5F8093900002C01092900081E0809353
:1004B0008E000E94E20182E080938F0008951F93D6
:1004C000CF93DF9300D01F92CDB7DEB7E0919000BD
:1004D000EF3F81F1E33071F1E53061F1182F0E2E1D
:1004E000000CFF0BEF56FF4F40E0BE016F5F7F4FE8
:1004F00080810E949E1C80918E00E1E0F0E0EC0F74
:10050000FD1FE80FF11D1083CE0101960E94911C82
:1005100020919000022E000C330BF901E058FF4FA0
:100520009081981738F0F901EF56FF4F808381E0F2
:100530000E94E2010F900F900F90DF91CF911F91D9
:100540000895809190008F3FE9F0833059F48091B5
:100550009400863020F48F5F809394000EC0109238
:1005600094000BC0853071F4809196008C3010F4AB
:100570008F5F01C081E08093960081E080938E00C0
:100580000C94E20108950F931F9380918F008111C5
:1005900013C08FE592E00E94B80306ED11E02AED4A
:1005A00031E041EA52E064E372E08CE492E00E94C0
:1005B000F40381E080938F0080918F00813089F473
:1005C0000E948817882359F00E94EC17AB01BC01E8
:1005D00081E990E00E94421880E00E94E20180E000
:1005E0000AC08330E1F70E944A0410928F008FEF17
:1005F0008093900081E01F910F9108958FEF809379
:10060000900010928F0008950895CF93DF93EC012E
:100610008981811107C0E091A500F091A600809129
:100620009A00099561E0CE010E94481381E0DF91B4
:10063000CF91089520E320939A000E94050381E062
:10064000089529E320939A000E94050381E008950C
:1006500028E320939A000E94050381E0089527E390
:1006600020939A000E94050381E0089526E32093D9
:100670009A000E94050381E0089525E320939A00E3
:100680000E94050381E0089524E320939A000E94CC
:10069000050381E0089523E320939A000E94050357
:1006A00081E0089522E320939A000E94050381E0EF
:1006B000089521E320939A000E94050381E00895A4
:1006C000CF93DF93EC018981811107C0E0919800FD
:1006D000F0919900309709F0099561E0CE010E94F0
:1006E000481381E0DF91CF91089520919D003091D2
:1006F0009E0030939900209398000E94600381E04F
:10070000089520919B0030919C0030939900209394
:1007100098000E94600381E008952091A10030912B
:10072000A20030939900209398000E94600381E01A
:1007300008952091A3003091A40030939900209354
:1007400098000E94600381E00895CF93DF93EC014D
:100750008981811105C0E0919F00F091A000099569
:1007600061E0CE010E94481381E0DF91CF910895AE
:10077000CF93DF93EC0160E089E593E00E942112C2
:1007800061E082E593E00E94211262E08BE493E055
:100790000E94211264E084E493E00E94211265E04B
:1007A0008DE393E00E94211266E086E393E00E94CD
:1007B000211268E08FE293E00E94211269E088E252
:1007C00093E00E9421126AE081E293E00E942112EC
:1007D0006DE08AE193E00E942112D093A600C093BD
:1007E000A500DF91CF910895CF92DF92EF92FF9213
:1007F0000F931F93CF93DF936B017A01E901009769
:1008000049F09093A4008093A30063E089E993E00A
:100810000E942112C114D10449F0D092A200C092CA
:10082000A10067E08DE893E00E942112E114F10439
:1008300049F0F092A000E0929F006BE085EA93E01F
:100840000E9421120115110549F010939C0000939C
:100850009B006EE081E893E00E942112209789F0CE
:10086000D0939E00C0939D006FE085E793E0DF91F9
:10087000CF911F910F91FF90EF90DF90CF900C944C
:100880002112DF91CF911F910F91FF90EF90DF9098
:10089000CF900895CF93C0E06C2F80E090E00E944D
:1008A0002112CF5FC031C1F784E093E09093A6009E
:1008B0008093A50010929C0010929B0010929E00C5
:1008C00010929D001092A4001092A3001092A2001A
:1008D0001092A1001092A00010929F00CF91089555
:1008E00083E08093DB000895CF9381E00E942C1475
:1008F000C091DA00C03128F080EF8C0FCFE020E10A
:1009000002C02C2F80E04091DD005091DE00480FA6
:10091000511D60E081E00E941F146C2F81E00E9455
:100920000514CF910C9410158091DA00882369F09A
:10093000E091DD00F091DE00E80FF11D90E2908380
:1009400081508093DA000C9474040895CF93DF9360
:10095000EC018981811116C08091DA009091D30059
:10096000891718F48F5F8093DA008091DA00E091A4
:10097000DD00F091DE00E80FF11D319781E3808307
:100980000E94740461E0CE010E94481381E0DF916F
:10099000CF9108958091DA0081110CC00E94391422
:1009A0000E94FF1366E080E00E946B0665E081E034
:1009B0000C946B069091D400911111C09CE090931F
:1009C000D30091E09093D4001092DB0026EC30E04D
:1009D0003093DE002093DD008093C50012C010929A
:1009E000D4009EE19093D30092E09093DB0080933B
:1009F000D20087EA90E09093DE008093DD000E94B1
:100A00004A041092DA000895CF93DF93EC018A81B3
:100A1000861720F060E0CE010E9448138981882368
:100A200019F0813051F01CC08091DA009091D30010
:100A30008917B0F48F5F8093DA008091DA00E0913B
:100A4000DD00F091DE00E80FF11D3197AA81B0E0E2
:100A5000AB52BF4F8C918083DF91CF910C94740483
:100A6000DF91CF910895E5EDF0E020E220832EE2C2
:100A7000218320E3228363E00E94040581E008953E
:100A8000E5EDF0E027E5208328E5218329E52283B1
:100A90002AE5238329E3248365E00E94040581E09D
:100AA0000895E5EDF0E024E5208325E5218326E5A2
:100AB000228328E3238364E00E94040581E00895F3
:100AC000E5EDF0E020E5208321E5218322E5228386
:100AD00023E5238327E3248365E00E94040581E066
:100AE0000895E5EDF0E02DE420832EE421832FE44A
:100AF000228326E3238364E00E94040581E00895B5
:100B0000E5EDF0E02AE420832BE421832CE422832A
:100B100025E3238364E00E94040581E00895E5ED68
:100B2000F0E027E4208328E4218329E4228324E3DE
:100B3000238364E00E94040581E00895E5EDF0E080
:100B400024E4208325E4218326E4228323E32383F2
:100B500064E00E94040581E00895E5EDF0E021E401
:100B6000208322E4218323E4228322E3238364E09D
:100B70000E94040581E008950F931F938091DB008C
:100B800081114CC060E086EA94E00E94211261E08D
:100B90008DEA95E00E94211262E08EE995E00E94C4
:100BA000211264E08FE895E00E94211265E080E860
:100BB00095E00E94211266E081E795E00E942112F3
:100BC00068E080E695E00E94211269E081E595E009
:100BD0000E9421126AE080E495E00E9421126DE0FB
:100BE00083E395E00E9421120E94391460E081E0C5
:100BF0000E9405146091D40080E00E946B0600E71B
:100C000014E02AEC34E040E050E060E070E084E979
:100C100094E00E94F40381E08093DB008091DB008C
:100C20008130E1F08230E1F48091DC00833610F015
:100C300083E012C024E3829FC00111244CE267EAE2
:100C400070E048960E948D08882341F08091DC0076
:100C50008F5F8093DC0084E08093DB0080E016C02F
:100C6000833041F40E944A041092DB001092DA00B3
:100C700081E00CC0843091F741E06CED70E083E0DE
:100C800090E00E948D088111D3CFE8CF1F910F9182
:100C90000895E7EAF0E080E090E28C3008F4978F66
:100CA00091938F5F8E31C9F727EA30E03093DE00F1
:100CB0002093DD001092C5008093D3001092DC00D9
:100CC0001092D4001092DA0008958091DC0008950B
:100CD0008093DC000895E62FF0E0EE0FFF1FE6554D
:100CE000FF4F659174910E9431150C941015EF928D
:100CF000FF920F931F93CF93DF938C01C62F7A013E
:100D0000FA0140815181628173818C0F911D0E9493
:100D10004F1C8AE08C0FF801E80FF11DDDE2D08353
:100D20008BE08C0FF70164819801280F311DC901F8
:100D30000E94481C8EE08C0FF801E80FF11DD08353
:100D40004FE04C0FB801F70185810E949E1C81E1A4
:100D50008C0FDF91CF911F910F91FF90EF9008952D
:100D60002AEA30E00C94B81C82E0809324010895B4
:100D700080912301882311F0815002C00E946506F2
:100D80008093230181E0809324010895CF93DF9322
:100D9000C0912301D0E00E94650690E00197C8173A
:100DA000D90734F4809123018F5F8093230102C01F
:100DB0001092230181E080932401DF91CF91089567
:100DC0008091230124E3829FC001112444E36FEE4C
:100DD00070E048960E945E08882331F080912301DC
:100DE0008F5F80931F0181E0089580932301089510
:100DF00048E0BC018BE191E00E94AC1C8091230192
:100E000024E3829FC001112448E06BE171E08C5B18
:100E10009F4F0E948D0891E0811101C090E0892FC1
:100E200008950F931F93CF93DF93CDB7DEB7ED9760
:100E30000FB6F894DEBF0FBECDBF60910D018E01DD
:100E40000F5F1F4F662389F0AFEEB0E0F8018E2FE1
:100E5000801B861718F48D918193F9CFF801E60F66
:100E6000F11D8DE280836F5F01C060E080911A0107
:100E7000882391F0AEE0B1E0F801E60FF11D90E0BB
:100E80002D9121939F5F8913FBCF680FF801E60F27
:100E9000F11D8DE280836F5F4BE151E0C8010E943C
:100EA000770620E1482FB8018FED90E00E94521C98
:100EB00020E14FED50E060E081E00E941F140E94AD
:100EC0001015ED960FB6F894DEBF0FBECDBFDF91C3
:100ED000CF911F910F910895EFEDF0E080E28193A3
:100EE00090E0EF3EF907D9F781E00E942C140E94B0
:100EF00010150C94A91C0F931F938091240181114C
:100F000015C00E94391462E080E00E946B0604EB79
:100F100016E020E030E040E050E068EB76E086EC60
:100F200096E00E94F40381E08093240180912401E3
:100F3000813031F40E94E006882329F183E016C055
:100F4000823031F40E944A041092240181E01CC0D6
:100F5000833079F441E063E271E084E090E00E9444
:100F60008D08882381F00E946C0784E0809324011F
:100F70000AC0843041F40E948817882321F08FEE44
:100F800090E00E94110780E01F910F9108958FEE6D
:100F900090E00C945E0C48E06BE171E00C94AC1CAA
:100FA00083E080936801089584E080936801089548
:100FB00085E080936801089582E08093660108953A
:100FC000CF93DF93EC018981811109C00E944A040B
:100FD0008BE392E00E94A51682E08093680161E0B5
:100FE000CE010E94481381E0DF91CF910895FF92D6
:100FF0000F931F93CF93DF9300D0CDB7DEB7F82EBA
:101000000DE511E040E0BE016F5F7F4FF801858183
:101010000E949E1C80916501E1E0F0E0EC0FFD1F55
:10102000E80FF11DF082CE0101960E94911CF8019B
:10103000858322E0AE014F5F5F4F60E081E00E9458
:101040001F146091650181E06827609365010E942B
:1010500005140E9410150F900F90DF91CF911F91F2
:101060000F91FF9008950F931F930E9439141092CF
:10107000690181E080936801109267011092660116
:10108000109265010E944A040E946C070E9490170A
:101090006CE080EE97E00E94211200E010E020E07A
:1010A00030E048ED57E064ED77E080ED97E00E9496
:1010B000F4031F910F9108950C943308EF92FF925F
:1010C0000F931F93CF93DF938C017B01D42F0E944A
:1010D0000510C82F8823C9F0C0915B01CC2371F0A3
:1010E00086E291E00E94F4104D2F66E271E0C701A4
:1010F0000E94AC1C10925B01C1E007C06D2FC801BB
:101100000E94121081E080935B018C2FDF91CF91C0
:101110001F910F91FF90EF900895EF92FF920F9320
:101120001F93CF93DF938C017B01D42F0E94051076
:10113000C82F8823B9F0C0915A01CC2321F0109216
:101140005A01C1E00FC04D2FB70186E291E00E9425
:10115000AC1C4D2F66E271E0C8010E940C1081E0CA
:1011600080935A018C2FDF91CF911F910F91FF90A7
:10117000EF900895CF92DF92EF92FF920F931F931B
:10118000CF93DF93CDB7DEB767970FB6F894DEBF86
:101190000FBECDBF80916801823009F487C130F461
:1011A000882351F0813009F49AC047C2843009F491
:1011B00000C208F042C27FC180916901813061F1B3
:1011C00038F0823009F45EC0833009F47EC037C243
:1011D00043E066E271E080E090E00E945E088823D0
:1011E00009F42DC280912601873151F480912701A5
:1011F0008B3031F480912801803611F482E009C0EF
:101200006DE081E00E946B0663E080E00E946B0667
:1012100081E08093690113C20E940510882309F4BC
:101220000EC280916A01803EA1F410926A0187E1AA
:10123000809326018BE08093270180E6809328012C
:1012400040E266E271E080E090E00E940C100E94B3
:101250003308E6E2F1E0119221E0E634F207D9F733
:1012600080916A01E0E28E9FC001112440E266E2B3
:1012700071E080960E940C1080916A018F5F8093CC
:101280006A01DDC14CE066E271E083E090E00E941B
:101290005E08882309F4D3C1809126010E94680664
:1012A000809127010E94F506809128010E94050F78
:1012B0008091290180935C0148E06AE271E08EEB45
:1012C00092E00E94AC1C83E0A4CF0E94E006882339
:1012D00009F4B5C10E94330810926901B0C18E01B2
:1012E0000F5F1F4F80E1F80111928A95E9F730E214
:1012F000F32EF9820E940C158111A1C10E9488175A
:10130000882309F49CC10E94EC17AB01BC01CE01FB
:1013100041960E94421840E0B8018B890E949E1CB1
:101320004BE0B8018D890E949E1C43E0B8018A8978
:101330000E949E1C4EE0B8018E890E949E1C8DE288
:101340008E870E94F817882319F08AE38B8301C0E7
:10135000FB8220E1A80160E080E00E941F140E944F
:10136000EC1720912501213009F46AC038F02230B1
:1013700009F46EC0233009F478C093C00091BE0216
:101380001091BF022091C0023091C1026017710715
:101390008207930770F00091C2021091C30220915E
:1013A000C4023091C502601771078207930708F4E1
:1013B00044C00E944A046CE080EE97E00E94211233
:1013C0008DE591E00E94CB078091630190916401CB
:1013D000019690936401809363018091BE02909185
:1013E000BF02A091C002B091C10280589E4AAE4F88
:1013F000BF4F8093BE029093BF02A093C002B093F0
:10140000C1028091C2029091C302A091C402B09126
:10141000C50280589E4AAE4FBF4F8093C202909340
:10142000C302A093C402B093C50268E181E00E94A8
:101430006B0681E08093250102C10E94110733C031
:101440008DE591E00E94F806882369F182E00AC0E8
:1014500048E06EEB72E087E090E00E948D08882300
:1014600011F183E0809325011EC00091BE0210910E
:10147000BF022091C0023091C1026017710782073C
:10148000930788F00091C2021091C3022091C40218
:101490003091C502601771078207930720F40E94FC
:1014A0003308109225010E941015C9C00E949F1692
:1014B0008111C5C0C2C080916701823009F447C064
:1014C00028F4882371F08130D9F1B7C0843009F451
:1014D00060C008F445C0853009F0AFC00E94350BEC
:1014E000ABC00E944A048DE591E00E94CB07C090FA
:1014F0005D01D0905E01E0905F01F09060010E947C
:10150000EC17C616D706E806F90608F098C08091D1
:1015100062018F5F809362010E94EC1760935D010E
:1015200070935E0180935F01909360010E94080FA9
:10153000882359F08DE591E00E940B0F81E036C0C1
:101540000E94670E882309F47AC082E02FC08DE5DF
:1015500091E00E94F806882309F471C083E026C058
:1015600080915C0190E080589D4F48E06DE571E00E
:1015700023E0880F991F2A95E1F70E948D088823A0
:1015800009F45DC080915C018F5F80935C0184E011
:101590000DC041E06CE571E086E090E00E948D08AE
:1015A000882309F44CC00E94C70785E08093670137
:1015B00046C080916601813009F441C038F0823024
:1015C000E1F58DE591E00E94F80636C00E944A04DC
:1015D00087EF97E00E94B8030CE518E02CED37E0A8
:1015E00040E050E060E070E080E090E00E94F403B2
:1015F0000E9439148DE591E00E94CB0767E180E0FD
:101600000E946B0640E0BE016F5F7F4F80916201D8
:101610000E949E1C22E0AE014F5F5F4F60E081E0C0
:101620000E941F1460E081E00E9405140E941015C2
:1016300081E08093660103C081110E9433086796A0
:101640000FB6F894DEBF0FBECDBFDF91CF911F91D3
:101650000F91FF90EF90DF90CF90089510925B0173
:1016600010925A01109268010895CF92EF920F9351
:10167000CF93DF930E94211DC82F882311F0C0E073
:1016800016C1D0916E018D2F90E08B30910508F03E
:101690000CC1FC01E65DFF4F0C944C1F0E943914F5
:1016A0006CE080E00E946B0663E081E00E946B06C4
:1016B00081E080936E01CD2FFAC00E94E91D88233E
:1016C000F1F210926B0182E0E6C080916B018932E9
:1016D000B8F428E1829FC001112448E16EE972E06C
:1016E000945E0E945E08882351F268E18EE992E0E0
:1016F0000E94191E80916B018F5F80936B01D7C090
:1017000083E080936E0110926B01D1C060916C01F7
:1017100070916D01FB01468D4423A1F08EE992E0AA
:101720000E94AC1CE0916C01F0916D01C12CE12C88
:1017300001E627E330E04AE050E0668D8EE992E072
:101740000E94641D84E0A7C0E0916C01F0916D01DE
:1017500083A5882329F147E060E08EE992E00E94AA
:10176000B006D82FE0916C01F0916D01BF01615E70
:101770007F4F90E043A582569D4F0E94AC1CE091A4
:101780006C01F0916D0163A56D0FC12CE12C01E698
:101790002EE430E04AE050E08EE992E00E94641DC1
:1017A00085E079C048E060E08EE992E00E94B006F2
:1017B00040916C0150916D01445D5F4F682F8EE93F
:1017C00092E00E947706C12CE12C01E625E630E08C
:1017D0004AE050E0682F8EE992E00E94641D86E0A6
:1017E0005AC040916C0150916D01445D5F4F60E0C3
:1017F0008EE992E00E947706CC24C394E12C01E6A6
:101800002DE730E04AE050E0682F8EE992E00E9438
:10181000641D87E040C0E0916C01F0916D0162A908
:1018200073A98EE992E00E94421CC12CE12C01E6D2
:101830002AEA30E04AE050E065E08EE992E00E945A
:10184000641D88E028C04AE060E08EE992E00E94D2
:10185000B006C12CE12C01E62AEA30E045E650E072
:10186000682F8EE992E00E94641D89E014C04BE06D
:1018700060E08EE992E00E94B006C12CEE24E39471
:1018800001E624E130E04BE851E0682F8EE992E078
:101890000E94641D8AE080936E0109C081E00E946D
:1018A000241D10926E01C1E002C010926E018C2FB7
:1018B000DF91CF910F91EF90CF90089510926E012C
:1018C00010926B0190936D0180936C01089583E0F9
:1018D00080936F010895CF93DF93CDB7DEB727973D
:1018E0000FB6F894DEBF0FBECDBF0E94EC17AB0160
:1018F000BC01CE0101960E9442181A821982809181
:1019000070018B83CE0101960E94BD186093BE02C8
:101910007093BF028093C0029093C10280917101C5
:101920008B83CE0101960E94BD186093C202709312
:10193000C3028093C4029093C5023091700120913C
:101940007101321770F0DC01CB0180589E4AAE4F16
:10195000BF4F8093C2029093C302A093C402B0937E
:10196000C50282E080936F0127960FB6F894DEBF20
:101970000FBECDBFDF91CF9108959091720181E0AC
:10198000892780937201811102C060E001C06EE07E
:1019900081E00E9405140C9410150F931F93CF93B0
:1019A000DF9300D000D0CDB7DEB700E711E040E014
:1019B000BE016D5F7F4FF80180810E949E1C40E058
:1019C000BE016F5F7F4FF80181810E949E1C22E063
:1019D000AE014D5F5F4F60E081E00E941F1422E086
:1019E000AE014F5F5F4F6EE081E00E941F140E94C6
:1019F00010150F900F900F900F90DF91CF911F91C6
:101A00000F910895E0917201F0E0E059FE4F80815E
:101A1000882311F0815001C087E180830C94CD0CA4
:101A2000E0917201F0E0E059FE4F8081873110F4BF
:101A30008F5F01C080E080830C94CD0CFF920F93E8
:101A40001F93CF93DF93CDB7DEB72E970FB6F894E1
:101A5000DEBF0FBECDBFF0906F01F1103AC00E9403
:101A6000391407E61CE02BE63CE04DEB5CE062E05D
:101A70007DE080E19DE00E94F40369E080E00E9447
:101A80006B0660E081E00E9405144091BE02509117
:101A9000BF026091C0027091C102CE0108960E94FF
:101AA00042184091C2025091C3026091C4027091E9
:101AB000C502CE0101960E9442188A85809370016A
:101AC0008B81809371010E94CD0C81E080936F0126
:101AD00021C081E0F81679F082E0F8120EC048E0EB
:101AE0006EEB72E087E090E00E948D08882319F089
:101AF00083E080936F01F12C0DC083E0F812FBCFDF
:101B00000E944A0410926F010E94FF13109272010A
:101B1000FF24F3948F2D2E960FB6F894DEBF0FBEE0
:101B2000CDBFDF91CF911F910F91FF9008959091BC
:101B30007C0181E0892780937C0182E080937D0194
:101B4000089583E080937D0108951F920F920FB650
:101B50000F9211242F933F934F935F936F937F9333
:101B60008F939F93AF93BF93CF93DF93EF93FF93A5
:101B7000C0917301D0E00E94D21BCB58DE4F888306
:101B8000809174018823A9F0E0917E01EA3068F425
:101B90005D9BFECF81E08E0F80937E01F0E0E158E7
:101BA000FE4F80810E94D01B2BC0109274011092B6
:101BB0007E0180917301E82FF0E0EB58FE4F908199
:101BC0009A30B1F480917501833531F480917601BA
:101BD000843459F484E007C08F3439F4809176015D
:101BE0008B3419F483E0809379011092740106C05C
:101BF0008A3020F48F5F8093730102C010927301CA
:101C0000FF91EF91DF91CF91BF91AF919F918F9114
:101C10007F916F915F914F913F912F910F900FBEE8
:101C20000F901F901895569A5798929A089510926F
:101C300079011092740110927E010E94130E0C948F
:101C400033080F931F9380917D0181111FC00E9463
:101C500039148091890180937C0161E180E00E94C8
:101C60006B0660917C016E5E81E00E946B0601EA6A
:101C70001DE020E030E040E050E060E070E087E907
:101C80009DE00E94F40381E080937D0180917D01BD
:101C9000813089F0823089F441E06CE771E085E0C1
:101CA00090E00E948D08882331F010927D01809190
:101CB0007C018093890180E007C08330E1F70E94B6
:101CC0004A0410927D0181E01F910F9108950F93B6
:101CD0001F93CF93DF93C0917901C130D1F1A0F070
:101CE000C23009F466C0C33009F088C01092740194
:101CF0001092730110927E01109279010E944A04A1
:101D00000E94130EC1E07BC05698579A929844E106
:101D100060E08FE791E00E94B00660917A017091D7
:101D20007B0146E081E891E00E94AC1C46E168E05E
:101D30008FE791E00E94B00607E11EE020E030E06E
:101D400040E050E060E070E080E090E00E94F4034A
:101D500051C08AE891E00E94A017C82F81114EC09F
:101D60000E9439146EE080E00E946B066FE081E013
:101D70000E946B065D9BFECFD1E0D0937E018091E7
:101D80007F010E94D01BD093740182E0809379017F
:101D90000E949417DC01CB018053984FAF4FBF4F87
:101DA00080938A0190938B01A0938C01B0938D0155
:101DB00026C08AE891E00E94A017C82F81111EC09A
:101DC0000E9439146FE080E00E946B0660E181E0C0
:101DD0000E946B060E949417DC01CB0188519C4F36
:101DE000AF4FBF4F80938A0190938B01A0938C01DA
:101DF000B0938D0181E08093790101C0C0E08C2F08
:101E0000DF91CF911F910F910895809389010895DB
:101E100080918901089590937B0180937A010895C0
:101E20000E949417DC01CB0180529C46AB4FBF4F00
:101E30008093970190939801A0939901B0939A0190
:101E40001092A3011092A201089580ED80938E015B
:101E500010928F0181E0809392018BE991E0909341
:101E600094018093930187E0809395018FE28093A2
:101E7000960182E08093A301EBE9F1E0119281E009
:101E8000E23AF807D9F70895CF93DF938091A30141
:101E90008130E9F018F0823099F149C087E991E08A
:101EA0000E94A017811150C00E949417DC01CB0141
:101EB0004E96A11DB11D8093970190939801A09318
:101EC0009901B0939A0182E08093A3013DC08EE80E
:101ED00091E00E942F1B81112DC082E08093A3010D
:101EE0000E949417DC01CB014E96A11DB11D809379
:101EF000970190939801A0939901B0939A011AC009
:101F00008EE891E00E94751B811114C0CBE9D1E0ED
:101F100088810E94881C899381E0C23AD807C1F762
:101F20008BE991E00E94BD180E94731709C01092BE
:101F3000A3010AC087E991E00E94A017811104C0A3
:101F4000DF91CF910C94100FDF91CF9108950F93F3
:101F50001F93CF93DF938C01CBE9D1E0F8018191FE
:101F60008F010E947F1C8993F1E0C23ADF07B1F72D
:101F700080919B018F7780939B010E949417DC01D5
:101F8000CB014E96A11DB11D8093970190939801AE
:101F9000A0939901B0939A0181E08093A30180936B
:101FA000A201DF91CF911F910F910895DC01E4EA26
:101FB000F1E0968385839483838341834283708792
:101FC00067837287618790819C7F91609083808115
:101FD00020FB82F98083E3EEF1E0B183A2838FEAF4
:101FE00091E09683858347830E949417DC01CB019F
:101FF0008C599F4FAF4FBF4F8093C6029093C7023B
:10200000A093C802B093C90208959091A40193705F
:1020100081E009F080E00895453318F420E00C9445
:10202000D60F0895462F653328F421E06FEA71E05A
:102030000C94D60F0895CF93DF9300D0CDB7DEB7C1
:102040008091A4018370823099F010F5813009F0FD
:1020500098C083EE91E00E94751B811192C080911F
:10206000A40182FD94C08091A4018C7F826087C00E
:102070004091A5018091AB019091AC016FEA71E0B4
:102080000E94331C811183C08091A401836077C0BA
:102090008091A601882309F45CC08091A7019091EA
:1020A000A801982F9F7180E2891B8A8384E389832A
:1020B0009091A6018981981718F48091A6018983CF
:1020C00099818A81891710F48A81898329814091B5
:1020D000AD015091AE018091A7019091A80130917E
:1020E000A40133FD0EC09093E4018093E501509369
:1020F000E9014093E8012093EA018091A4018860FE
:102100003EC083EE91E00E942F1B81113AC0809166
:10211000A401877F8093A40129818091A7019091D8
:10212000A801820F911D9093A8018093A701298196
:102130008091AD019091AE01820F911D9093AE01FF
:102140008093AD0199818091A601891B8093A6019E
:1021500018C02091A5018091A9019091AA019093A6
:10216000E4018093E5018FEA91E09093E901809387
:10217000E8012093EA018091A4018C7F8160809323
:10218000A40186EC92E00E94A017811105C0809105
:10219000A4018C7F8093A4010F900F90DF91CF91C9
:1021A00008958FE28093EB01EFEAF1E08FEF8193E6
:1021B00091E0E33EF907D9F71092AC011092AB0120
:1021C0001092A5011092AA011092A9011092A401E7
:1021D0008091A4018C7F8093A40180EA8093E30125
:1021E00082E08093E70108954091A5016FEA71E0D4
:1021F0000C94AC1C83B3881F8827881F9E9905C048
:102200009D9905C09C9905C008958260F9CF8460AE
:10221000F9CF8860089583B383FB882780F99A9962
:1022200005C0CF9905C0879905C008958260F9CF90
:102230008460F9CF886008958091F30186FD11C014
:10224000A398AB9AA298AA9AD798DF9A8F98979A50
:10225000A79AA69AA59AA49AAF98AE98AD98AC986A
:1022600010C0A798AF9AA698AE9AA598AD9AA498D0
:10227000AC9AA39AA29AD79A8F9AAB98AA98DF9809
:1022800097988EE791E190933702809336020895F4
:10229000809135028F3021F4809134028F3039F5EE
:1022A000809135028F3021F0809134028F30F9F027
:1022B000A798AF98A698AE98A598AD98A498AC9812
:1022C000A398AB98A298AA98D798DF988F989798D8
:1022D000909134022091350230E1939FC001112486
:1022E000822B8093330210923502109234028CE1DB
:1022F00091E19093370280933602089580912F02E6
:102300008230D0F48091F30186FF05C00E94FA105C
:102310008093340204C00E940B1180933502809197
:10232000F30180648093F30180912F028F5F80938B
:102330002F028CE191E122C00E94FA1090913402A8
:10234000891721F08091F30186FD0AC00E940B11CC
:1023500090913502891739F08091F30186FD03C011
:1023600010922F02089580912F028091F3018F7BAC
:102370008093F30110922F0288E491E19093370249
:102380008093360208958091360290913702892B0E
:1023900029F0E0913602F0913702099408958CE11A
:1023A00091E1909337028093360210922F028FEFC3
:1023B0008093330280933002809331028093320203
:1023C00080E592E09093F2018093F1011092ED018B
:1023D0001092EC0123E044E063E072E08CEF91E0C6
:1023E0000E94621E80E090E0FC01EE0FFF1FE15FA3
:1023F000FD4F11821082019680319105A9F7E3E02B
:10240000F2E094E08FEF918312828083339622E092
:10241000EF30F207C1F78FEF8093EE0184E08093F5
:10242000EF011092F0011092F3010895009741F02E
:1024300022E08035920721F09093F2018093F10120
:102440000895E62FF0E0EE0FFF1FE15FFD4F91834F
:1024500080830895EF920F931F93CF93DF9300D063
:102460001F92CDB7DEB7909132028091330298135C
:102470000FC08091F30184FF51C088EF91E00E946A
:10248000A01781114BC080913202898382E017C06E
:102490008FB7F8949091310290933002909132026C
:1024A00090933102909133029093320290913202D4
:1024B00099838FBF809132028F3F19F484E08A8321
:1024C00021C04091320280E090E020E050E0BA016B
:1024D000082E02C0759567950A94E2F760FF2F5F9A
:1024E00001968830910599F7233028F480913102C4
:1024F0008F3F09F474C083E08A838091F301807F69
:102500008093F3018091F3018F7E8093F301BE01EC
:102510006F5F7F4F8CEF91E00E949F1E8091F301CF
:1025200085FD49C06EEE71E08CEF91E00E94D11EF6
:10253000882309F4A4C08091F1019091F2012091C7
:10254000EC013091ED014091EE01009779F1F2E05C
:1025500080359F0759F1FC013196E491F0E0EE0FD0
:10256000FF1FE15FFD4F2081318121153105C9F049
:10257000FC015491451315C03093ED012093EC01FB
:1025800084E6E82E02E310E020E030E040E050E096
:1025900060E082E398E00E9456198091F301806226
:1025A0001BC0FC01329685919491CFCF3093ED0101
:1025B0002093EC0164C0E091EC01F091ED018EEE0E
:1025C00091E00995882309F45AC01092ED01109208
:1025D000EC018091F3018F7D8093F30150C00E9444
:1025E0009417DC01CB018053984FAF4FBF4F8093BE
:1025F000F8019093F901A093FA01B093FB01809147
:10260000F30180618093F301909132028091300256
:10261000981318C084EF91E00E94A017882391F0CE
:102620008091F30187FD0EC08091F3018F5F8F7061
:102630009091F301907F982B9093F3018B8381E02D
:102640008A830CC08091F301807F8093F3011B8209
:102650008091F3018F778093F3011A820E9494177F
:10266000DC01CB018053984FAF4FBF4F8093F401F3
:102670009093F501A093F601B093F70148CF0F9026
:102680000F900F90DF91CF911F910F91EF900895D0
:102690002091F301207F2093F301FC0112828091AD
:1026A000F30160FB87F98093F3010895D698DE98D3
:1026B000D298DA98D598DD98D198D998DC98C49AB0
:1026C0000895D69AD29AD59AD19AC4980895DB9A49
:1026D00084E08A95F1F7DB9808951F93CF93DF93F9
:1026E0000E945613CCE4D4E0DB9A0000219719B382
:1026F000DB980E94671311FF03C02097A9F702C05F
:10270000CD2B29F480913902806880933902DF91C2
:10271000CF911F910C946113CF93C82F8FB7F8946A
:10272000C4FF02C0DE9A01C0DE988FBF8FB7F89455
:10273000C5FF02C0DA9A01C0DA988FBF8FB7F8944C
:10274000C6FF02C0DD9A01C0DD988FBF8FB7F89435
:10275000C7FF02C0D99A01C0D9988FBF0E946713E2
:102760008FB7F894C0FF02C0DE9A01C0DE988FBF19
:102770008FB7F894C1FF02C0DA9A01C0DA988FBF10
:102780008FB7F894C2FF02C0DD9A01C0DD988FBFF9
:102790008FB7F894C3FF02C0D99A01C0D9988FBFF0
:1027A000CF910C946713CF93C82F0E946D13DC98C0
:1027B0008C2FCF910C948C13DC989FB7F89484FFE6
:1027C00002C0DE9A01C0DE989FBF9FB7F89485FFD4
:1027D00002C0DA9A01C0DA989FBF9FB7F89486FFCB
:1027E00002C0DD9A01C0DD989FBF9FB7F89487FFB4
:1027F00002C0D99A01C0D9989FBF0C9467138091E9
:102800003B028E7F80933B0208956F73837081300B
:1028100011F4605401C060586093380280913B020B
:10282000816080933B02089510923902D49AD39A22
:10283000BC9AD69AD29AD59AD19AD09A0895FA018A
:1028400090E1899F600D1124862F90E0422FBF01F7
:10285000805A9F4F0C94AC1C20E1829FC001112430
:10286000FC01E05AFF4F80E190E291938150E9F73B
:10287000089581E00E942C1480E00C942C14CF93D6
:102880008091390280FFC6C08091390281FD6CC001
:102890008FE70E94D3130E946D130E945613DB9A98
:1028A000CE9902C0C0E001C0C0E1CA99A2C0CD99D2
:1028B000A2C0DB98DB9ACE99A0C0CA99A0C0CD99DE
:1028C000A0C0C999A0C00E946113CF3709F447C0C6
:1028D000D8988CE080933B021092380210923A0212
:1028E0008FEF91EA0197F1F700C0000080E30E94AA
:1028F000DC138FEF95E30197F1F700C0000080E350
:102900000E94DC1384E191E00197F1F7000080E37D
:102910000E94DC1393E99A95F1F700C080E20E94CF
:10292000DC1383E98A95F1F700C088E20E94D31393
:102930008CE00E94D31381E00E94D31386E00E94B2
:10294000D3138091390287FF09C0809139028F77B4
:1029500080933902809139028D7F31C0D89A80915D
:10296000390282608093390280913A02803280F588
:1029700080913A028F7059F480913A028295837067
:10298000813011F080E801C080EC0E94D313E09107
:102990003A02F0E0E05AFF4FC0810E946D13DC9ACA
:1029A0008C2F0E948C138091390287FF0BC080917D
:1029B00039028D7F80933902809139028F7780931D
:1029C000390223C080913A028F5F80933A0222C07D
:1029D000809139028D7F8093390210923A02809162
:1029E00038020E94D31380913B028C600E94D31363
:1029F0000CC0C0625CCFC0645CCFC1605ECFC260FF
:102A00005ECFC4605ECFC8605ECF809139028E7F9A
:102A100080933902CF910895809139028170089591
:102A20008091390281608093390208950F931F933A
:102A3000CF93DF93D82FC62F8A01CA010E94751F3A
:102A4000AC01552780E1D89FC00D11248C2F90E058
:102A5000B801805A9F4FDF91CF911F910F910C9435
:102A60006C1F1F93CF93DF93182FEB01CB010E94B4
:102A7000751F60E170E0681B710975956795AE017F
:102A8000812FDF91CF911F910C941615009769F05B
:102A900022E08435920749F090933E0280933D02F4
:102AA00080913C02826080933C020895CF93DF9333
:102AB000EC01898181110EC0E0913D02F0913E024E
:102AC0003296859194910E94461580913C028260D5
:102AD00080933C0261E0CE010E94481381E0DF91C7
:102AE000CF910895CF93DF93EC01898181110DC0BF
:102AF000E0913D02F0913E02859194910E9446152D
:102B000080913C02826080933C0261E0CE010E9491
:102B1000481381E0DF91CF9108956FE080E496E162
:102B20000E9421126EE08CEF95E10E94211263E079
:102B300082E795E10E94211267E086E595E10C9419
:102B4000211220913D0230913E022115310509F4F8
:102B50003EC042E02435340709F439C0F901389603
:102B6000859194910097D1F0FC010995882309F48F
:102B70002EC00E94FF1380913D0290913E02AC0155
:102B80004C5F5F4FFA0125913491F90134962591FC
:102B900034912455324091F0FA010EC02A5F3F4F24
:102BA000F90185919491892B59F0F90185919491BE
:102BB0008455924029F0F901859194910E9446151F
:102BC0000E948D1580913C028E7F80933C02089577
:102BD0006FE080E090E00E9421126EE080E090E0E3
:102BE0000E94211263E080E090E00E94211267E0E1
:102BF00080E090E00C942112CF93DF93EC01898167
:102C0000811136C0E0913D02F0913E0234968591EB
:102C10009491FC0134968591949122E08435920739
:102C2000E1F490933E0280933D020E94391480911A
:102C30003C028E7F80933C0280913C028B7F80938C
:102C40003C0280913C028D7F80933C020E94FF13E6
:102C50000E9410150E94E8150FC00E94FF13E0911A
:102C60003D02F0913E023496859194910E94461562
:102C700061E0CE010E94481381E0DF91CF91089579
:102C8000CF93DF93EC018981811107C080913C02D1
:102C9000816080933C020E94E81561E0CE010E94B1
:102CA000481381E0DF91CF91089584E592E09093FD
:102CB0003E0280933D0210923C02089580913C02B6
:102CC00082FF3CC080913C0280FD0C94A115809154
:102CD0003C0281FF33C00E940C1581112FC08091EE
:102CE0003D0290913E02009719F084559240F9F010
:102CF0000E943914E0913D02F0913E023496859194
:102D00009491FC013A96659174916E5F7F4F80E0DB
:102D10000E943115E0913D02F0913E023A964591B4
:102D2000549160E081E00E9416150E9410150E94E7
:102D3000101580913C028D7F80933C020895809114
:102D40003C0282FB882780F908950E9446150E9464
:102D5000A11580913C02846080933C020C948D15F7
:102D60001F920F920FB60F9211242F933F934F9300
:102D70005F936F937F938F939F93AF93BF93EF93E3
:102D8000FF938091480290914902A0914A02B0912C
:102D90004B020196A11DB11D8093480290934902F8
:102DA000A0934A02B0934B0280914302815E8093CC
:102DB0004302809143028D37C0F0809143028D57CA
:102DC000809343028091480290914902A0914A0267
:102DD000B0914B020196A11DB11D809348029093C2
:102DE0004902A0934A02B0934B0280914102909114
:102DF00042028F38914050F48091410290914202FA
:102E00000196909342028093410223C010924202A5
:102E10001092410280913F0291E0892780933F0206
:102E20009093400280913F02811113C0809144022F
:102E300090914502A0914602B09147020196A11DD2
:102E4000B11D8093440290934502A0934602B09333
:102E500047020E94C31180914C0290914D02A091B3
:102E60004E02B0914F020196A11DB11D80934C02FC
:102E700090934D02A0934E02B0934F02FF91EF91B9
:102E8000BF91AF919F918F917F916F915F914F9182
:102E90003F912F910F900FBE0F901F901895109299
:102EA0004C0210924D0210924E0210924F0210925C
:102EB00048021092490210924A0210924B0210925C
:102EC0003F0281E08093400210924402109245023A
:102ED0001092460210924702109243021092420250
:102EE0001092410208952FB7F894609344027093B2
:102EF000450280934602909347021092420210923C
:102F0000410210923F0291E0909340022FBF08953A
:102F100080914002882319F01092400281E00895C8
:102F200081E08093400208952FB7F89460914802A1
:102F30007091490280914A0290914B022FBF0895EF
:102F4000CF92DF92EF92FF920F931F93FC01C0800C
:102F5000D180E280F380F7FE02C080E010C00E94C2
:102F6000941797018601062717272827392737FD49
:102F700005C06C157D058E059F0578F781E01F91D2
:102F80000F91FF90EF90DF90CF9008958FB7F89456
:102F900020914C0230914D0240914E0250914F02CF
:102FA000E2B708B601FE08C09CB7E91728F02F5F0A
:102FB0003F4F4F4F5F4FE0E08FBFA7EDB0E00E9463
:102FC000611F9B01AC012E0F311D411D511DA5E05C
:102FD000B0E00E94611F08952FB7F89460914402F9
:102FE0007091450280914602909147022FBF08954B
:102FF0009FB7F89480913F029FBF089583B78B7F5E
:1030000083BF83B7826083BF83B7816083BF83B789
:10301000886083BF83B78F7B83BF87ED8CBF0895A4
:10302000803D27E0920710F0805D974050E0ECEA89
:10303000F2E021E0261730F43491430F511D2F5F49
:103040003196F8CF633038F09C0123703327232B5F
:1030500011F44F5F5F4FBC016D5F7F4F76956795B1
:1030600076956795EDE6F1E08E9F90018F9F300D8C
:103070009E9F300D1124C9010197860F971F840F61
:10308000951F08958F929F92AF92BF92CF92DF9239
:10309000EF92FF92CF93DF93EC016A017B018CE307
:1030A000882E912CA12CB12CCB01BA01A501940141
:1030B0000E942A1F6883CA01B901A50194010E94D8
:1030C0002A1F6983C701B60120E13EE040E050E0DD
:1030D0000E942A1FCA01B90128E130E040E050E017
:1030E0000E942A1F6A83C701B60120E831E541E04A
:1030F00050E00E942A1F1E829E81692F637041E06A
:1031000050E011F040E050E0FA01E359FE4F2E1775
:103110003F0738F0241B350B2D5631409F5F9E83AF
:10312000EBCF81E08D838D818C3070F4E82FF0E05F
:10313000E555FD4FE491611103C0823009F4EF5F62
:10314000F0E02E173F07A8F481E0820F8C83C901BD
:10315000069667E070E00E94021F8B83DF91CF919B
:10316000FF90EF90DF90CF90BF90AF909F908F90A7
:1031700008952E1B3F0B8F5FD5CFEF92FF920F93D9
:103180001F93CF93DF93EC018E814C816D8190E092
:103190000E9410189C01A8E1B0E00E94521F2A81F1
:1031A0007B018C01E20EF11C011D111DA80197018C
:1031B000ACE3B0E00E94611F29817B018C01E20E2B
:1031C000F11C011D111DA80197010E94611F28819A
:1031D000620F711D811D911DDF91CF911F910F9184
:1031E000FF90EF900895FF920F931F93CF93DF937B
:1031F0008C01EB0140E0FC0182810E949E1C8AE36D
:10320000F82EFA8243E0BE01F80181810E949E1CE3
:10321000FD8246E0BE01F8018081DF91CF911F91D0
:103220000F91FF900C949E1CFF920F931F93CF93CE
:10323000DF938C01EB01DB0180E090E0F80123815A
:10324000FC0134E0239FE00DF11D1124E05AFD4FF5
:10325000E491ED93F8012581FC0134E0239FE00D1A
:10326000F11D1124E858FD4FE4911696EC93169742
:1032700001968330910511F780E2F82EFB8244E03D
:10328000BE01F80184810E949E1CFE82FA8682E3C0
:103290008B8780E38C874DE0BE01F8018681DF914A
:1032A000CF911F910F91FF900C949E1C8F929F9233
:1032B000AF92BF92CF92DF92EF92FF920F931F9344
:1032C000CF93DF936C0148015901F12C04E610E023
:1032D0000E191F09262F30E08BE0829FF001839F9B
:1032E000F00D1124E05BFD4F4115510541F080E1E7
:1032F00097E2BA010E94021F7187608704C081E0D3
:1033000090E0918780878BE0829FE001839FD00DC2
:103310001124C05BDD4F81E08A870E949417860EDE
:10332000971EA81EB91E8C829D82AE82BF828885A0
:103330009985E89EB001E99E700DF89E700D1124EC
:103340004B01A12CB12C0E94C617DC01CB01880DCA
:10335000991DAA1DBB1D88839983AA83BB832885D9
:103360003985209FC001219F900D309F900D112421
:10337000998788879FB7F894F601C7FC02C0FF279A
:1033800003C0EF77FF27F16080818D2580839FBF89
:10339000DF91CF911F910F91FF90EF90DF90CF9031
:1033A000BF90AF909F908F9008958B9A9398E0E58F
:1033B000F2E01286118610860895CF93DF938091F4
:1033C0005A02882351F184E592E00E94A0178823D5
:1033D00009F180E592E00E94A01781111EC0C09102
:1033E0005802D09159022097C1F00E949417DC0135
:1033F000CB018C0F9D1FA11DB11D80935002909396
:103400005102A0935202B093530292B388E08927ED
:1034100082BB03C010925A029398DF91CF91089516
:1034200081E080935F021092620284E986BF089572
:103430001F920F920FB60F9211242F933F934F9329
:103440005F936F937F938F939F93AF93BF93EF930C
:10345000FF9381B1887F883209F44AC078F48031C3
:1034600029F130F4882309F483C08830F9F0DAC0F8
:103470008831F1F1803209F47BC0D4C0803479F115
:1034800058F4803309F474C0883309F0CBC081E06C
:1034900080935F0286EFCEC0803509F47DC0883509
:1034A00009F4A2C0883409F0BDC062C080915F02F7
:1034B0009EEF980F933038F4E0915B02F0915C023C
:1034C00080818E7F08C0853079F4E0915B02F091B5
:1034D0005C028081816083B985E886BFAFC080913E
:1034E0005F02853009F44AC00E94101A8BEF43C076
:1034F00090915F029430A9F480915E02E0915B02AA
:10350000F0915C029781891708F084C00580F681EC
:10351000E02D91E0980F90935E02E80FF11D8081FD
:10352000DACF8EEF890F8230F0F480915D02E09166
:103530005B02F0915C02E80FF11D21818F5F8093A7
:103540005D0223B925E826BFE0915B02F0915C02A1
:103550002481821373C0923011F484E001C085E0AD
:1035600080935F026BC0953009F0BECF85EAB5CF7E
:103570000E94101A8FEF8093600260C020915E025B
:1035800030E0E0915B02F0915C02878190E001976E
:103590002817390701F522C093B180915F02853069
:1035A00009F0A2CFA0915B02B0915C021596ED915B
:1035B000FC91169780915E0221E0280F20935E0215
:1035C000E80FF11D908330E017968C9190E0019701
:1035D000281739071CF486B7806402C086B78F7B32
:1035E00086BF86B7856879CF93B180915F028530B9
:1035F00009F07ACFE0915B02F0915C020580F681E0
:10360000E02D80915E0221E0280F20935E02E80FFA
:10361000F11D908384E986BF81E080935F02109260
:1036200060020AC080916102811108C081E080932C
:103630005F028BEF8093600210926202FF91EF9124
:10364000BF91AF919F918F917F916F915F914F91BA
:103650003F912F910F900FBE0F901F901895CF9212
:10366000DF92EF92FF920097C1F120916202211147
:1036700036C090935C0280935B02FC01808580B928
:1036800010925E0210925D0281E080936202E091EE
:103690005B02F0915C028481811102C084E001C070
:1036A00082E080935F0285EA86BF0E9494176B01D7
:1036B0007C01FAE0CF0ED11CE11CF11C809162026A
:1036C000811103C0809160020BC00E9494176C1599
:1036D0007D058E059F0590F3F5CF88EF01C080E84A
:1036E000FF90EF90DF90CF900895CF92DF92EF920E
:1036F000FF920097D9F1FC0127812223B9F1209193
:103700006202211135C090935C0280935B02808538
:1037100080B910925E0210925D0281E08093620295
:10372000E0915B02F0915C028481811102C085E02E
:1037300001C083E080935F0285EA86BF0E949417F0
:103740006B017C01FAE0CF0ED11CE11CF11C8091D1
:103750006202811103C0809160020BC00E94941725
:103760006C157D058E059F0590F3F5CF88EF01C0A0
:1037700080E8FF90EF90DF90CF90089516BE86B757
:10378000846086BF11B886E080B986B7816086BF45
:1037900010926102A198A99AA098A89A80E0089531
:1037A0008CB908958CB1089510BC87E489B988ED6F
:1037B0008AB986E880BD08958F929F92AF92BF929A
:1037C000CF92DF92EF92FF920F931F93CF93DF93ED
:1037D0007C01411551056105710559F0C22FD0E0FA
:1037E000219710E000E38AE0882E912CA12CB12CC7
:1037F0001BC0982FF70130E322C06701CC0EDD1EFD
:103800004115510561057105A1F0CB01BA01A50172
:1038100094010E942A1F942F852F605DF60160831A
:10382000A901692F782F2197CF3FFFEFDF0729F7F5
:1038300004C0F60100831F5FF6CF812F07C08E2FD3
:10384000891B821710F43193FACF82E0DF91CF9178
:103850001F910F91FF90EF90DF90CF90BF90AF90AE
:103860009F908F900895282FDB01FC018E2F821BE3
:10387000841730F491918D919817C1F380E00895E9
:1038800081E00895AB0160E070E025E00C94DC1B62
:10389000462F50E060E070E023E00C94DC1B2AE04F
:1038A0000C94DC1BDC01522F540F90E030E02150CF
:1038B0003109E92FF0E0E217F30734F4EA0FFB1FB8
:1038C000818180839F5FF5CFFD01E20FF31F80911F
:1038D0006302841738F480916302DB01A80FB11DE5
:1038E0008C9101C080E280838091630290E0019618
:1038F000652F70E00E94161F8093630208956AE0AE
:103900000E94F61E20E1829F900D1124892F0895B8
:10391000982F92959F708F702AE0929F800D1124AE
:103920000895FC01908190539A3008F090E08181D5
:1039300080532AE0929F800D11240895FB01E40F2B
:10394000F11D6AE00E94F61E805D8083905D918388
:103950000895109263020895362FFB012E2F231B2A
:10396000241728F42191DC012D93CD01F7CF089580
:10397000DF92EF92FF920F931F93CF93DF937C011F
:10398000D62EF901E40FF11DE40FF11D05911491FC
:10399000C8010E94751FEC01AC015527B801C70191
:1039A0008D0D911D0E946C1F8C2FDF91CF911F9167
:1039B0000F91FF90EF90DF9008951F920F920FB636
:1039C0000F9211242F933F934F935F936F937F93A5
:1039D0008F939F93AF93BF93EF93FF93E091670211
:1039E00080916602E81768F45D9BFECF81E08E0F40
:1039F00080936702F0E0E859FD4F80810E94D01B60
:103A000006C0109267021092660210926502FF9142
:103A1000EF91BF91AF919F918F917F916F915F9146
:103A20004F913F912F910F900FBE0F901F901895BF
:103A30001092670210926602109265021092640260
:103A40000895809165020895CF93DF9300D0CDB79C
:103A5000DEB791E09093650240E0BE016F5F7F4F5B
:103A60000E949E1C27EB32E04FE060E088E692E087
:103A70000E94B81C8093660242E0BE016F5F7F4FD8
:103A800089E692E00E94AC1C80916602E82FF0E08B
:103A9000E859FD4F9DE090839AE091838E5F80937B
:103AA00066025D9BFECFE091670281E08E0F8093FE
:103AB0006702F0E0E859FD4F80810E94D01B0F9013
:103AC0000F90DF91CF9108956F927F928F929F9286
:103AD000AF92BF92CF92EF920F931F93CF93DF934A
:103AE000CDB7DEB72A970FB6F894DEBF0FBECDBFB5
:103AF0005C01162F3A01490181E0809365024CE098
:103B00004C0D27EB32E060E088E692E00E94B81CA2
:103B100080936602B301CE0106960E94421CB40156
:103B2000CE0101960E94421C8885809369028B8198
:103B300080936D02898580936A028C8180936E02E6
:103B40008A8580936B028D8180936F0280E38E0D56
:103B500080937102C11002C00093730280916602CB
:103B600090E0412FB50188599D4F0E94AC1C609197
:103B70006602610F6093660227EB32E04EE088E652
:103B800092E00E94B81C90916602890F80936602B1
:103B90005D9BFECFE091670281E08E0F809367020C
:103BA000F0E0E859FD4F80810E94D01B2A960FB6A5
:103BB000F894DEBF0FBECDBFDF91CF911F910F9163
:103BC000EF90CF90BF90AF909F908F907F906F902D
:103BD0000895409164024C3040F581E08093650285
:103BE000840F8093640227EB32E060E088E692E085
:103BF0000E94B81CE82FF0E0E859FD4F9DE090834B
:103C00009AE091838E5F809366025D9BFECFE09188
:103C1000670281E08E0F80936702F0E0E859FD4F64
:103C200080810E94D01B80E008951092640281E0A0
:103C30000895CF93C62F21E020936502462FBC0143
:103C400088E692E00E94AC1CC09366025D9BFECFAA
:103C5000E091670281E08E0F80936702F0E0E859FF
:103C6000FD4F8081CF910C94D01B0E94C2010E9415
:103C7000FE170E944F170E94D41B0E94BE1B0E9479
:103C8000D1100E94250F0E94CF110E9414140E948F
:103C900055160E94D5190E94181D0E94C40189B7AB
:103CA000826089BF78940E941B100E94440F0E947A
:103CB0002A120E945E160E943F140E94DD190E9483
:103CC000D401F1CFFC01208376836583249F202DCE
:103CD000112424831382118212820895FC018281AF
:103CE000882399F08181A481B581A80FB11D8C91A1
:103CF000DB018C9381818F5F8183928191509283CC
:103D00009381891301C0118281E00895FC019281A1
:103D10008381981302C080E008958081A481B581D9
:103D2000A80FB11D6C9380818F5F808392819F5F0C
:103D300092839381891301C0108281E00895CF920C
:103D4000DF92EF92FF921F93CF93DF93FC01848168
:103D500090E02381821B9109208130E08217930734
:103D600044F07B01EF0110E06F018FEFC81AD80A11
:103D70000CC080E00EC0F701E10FF11D6081C601AB
:103D80000E94861E8823A9F31F5F8881181798F365
:103D900081E0DF91CF911F91FF90EF90DF90CF9066
:103DA0000895CF92DF92EF92FF920F931F93CF93DC
:103DB0008C017B01C0E06C018FEFC81AD80AF801B2
:103DC0008081C81750F4B7016C0F711DC6010E94A5
:103DD0006E1E882319F0CF5FF2CF81E0CF911F9143
:103DE0000F91FF90EF90DF90CF900895991B79E0AD
:103DF00004C0991F961708F0961B881F7A95C9F77B
:103E000080950895AA1BBB1B51E107C0AA1FBB1FC9
:103E1000A617B70710F0A61BB70B881F991F5A9556
:103E2000A9F780959095BC01CD01089597FB072EC9
:103E300016F4009407D077FD09D00E94021F07FCFA
:103E400005D03EF4909581959F4F089570956195AA
:103E50007F4F0895A1E21A2EAA1BBB1BFD010DC0C6
:103E6000AA1FBB1FEE1FFF1FA217B307E407F5072A
:103E700020F0A21BB30BE40BF50B661F771F881F06
:103E8000991F1A9469F760957095809590959B019C
:103E9000AC01BD01CF010895EE0FFF1F0590F49115
:103EA000E02D0994A29FB001B39FC001A39F700DA4
:103EB000811D1124911DB29F700D811D1124911D32
:103EC00008950E94521FA59F900DB49F900DA49F2E
:103ED000800D911D11240895FB01DC0102C00590A5
:103EE0000D9241505040D8F70895FC0105900020F4
:103EF000E9F7809590958E0F9F1F0895F894FFCF56
:103F00002000000000000000000000000000000091
:103F100000000000000000000000000000000000A1
:0E3F20003B3B17061F0B630A07041115181E02
:00000001FF
