:100000000C945E000C947D000C947D000C947D009B
:100010000C947D000C947D000C947D000C947D006C
:100020000C947D000C947D000C947D000C947D005C
:100030000C947D000C947D000C947D000C94540372
:100040000C947D000C947D000C947D000C947D003C
:100050000C947D000C947D000C947D000C947D002C
:100060000C947D000C947D000C947D000C947D001C
:100070000C947D000C947D000C947D000C947D000C
:100080000C947D000C947D000C947D001F1F1F1F9D
:100090001F1F1F1F1F1E1E1E1E1E1E1F1F1C1C1C7F
:1000A0001C1C1C1F1F1818181818181F1F101010C0
:1000B0001010101F1F0000000000001F11241FBEA1
:1000C000CFEFD0E1DEBFCDBF11E0A0E0B1E0E0ECCA
:1000D000FAE000E00BBF02C007900D92A830B10714
:1000E000D9F721E0A8E0B1E001C01D92AC33B2071E
:1000F000E1F70E9441030C945E050C940000089502
:100100000895CF92DF92EF92FF920F931F93CF93B8
:10011000DF93C62F142F682F70E06F5F7F4F072E7D
:10012000000C880B990B0E94A4046B017C016C2FBE
:1001300070E080E090E00E94A40420E030E040EA1B
:1001400052E40E9401049B01AC01C701B6010E9468
:1001500001040E947304862F65E00E943005C82FB9
:10016000092F811109C0402F6C2F812F0E941A0284
:10017000C031A0F4CF5F0AC0D0E045E06D2F812FE1
:100180000E941A02DF5FCD13F8CFEDCF40E06C2F55
:10019000812F0E941A02CF5FC131C1F7DF91CF9149
:1001A0001F910F91FF90EF90DF90CF900895809175
:1001B0000901811103C081E0809309018091080148
:1001C0008436B8F440E051E060E080E00E949E0197
:1001D00041E064E6809108010E948100809108015D
:1001E0008F5F809308018FEF9BE60197F1F700C0C6
:1001F00000000895D398DB98D498DC98D598DD98C2
:10020000D698DE98D998D89A8CE494E002C00097EA
:1002100059F0DA9A0000019729B3DA98DA9ADA9855
:1002200026FDF5CF892B29F480912B0180688093DE
:100230002B01D39AD49AD59AD69AD89808959FB775
:10024000F89484FF36C0DB9A9FBF9FB7F89485FF70
:1002500036C0DC9A9FBF9FB7F89486FF36C0DD9A00
:100260009FBF9FB7F89487FD36C0DE989FBFDA9A8C
:10027000DA989FB7F89480FF36C0DB9A9FBF9FB78C
:10028000F89481FF36C0DC9A9FBF9FB7F89482FF35
:1002900036C0DD9A9FBF9FB7F89483FF05C0DE9AF2
:1002A0009FBFDA9ADA980895DE989FBFDA9ADA98B3
:1002B0000895DB989FBF9FB7F89485FDCACFDC985F
:1002C0009FBF9FB7F89486FDCACFDD989FBF9FB7A9
:1002D000F89487FFCACFDE9A9FBFDA9ADA989FB761
:1002E000F89480FDCACFDB989FBF9FB7F89481FD3B
:1002F000CACFDC989FBF9FB7F89482FDCACFDD9824
:10030000C9CFD998DB9ADC9ADD98DE98DA9ADA9828
:10031000089510922B0180E090E020E2FC01E65F5E
:10032000FE4F2083019680329105C1F7D19AD29A6F
:10033000D09AD39AD49AD59AD69A0895CF93DF9328
:10034000DA016F3F69F190E1899F600D1124FA0194
:1003500001900020E9F73197E41BF50B20E070E0F5
:1003600012C0FB01E80FF91FED01C80FD91F8881EA
:10037000E65FFE4F80832F5FFD0101900020E9F7CB
:100380003197EA1BFB0B822F90E08E179F0748F3F3
:1003900080912B01816080932B01DF91CF91089593
:1003A000FA0101900020E9F73197E41BF50B60E1B9
:1003B00070E06E1B7F0B7695679590E1899F600DCD
:1003C0001124CCCFEF92FF921F93CF93DF93F62EA1
:1003D000172FC82FC7700E94FA00D9988C2F880F4A
:1003E000880F880F805C0E941F01CF2DD12F7E01C6
:1003F00088E0E80EF11C19910E94FA00D99A812F29
:100400000E941F01CE15DF05B1F70E94FA00D998AE
:10041000DB98DC98DD98DE9ADA9ADA98DB98DC983B
:10042000DD98DE98DA9ADA98DF91CF911F91FF90EC
:10043000EF90089590E1899F600D1124E62FF0E080
:10044000E65FFE4F408380912B01816080932B01FA
:100450000895CF9380912B0180FD02C0CF91089524
:1004600080912B0181FF34C080912C01803208F0F3
:10047000BBC080912C018F70A1F480912C018295DA
:100480008370833009F4F9C0823009F4F8C08130F8
:1004900009F4F1C0C0E80E94FA00D9988C2F0E949C
:1004A0001F01E0912C01F0E0E65FFE4FC0810E9449
:1004B000FA00D99A8C2F0E941F0180912B0187FD91
:1004C00087C080912C018F5F80932C01CF9108957C
:1004D0000E94FA00D998DB9ADC9ADD9ADE98DA9AC3
:1004E000DA98DB9ADC9ADD9ADE9ADA9ADA980E9438
:1004F000FA00D398DB98D498DC98D598DD98D698F4
:10050000DE98D998D89ADA9ACB9B88C080E390E19C
:10051000CC9B892FCD998064DA98DA9ACB99816047
:10052000CC998260CD998460CE998860DA98D39A0C
:10053000D49AD59AD69AD8988F3709F472C08CE09D
:1005400080932D0110922A0110922C018FEF91EAD5
:100550000197F1F700C000000E9481018FEF95E341
:100560000197F1F700C000000E94810184E191E051
:100570000197F1F700000E94810193E99A95F1F744
:1005800000C0D998DB98DC9ADD98DE98DA9ADA9880
:1005900083E98A95F1F700C00E94FA00D99888E2B1
:1005A0000E941F010E94FA00D9988CE00E941F014E
:1005B0000E94FA00D99881E00E941F010E94FA006F
:1005C000D99886E00E941F0180912B0187FF2FC0E0
:1005D00080912B018F7780932B0180912B018E7F4F
:1005E00080932B01CF91089510922C01C0912A0184
:1005F0000E94FA00D9988C2F0E941F01C0912D01F2
:100600000E94FA00D9988C2F8C600E941F01809163
:100610002B018E7F80932B01CF91089580E290E093
:1006200077CF80912B01826080932B011DCF64EBEB
:1006300070E080E00E94E2016CEA70E081E00E94DC
:10064000E20164EA70E082E00E94E2016CE970E09D
:1006500083E00E94E20164E970E084E00E94E2012C
:100660006CE870E085E00E94E20180912B018260DD
:1006700080932B01F3CEC0EC0ECFC0ED0CCFC0E9C0
:100680000ACF0E947F000E94F5030E94D8030E94B7
:1006900089010E94800087B7826087BF78940E949A
:1006A00029020E94D700FBCF1F920F920FB60F9224
:1006B00011240BB60F92CF92DF92EF92FF922F93FD
:1006C0003F934F935F936F937F938F939F93AF93DA
:1006D000BF93CF93EF93FF93C0903401D090350137
:1006E000E0903601F0903701809130019091310116
:1006F000A0913201B091330180912F0190912E0190
:10070000CFE1C80FCD3708F04BC08FEFC81AD80A19
:10071000E80AF80AC701B60128EE33E040E050E0ED
:100720000E943C05DC01CB0163E0B695A795979547
:1007300087956A95D1F7682F8F3130F061EE680F99
:100740002F5F3F4F4F4F5F4FC0923401D092350122
:10075000E0923601F0923701C0932F0120933001CF
:1007600030933101409332015093330160932E0155
:10077000FF91EF91CF91BF91AF919F918F917F9119
:100780006F915F914F913F912F91FF90EF90DF908C
:10079000CF900F900BBE0F900FBE0F901F9018952B
:1007A000C2EAC80F82E0C80ED11CE11CF11CB2CF16
:1007B000109238011092390110923A0110923B01C7
:1007C00010923401109235011092360110923701C7
:1007D00010923001109231011092320110923301C7
:1007E00010922F0110922E01089583B7846083BF69
:1007F00083B7886083BF83B78F7B83BF88ED81BF5A
:1008000008950E9415040C94F6040E94EF0458F019
:100810000E94E80440F029F45F3F29F00C94DF04C3
:1008200051110C942A050C94E5040E94070568F305
:100830009923B1F3552391F3951B550BBB27AA2799
:1008400062177307840738F09F5F5F4F220F331FD3
:10085000441FAA1FA9F335D00E2E3AF0E0E832D09B
:1008600091505040E695001CCAF72BD0FE2F29D09E
:10087000660F771F881FBB1F261737074807AB0770
:10088000B0E809F0BB0B802DBF01FF2793585F4FE5
:100890003AF09E3F510578F00C94DF040C942A0541
:1008A0005F3FE4F3983ED4F3869577956795B795C7
:1008B000F7959F5FC9F7880F911D9695879597F9D2
:1008C0000895E1E0660F771F881FBB1F621773074B
:1008D0008407BA0720F0621B730B840BBA0BEE1F60
:1008E00088F7E09508950E940F0588F09F5798F0CB
:1008F000B92F9927B751B0F0E1F0660F771F881F25
:10090000991F1AF0BA95C9F714C0B13091F00E943E
:100910002905B1E008950C942905672F782F8827C1
:10092000B85F39F0B93FCCF3869577956795B39565
:10093000D9F73EF490958095709561957F4F8F4FD4
:100940009F4F0895E89409C097FB3EF490958095D9
:10095000709561957F4F8F4F9F4F9923A9F0F92F85
:1009600096E9BB279395F695879577956795B79503
:10097000F111F8CFFAF4BB0F11F460FF1BC06F5FE9
:100980007F4F8F4F9F4F16C0882311F096E911C0FB
:10099000772321F09EE8872F762F05C0662371F01C
:1009A00096E8862F70E060E02AF09A95660F771F30
:1009B000881FDAF7880F9695879597F9089597F924
:1009C0009F6780E870E060E008959FEF80EC0895F5
:1009D00000240A941616170618060906089500241E
:1009E0000A9412161306140605060895092E039498
:1009F000000C11F4882352F0BB0F40F4BF2B11F40C
:100A000060FF04C06F5F7F4F8F4F9F4F089557FD6A
:100A10009058440F551F59F05F3F71F04795880F6C
:100A200097FB991F61F09F3F79F087950895121603
:100A300013061406551FF2CF4695F1DF08C01616AF
:100A400017061806991FF1CF869571056105089460
:100A50000895E894BB2766277727CB0197F9089577
:100A6000991B79E004C0991F961708F0961B881F00
:100A70007A95C9F780950895A1E21A2EAA1BBB1B8F
:100A8000FD010DC0AA1FBB1FEE1FFF1FA217B3075A
:100A9000E407F50720F0A21BB30BE40BF50B661F70
:100AA000771F881F991F1A9469F760957095809534
:100AB00090959B01AC01BD01CF010895F894FFCF43
:080AC000546573742E2E000032
:00000001FF
