:100000000C949F000C94B1000C94B1000C94B100BE
:100010000C94B1000C94B1000C94B1000C94B1009C
:100020000C94B1000C94B1000C94B1000C94B1008C
:100030000C94B1000C94B1000C94B1000C94980293
:100040000C94B1000C94B1000C94B1000C94B1006C
:100050000C94B1000C94B1000C94B1000C94B1005C
:100060000C94B1000C94B1000C94B1000C94B1004C
:100070000C94B1000C94B1000C94B1000C94B1003C
:100080000C94B1000C947A030C94B100B203920367
:10009000920392039203920392039203BE0392038C
:1000A000920392039203920392039203BE0392037C
:1000B000920392039203920392039203D403920356
:1000C000920392039203920392039203B203920368
:1000D000920392039203920392039203D403920336
:1000E000920392039203920392039203B203920348
:1000F000920392039203920392039203E403920306
:10010000920392039203920392039203ED039203EC
:10011000920392039203920392039203B203920317
:1001200092039203920392039203920309049203AF
:1001300092039203920392039203920334041124D4
:100140001FBECFEFD0E1DEBFCDBF21E0A0E0B1E028
:1001500001C01D92AB34B207E1F70E9424050C9454
:1001600078050C9400000895EDE3F1E080E08193C0
:100170008F5F8A30E1F710923C0110923B011092A0
:100180003A01089580913C01882319F0813039F0BB
:1001900008950E94F200882311F181E01EC0809131
:1001A0003A0190913B01C297B8F460913A01709185
:1001B0003B0180E090E02AE04DE351E00E94FA002C
:1001C00080913A0190913B010A9690933B01809374
:1001D0003A0110923C01089582E080933C01089519
:1001E0000C94C200909100019295937081E009F007
:1001F00080E008952131D0F47093060160930501E9
:100200007093040160930301209301012093020184
:10021000509308014093070150930A01409309014C
:10022000809100018F7C8061809300010895CF92BE
:10023000DF92EF92FF92CF93DF9300D0CDB7DEB77E
:10024000809100018295837061F080910001829518
:100250008370813089F180910001829583708230B2
:1002600049F00F900F90DF91CF91FF90EF90DF90CA
:10027000CF90089540910101209105013091060130
:100280009091000191FD74C090EA90931B01690167
:10029000D0921C0120931D0180931F018BE091E0FF
:1002A00090932101809320014093220180910001CD
:1002B000826080930001D5CF80910001869586955C
:1002C0008370813009F460C080F1823051F6409132
:1002D000010120910501309106019091000191FFEB
:1002E000D3CF8BE191E00E94DA048111F5C08091B7
:1002F00000018D7F8093000180910001837F8093B6
:10030000000140910101809107019091080150E0A6
:100310006BE071E00E946405892B09F0A2CF809107
:1003200000018F7C809300019CCF3091010180916E
:100330000501909106012091000121FD87C020EA6E
:1003400020931B01AC0150931C0180931D0182E09E
:1003500080931F018BE091E0909321018093200115
:10036000309322018091000182608093000179CF57
:100370008BE191E00E94DA04811159C08091000163
:100380008D7F80930001CBCF80910201882309F4F7
:1003900056C08091030190910401982F9F7180E2D3
:1003A000891B8A8380E18983909102018981981752
:1003B00018F480910201898399818A81891710F448
:1003C0008A81898399814091090150910A01209184
:1003D0000301309104018091000180FF57C08BE13F
:1003E00091E00E94A904811187C0809100018E7F55
:1003F0008093000129818091030190910401820F73
:10040000911D90930401809303012981809109013A
:1004100090910A01820F911D90930A018093090126
:10042000998180910201891B809302011ACF87E490
:1004300091E00E943903882309F4A0CF12CF809164
:100440000001837F8860809300010BCF8BE191E0F6
:100450000E94DA04811148C0809100018D7F809351
:10046000000140910101809107019091080150E045
:100470006BE071E00E946405892B09F450CF8091F4
:100480000001837F846080930001EBCE80EA80933B
:100490001B016901D0921C0120931D0182E0809311
:1004A0001F015093210140932001909322010E944B
:1004B0006203DC01CB014E96A11DB11D8093470163
:1004C00090934801A0934901B0934A0180910001A3
:1004D000816080930001C5CE87E491E00E943903DA
:1004E000882309F404CFBDCE87E491E00E9439034C
:1004F000882309F4B1CFB5CE87E491E00E94390397
:10050000882309F472CFADCE86E08093230140E1C9
:1005100050E06FEF70E08BE091E00E947105E0E049
:10052000F1E01086178211821682158210820895DA
:100530001F920F920FB60F9211240BB60F92CF920B
:10054000DF92EF92FF922F933F934F935F936F93BE
:100550007F938F939F93AF93BF93CF93EF93FF932B
:10056000C0902A01D0902B01E0902C01F0902D0139
:100570008091260190912701A0912801B091290135
:100580008091250190912401CFE1C80FCD3708F06B
:100590004BC08FEFC81AD80AE80AF80AC701B6019B
:1005A00028EE33E040E050E00E943905DC01CB0149
:1005B00063E0B695A795979587956A95D1F7682FCB
:1005C0008F3130F061EE680F2F5F3F4F4F4F5F4F1D
:1005D000C0922A01D0922B01E0922C01F0922D01C1
:1005E000C0932501209326013093270140932801D1
:1005F0005093290160932401FF91EF91CF91BF9116
:10060000AF919F918F917F916F915F914F913F91AA
:100610002F91FF90EF90DF90CF900F900BBE0F9037
:100620000FBE0F901F901895C2EAC80F82E0C80E47
:10063000D11CE11CF11CB2CF10922E0110922F019F
:10064000109230011092310110922A0110922B0168
:1006500010922C0110922D01109226011092270168
:100660001092280110922901109225011092240164
:1006700008950F931F93FC0180819181A281B38122
:10068000B7FD1CC02FB7F89440912A0150912B015F
:1006900060912C0170912D012FBF8C019D010427C9
:1006A00015272627372737FD05C0481759076A073A
:1006B0007B0720F481E01F910F91089580E01F9146
:1006C0000F9108952FB7F89460912A0170912B0132
:1006D00080912C0190912D012FBF089583B78460E4
:1006E00083BF83B7886083BF83B78F7B83BF88ED69
:1006F00081BF08951F920F920FB60F9211240BB66F
:100700000F922F933F938F939F93AF93BF93EF934A
:10071000FF9380917100E82FE87F8E2F90E089355C
:100720009105D8F080913801811108C081E0809353
:1007300036018BEF8093370110923901FF91EF91D1
:10074000BF91AF919F918F913F912F910F900BBED1
:100750000F900FBE0F901F901895FC01EA5BFF4FA2
:100760000C945B0581E0809336011092390184E995
:10077000809374008FEF80933701E0CF8091360132
:100780009EEF980F933008F491C0853009F49AC019
:1007900081E0809336011092390184E980937400DE
:1007A0008BEF80933701CACF80913601843009F4F2
:1007B00095C09EEF980F923008F4A9C0853041F79C
:1007C00085EA80937400BACF81E08093360186EF8A
:1007D0008093370110923901B1CF80913601853075
:1007E000B9F62091350130E0E0913201F09133010A
:1007F000878190E001972817390759F1809174009B
:100800008064809374008091740085688093740084
:1008100095CF9091730080913601853009F0B8CF63
:10082000A0913201B09133011596ED91FC9116978C
:100830008091350121E0280F20933501E80FF11D4B
:10084000908330E017968C9190E001972817390734
:10085000ACF2809174008F7B80937400809174005F
:100860008568809374006ACF9091730080913601FF
:10087000853009F08DCFE0913201F0913301058090
:10088000F681E02D8091350121E0280F209335017C
:10089000E80FF11D908384E98093740081E08093D8
:1008A0003601109237011092390148CFE0913201A0
:1008B000F091330180818E7F8093730085E880936F
:1008C00074003CCFE0913201F0913301808181606E
:1008D0008093730085E88093740030CF8091350158
:1008E000E0913201F091330197818917A0F60580DC
:1008F000F681E02D91E0980F90933501E80FF11DFE
:1009000080818093730085E88093740017CF909165
:100910003401E0913201F0913301E90FF11D2181A1
:100920009F5F909334012093730025E82093740017
:10093000E0913201F091330124819213FFCE823095
:1009400021F085E080933601F9CE84E08093360172
:10095000F5CE009769F120913901211127C09093BC
:10096000330180933201FC018085809370001092E6
:1009700035011092340181E080933901E091320118
:10098000F09133018481882369F082E080933601FD
:1009900085EA80937400809139018111FCCF8091A8
:1009A0003701089584E080933601F2CF80E80895FE
:1009B00088EF0895009771F1FC012781222351F1FE
:1009C00020913901211128C0909333018093320185
:1009D000808580937000109235011092340181E07F
:1009E00080933901E0913201F091330184818823B1
:1009F00069F083E08093360185EA809374008091EA
:100A000039018111FCCF80913701089585E08093F1
:100A10003601F2CF88EF089580E80895E4E7F0E02A
:100A200010828081846080831092710086E08093C0
:100A30007000808181608083109238018998919A3A
:100A40008898909A80E008950E94B3000E946E03F7
:100A50000E941C030E940E050E9484020E94B400A2
:100A600087B7826087BF78940E9417010E94F000C8
:100A7000FBCFA1E21A2EAA1BBB1BFD010DC0AA1FB2
:100A8000BB1FEE1FFF1FA217B307E407F50720F0F7
:100A9000A21BB30BE40BF50B661F771F881F991F72
:100AA0001A9469F760957095809590959B01AC01BB
:100AB000BD01CF010895EE0FFF1F0024001C0BBEE7
:100AC0000790F691E02D0994FB01DC0104C08D91A3
:100AD0000190801921F441505040C8F7881B990BB0
:100AE0000895DC0101C06D9341505040E0F7089536
:040AF000F894FFCFA8
:00000001FF
