:100000000C9446000C9458000C9458000C94580022
:100010000C9458000C9458000C9458000C94580000
:100020000C9458000C9458000C9458000C945800F0
:100030000C9458000C9458000C9458000C947002C6
:100040000C9458000C9458000C9458000C945800D0
:100050000C9458000C9458000C9458000C945800C0
:100060000C9458000C9458000C9458000C945800B0
:100070000C9458000C9458000C9458000C945800A0
:100080000C9458000C9476030C94580011241FBE55
:10009000CFEFD0E1DEBFCDBF21E0A0E0B1E001C0F5
:1000A0001D92A535B207E1F70E9415050C9459057C
:1000B0000C940000109A119A0895E7E4F1E080E0B2
:1000C00081938F5F8A30E1F71092460110924501CB
:1000D00010924401089580914601823089F128F4FC
:1000E000882341F0813069F008958330A9F184308C
:1000F000E9F108950E940701882309F44EC081E0C8
:100100004AC08091440190914501C297B8F4609132
:1001100044017091450180E090E02AE047E451E01D
:100120000E940F0180914401909145010A9690939D
:1001300045018093440110924601089582E02BC04E
:100140000E940701882349F14AE060E070E0CB019A
:100150000E942C0183E01FC00E9407018823E9F060
:100160008AE391E00E945D0284E015C0EAE3F1E0D9
:10017000A7E4B1E092E021E031918D91381303C002
:1001800083B1822702C083B1892783B981E0E43437
:10019000F80791F785E08093460108950C946B0071
:1001A0008091000181FD18C080EA80931B0170934B
:1001B0001C0160931D0182E080931F018BE091E0A0
:1001C00090932101809320014093220180910001AE
:1001D00082608093000119C08BE191E00E94CD0400
:1001E000811107C0809100018D7F8093000180E024
:1001F000089581E591E00E943B03811106C0909132
:1002000000019D7F90930001089581E008959091F1
:1002100000019295937081E009F080E0089521310A
:10022000D0F470930601609305017093040160930C
:100230000301209301012093020150930801409390
:10024000070150930A0140930901809100018F7CBE
:1002500080618093000108954131A0F470930601FC
:100260006093050140930101409302018BE091E00E
:100270009093080180930701809100018F7C806238
:10028000809300010895CF92DF92EF92FF92CF9377
:10029000DF9300D0CDB7DEB78091000182958370E7
:1002A00009F4EAC08091000182958370813009F0E1
:1002B000CCC080910001869586958370813021F1B4
:1002C00020F0823009F4A2C0D7C0409101016091B2
:1002D00005017091060180E090E00E94D00081113C
:1002E000CBC040910101809107019091080150E03D
:1002F0006BE071E00E944C05892B09F4B8C0809135
:100300000001837F8460B6C080910201882309F4D4
:1003100078C08091030190910401982F9F7180E231
:10032000891B8A8380E189839091020189819817D2
:1003300018F480910201898399818A81891710F4C8
:100340008A81898329814091090150910A01809114
:100350000301909104013091000130FD24C030EA86
:1003600030931B016C01D0921C0180931D0182E02F
:1003700080931F015093210140932001209322017B
:100380000E942F03DC01CB014E96A11DB11D80936D
:10039000510190935201A0935301B0935401809165
:1003A0000001816067C08BE191E00E949E04882378
:1003B00031F081E591E00E943B0381115DC08091A5
:1003C00000018E7F8093000129818091030190912B
:1003D0000401820F911D90930401809303012981F0
:1003E0008091090190910A01820F911D90930A0159
:1003F00080930901998180910201891B80930201F8
:100400003BC080910001837F886034C0409101012E
:10041000609105017091060180E090E00E94D0009B
:1004200081112AC080910001837F80930001409157
:100430000101809107019091080150E06BE071E0AB
:100440000E944C05892BC1F412C080910001829555
:100450008370823089F440910101609105017091AF
:10046000060180E090E00E94D000811105C08091DB
:1004700000018F7C809300010F900F90DF91CF914E
:10048000FF90EF90DF90CF90089586E08093230156
:10049000EBE0F1E08FEF819391E0EB31F907D9F7D1
:1004A00010920801109207011092010110920601AA
:1004B00010920501109200010895AC0190E0209186
:1004C0000101921760F4292F30E0F901E55FFE4F3A
:1004D0008081FA01E20FF31F80839F5FF0CF0895C0
:1004E0001F920F920FB60F9211240BB60F924F92DC
:1004F0005F926F927F928F929F92AF92BF92CF92B4
:10050000DF92EF92FF922F933F934F935F936F93FE
:100510007F938F939F93AF93BF93CF93EF93FF936B
:10052000C0902A01D0902B01E0902C01F0902D0179
:100530004090260150902701609028017090290179
:100540008091250180902E0190902F01A090300184
:10055000B0903101CFE1C80FCD3730F48FEFC81A1A
:10056000D80AE80AF80A07C0C2EAC80F82E0C80E33
:10057000D11CE11CF11C8FEF881A980AA80AB80A4E
:10058000C501B40120E233E040E050E00E942A05BA
:10059000672B682B692B29F48FEF481A580A680AD1
:1005A000780A809124018F5F80932401883011F4B0
:1005B00010922401C0922A01D0922B01E0922C01CA
:1005C000F0922D01C09325014092260150922701FF
:1005D000609228017092290180922E0190922F0141
:1005E000A0923001B0923101FF91EF91CF91BF9174
:1005F000AF919F918F917F916F915F914F913F91BB
:100600002F91FF90EF90DF90CF90BF90AF909F9091
:100610008F907F906F905F904F900F900BBE0F90D8
:100620000FBE0F901F90189510922E0110922F015F
:10063000109230011092310110922A0110922B0178
:1006400010922C0110922D01109226011092270178
:1006500010922801109229011092250108952FB7B8
:10066000F89460912A0170912B0180912C01909156
:100670002D012FBF0895CF92DF92EF92FF920F933B
:100680001F93FC01C080D180E280F380F7FE02C09E
:1006900080E010C00E942F039701860106271727CC
:1006A0002827392737FD05C06C157D058E059F0568
:1006B00078F781E01F910F91FF90EF90DF90CF903E
:1006C000089583B7846083BF83B7886083BF83B78F
:1006D0008F7B83BF88ED81BF089581E080933601D1
:1006E0001092390184E98093740008951F920F924B
:1006F0000FB60F9211240BB60F922F933F934F9387
:100700005F936F937F938F939F93AF93BF93EF9379
:10071000FF9380917100887F883209F44DC080F486
:10072000803131F130F4882309F488C0883001F138
:10073000E6C0883109F440C0803209F47FC0DFC0D0
:10074000803489F158F4803309F478C0883309F093
:10075000D6C081E08093360186EFD9C0803509F498
:1007600081C0883509F4ABC0883409F0C8C066C0C0
:10077000809136019EEF980F933038F4E09132016A
:10078000F091330180818E7F08C0853089F4E0913B
:100790003201F0913301808181608093730085E89C
:1007A00080937400B8C080913601853009F44CC044
:1007B0000E946D038BEF45C0909136019430A9F4EF
:1007C00080913501E0913201F091330197818917D1
:1007D00008F08CC00580F681E02D91E0980F909391
:1007E0003501E80FF11D8081D8CF8EEF890F82305F
:1007F00000F580913401E0913201F0913301E80F6E
:10080000F11D21818F5F809334012093730025E8CF
:1008100020937400E0913201F0913301248182131E
:100820007AC0923011F484E001C085E080933601F3
:1008300072C0953009F0BCCF85EAB2CF0E946D033B
:100840008FEF8093370167C02091350130E0E09150
:100850003201F0913301878190E001972817390721
:1008600009F524C09091730080913601853009F01C
:100870009FCFA0913201B09133011596ED91FC917B
:1008800016978091350121E0280F20933501E80F5C
:10089000F11D908330E017968C9190E00197281716
:1008A000390724F480917400806403C0809174003F
:1008B0008F7B8093740080917400856871CF9091D4
:1008C000730080913601853009F072CFE0913201DA
:1008D000F09133010580F681E02D8091350121E012
:1008E000280F20933501E80FF11D908384E9809350
:1008F000740081E080933601109237010AC0809124
:100900003801811108C081E0809336018BEF80931C
:10091000370110923901FF91EF91BF91AF919F91F3
:100920008F917F916F915F914F913F912F910F9098
:100930000BBE0F900FBE0F901F901895009749F1B6
:1009400020913901211127C0909333018093320106
:10095000FC01808580937000109235011092340163
:1009600081E080933901E0913201F091330184817B
:10097000811102C084E001C082E08093360185EAE3
:1009800080937400809139018111FCCF80913701EF
:10099000089588EF089580E80895009761F1FC01BB
:1009A0002781222341F120913901211126C0909302
:1009B000330180933201808580937000109235015D
:1009C0001092340181E080933901E0913201F0917D
:1009D00033018481811102C085E001C083E08093EE
:1009E000360185EA80937400809139018111FCCF32
:1009F00080913701089588EF089580E80895E4E72D
:100A0000F0E010828081846080831092710086E023
:100A10008093700080818160808310923801899872
:100A2000919A8898909A80E008950E945A000E94B6
:100A300061030E9414030E94FF040E9445020E9469
:100A40005D0087B7826087BF78940E9443010E944F
:100A5000CE00FBCFA1E21A2EAA1BBB1BFD010DC0CD
:100A6000AA1FBB1FEE1FFF1FA217B307E407F5075E
:100A700020F0A21BB30BE40BF50B661F771F881F3A
:100A8000991F1A9469F760957095809590959B01D0
:100A9000AC01BD01CF010895FB01DC0104C08D91C3
:100AA0000190801921F441505040C8F7881B990BE0
:060AB0000895F894FFCF49
:00000001FF
