:100000000C9446000C9458000C9458000C94580022
:100010000C9458000C9458000C9458000C94580000
:100020000C9458000C9458000C9458000C945800F0
:100030000C9458000C9458000C9458000C94C10176
:100040000C9458000C9458000C9458000C945800D0
:100050000C9458000C9458000C9458000C945800C0
:100060000C9458000C9458000C9458000C945800B0
:100070000C9458000C9458000C9458000C945800A0
:100080000C9458000C94BB020C94580011241FBE11
:10009000CFEFD0E1DEBFCDBF21E0A0E0B1E001C0F5
:1000A0001D92A337B207E1F70E9469040C947E0405
:1000B0000C940000109A119A0895EDE4F1E0119269
:1000C00081E0ED36F807D9F708950E949B00882358
:1000D00051F180916E018F3FB1F410926E0187E172
:1000E00080934D018BE080934E0180E680934F0119
:1000F00043E06DE471E080E090E00E94A30081E0C5
:1001000080936D01089580916E0140E26DE471E08D
:1001100020E2829FC00111240E94A30080916E0101
:100120008F5F80936E01089580916D01811102C0EF
:100130000C946500089590910001937081E09330D4
:1001400009F080E00895413270F5909306018093A4
:1001500005019093040180930301409301014093B2
:100160000201709308016093070170930A01609384
:100170000901809100018C7F809300018091000132
:100180008B7F809300010E947402DC01CB018C59AB
:100190009F4FAF4FBF4F80936F0190937001A0931B
:1001A0007101B09372010895CF93DF9300D0CDB762
:1001B000DEB78091000183708130C9F120F0823078
:1001C00009F446C0B1C020910101809105019091D0
:1001D00006013091000133FD16C030EA30932B0147
:1001E00090932C0180932D0182E080932F018BE06E
:1001F00091E09093310180933001209332018091FE
:10020000000188608FC08BE291E00E94120481118E
:100210008BC080910001877F809300018091000155
:1002200082FD88C0809100018C7F81607BC04091FD
:10023000010180910701909108016BE071E00E943B
:100240005A04811177C0809100018C7F82606AC05E
:1002500080910201882309F462C08091030190918A
:100260000401982F9F7180E2891B8A8380E1898332
:10027000909102018981981718F480910201898375
:1002800099818A81891710F48A8189832981409113
:10029000090150910A01809103019091040130916C
:1002A000000134FD14C030EA30932B0190932C01EF
:1002B00080932D0182E080932F0150933101409370
:1002C0003001209332018091000180612BC08BE2CC
:1002D00091E00E94E303811127C0809100018F7E8D
:1002E0008093000129818091030190910401820F84
:1002F000911D90930401809303012981809109014C
:1003000090910A01820F911D90930A018093090137
:10031000998180910201891B8093020105C080911F
:1003200000018C7F809300018FE691E00E948002A3
:10033000811105C0809100018360809300010F90BE
:100340000F90DF91CF91089586E080933301EBE029
:10035000F1E08FEF819391E0EB32F907D9F710923A
:1003600008011092070110920101109206011092EB
:1003700005011092000180910001836080930001CB
:1003800008951F920F920FB60F9211242F938F93FF
:100390009F93AF93BF9380913D0190913E01A091B7
:1003A0003F01B09140010196A11DB11D80933D0117
:1003B00090933E01A0933F01B0934001809138019A
:1003C000815E80933801809138018D37C0F0809133
:1003D00038018D578093380180913D0190913E0105
:1003E000A0913F01B09140010196A11DB11D8093E4
:1003F0003D0190933E01A0933F01B0934001809155
:100400003601909137018F38914050F48091360138
:10041000909137010196909337018093360123C064
:1004200010923701109236018091340191E08927B2
:10043000809334019093350180913401811113C070
:100440008091390190913A01A0913B01B0913C011A
:100450000196A11DB11D8093390190933A01A0939B
:100460003B01B0933C018091410190914201A091E8
:100470004301B09144010196A11DB11D809341013A
:1004800090934201A0934301B0934401BF91AF9177
:100490009F918F912F910F900FBE0F901F901895E5
:1004A00010924101109242011092430110924401B6
:1004B00010923D0110923E0110923F0110924001B6
:1004C0001092340181E0809335011092390110922D
:1004D0003A0110923B0110923C01109238011092A7
:1004E00037011092360108952FB7F89460913D01BD
:1004F00070913E0180913F01909140012FBF08957E
:10050000CF92DF92EF92FF920F931F93FC01C08076
:10051000D180E280F380F7FE02C080E010C00E942C
:10052000740297018601062717272827392737FDE8
:1005300005C06C157D058E059F0578F781E01F913C
:100540000F91FF90EF90DF90CF90089583B7846074
:1005500083BF83B7886083BF83B78F7B83BF87EDFB
:1005600081BF089581E08093490110924C0184E994
:100570008093740008951F920F920FB60F9211246A
:100580000BB60F922F933F934F935F936F937F938D
:100590008F939F93AF93BF93EF93FF9380917100DD
:1005A000887F883209F44DC080F4803131F130F415
:1005B000882309F488C0883001F1E6C0883109F445
:1005C00040C0803209F47FC0DFC0803489F158F424
:1005D000803309F478C0883309F0D6C081E0809375
:1005E000490186EFD9C0803509F481C0883509F406
:1005F000ABC0883409F0C8C066C0809149019EEF45
:10060000980F933038F4E0914501F09146018081D4
:100610008E7F08C0853089F4E0914501F091460154
:10062000808181608093730085E880937400B8C0F6
:1006300080914901853009F44CC00E94B2028BEFD1
:1006400045C0909149019430A9F480914801E0910E
:100650004501F09146019781891708F08CC005800B
:10066000F681E02D91E0980F90934801E80FF11D7D
:100670008081D8CF8EEF890F823000F580914701BD
:10068000E0914501F0914601E80FF11D21818F5F56
:10069000809347012093730025E820937400E09134
:1006A0004501F0914601248182137AC0923011F401
:1006B00084E001C085E08093490172C0953009F063
:1006C000BCCF85EAB2CF0E94B2028FEF80934A017D
:1006D00067C02091480130E0E0914501F09146016A
:1006E000878190E001972817390709F524C0909178
:1006F000730080914901853009F09FCFA091450199
:10070000B09146011596ED91FC91169780914801A4
:1007100021E0280F20934801E80FF11D908330E07D
:1007200017968C9190E001972817390724F480914F
:100730007400806403C0809174008F7B8093740088
:1007400080917400856871CF909173008091490108
:10075000853009F072CFE0914501F09146010580A6
:10076000F681E02D8091480121E0280F2093480177
:10077000E80FF11D908384E98093740081E08093F9
:10078000490110924A010AC080914B01811108C0B1
:1007900081E0809349018BEF80934A0110924C01D4
:1007A000FF91EF91BF91AF919F918F917F916F9149
:1007B0005F914F913F912F910F900BBE0F900FBE05
:1007C0000F901F901895009749F120914C0121112D
:1007D00027C09093460180934501FC01808580935A
:1007E0007000109248011092470181E080934C0103
:1007F000E0914501F09146018481811102C084E0BD
:1008000001C082E08093490185EA80937400809161
:100810004C018111FCCF80914A01089588EF089521
:1008200080E80895009761F1FC012781222341F1BE
:1008300020914C01211126C09093460180934501DF
:10084000808580937000109248011092470181E0EA
:1008500080934C01E0914501F09146018481811122
:1008600002C085E001C083E08093490185EA80935E
:10087000740080914C018111FCCF80914A01089550
:1008800088EF089580E80895E4E7F0E01082808121
:10089000846080831092710086E080937000808174
:1008A0008160808310924B018998919A8898909AE0
:1008B00080E00895282FDB01FC018E2F821B841716
:1008C00030F491918D919817C1F380E0089581E003
:1008D00008950E945A000E94A6020E9450020E949F
:1008E00044040E94A4010E945D0087B7826087BF14
:1008F00078940E94D4000E949400FBCFF894FFCF1C
:00000001FF
