:100000000C94AB000C94BD000C94BD000C94BD008E
:100010000C94BD000C94BD000C94BD000C94BD006C
:100020000C94BD000C94BD000C94BD000C94BD005C
:100030000C94BD000C94BD000C94BD000C946602A1
:100040000C94BD000C94BD000C94BD000C94BD003C
:100050000C94BD000C94BD000C94BD000C94BD002C
:100060000C94BD000C94BD000C94BD000C94BD001C
:100070000C94BD000C94BD000C94BD000C94BD000C
:100080000C94BD000C94C2040C94BD00FA04DA0474
:10009000DA04DA04DA04DA04DA04DA040605DA0443
:1000A000DA04DA04DA04DA04DA04DA040605DA0433
:1000B000DA04DA04DA04DA04DA04DA041C05DA040D
:1000C000DA04DA04DA04DA04DA04DA04FA04DA0420
:1000D000DA04DA04DA04DA04DA04DA041C05DA04ED
:1000E000DA04DA04DA04DA04DA04DA04FA04DA0400
:1000F000DA04DA04DA04DA04DA04DA042C05DA04BD
:10010000DA04DA04DA04DA04DA04DA043505DA04A3
:10011000DA04DA04DA04DA04DA04DA04FA04DA04CF
:10012000DA04DA04DA04DA04DA04DA045105DA0467
:10013000DA04DA04DA04DA04DA04DA047C051F1CCF
:100140001F1E1F1E1F1F1E1F1E1F1F1D1F1E1F1EC7
:100150001F1F1E1F1E1F11241FBECFEFD0E1DEBFC9
:10016000CDBF21E0A0E0B1E001C01D92A333B207F2
:10017000E1F70E946C060C94D6060C9400000895DA
:10018000ECE2F1E0108211828CE0828381E08383D3
:100190008BE08483858386E18683089580912B019B
:1001A00081110BC00E944002811107C08CE291E0D6
:1001B0000E94440281E080932B0108951092140163
:1001C000E0E0F1E080ED8083118281E08483ADE0A6
:1001D000B1E0B683A58387E087839FE29087FD0126
:1001E00011928A95E9F708958091140180FD93C0DA
:1001F00081FF76C080E091E00E94220681112CC12F
:1002000080910D01982F92959F708F705AE0959F65
:10021000800D112480930D0180910E01982F9295ED
:100220009F708F702AE0929F800D112480930E01A1
:1002300080910F01982F92959F708F704AE0949F44
:10024000800D112480930F0180911001982F9295B9
:100250009F708F705AE0959F800D1124809310013C
:1002600080911101982F92959F708F702AE0929F34
:10027000800D11248093110180911201982F929585
:100280009F708F704AE0949F800D1124809312011B
:1002900080911301982F92959F708F705AE0959FCF
:1002A000800D1124809313018DE091E00E94810361
:1002B0000E9451030E946903DC01CB01845D9E4FC3
:1002C000AF4FBF4F8093090190930A01A0930B0198
:1002D000B0930C01809114018D7F809314010895D7
:1002E00089E091E00E9430038111F9CF0E945D0303
:1002F000DC01CB014E96A11DB11D809309019093A5
:100300000A01A0930B01B0930C018091140182604B
:1003100080931401089582FF28C080E091E00E943C
:10032000F105882309F4A0C089E091E00E94070349
:100330008111D5CF809114018B7F809314010E948D
:100340006903DC01CB01845D9E4FAF4FBF4F8093AB
:10035000090190930A01A0930B01B0930C018091C5
:1003600014018E7F80931401089520910D019DEC5E
:10037000299F312D112436953695369546E0349FC8
:10038000200D112430910E01399F412D11244695E5
:100390004695469556E0459F300D112430930E0149
:1003A00030910F01399F412D112446954695469570
:1003B00056E0459F300D112430930F01309110010C
:1003C000399F412D112446954695469556E0459F07
:1003D000300D11243093100130911101399F412DBE
:1003E000112446954695469556E0459F300D1124BB
:1003F0003093110130911201399F412D11244695FE
:100400004695469556E0459F300D112430931201D4
:1004100030911301399F912D1124969596959695BB
:1004200046E0949F300D11243093130120682093EF
:100430000D018460809314010E945D03DC01CB01F7
:100440004E96A11DB11D8093090190930A01A093BE
:100450000B01B0930C01089589E091E00E9407031D
:10046000882309F427CF0895809114018B7F80930E
:1004700014010E9469034DE051E00E942B045FCFFC
:100480008091140181700895DC018C91EDE0F1E020
:10049000808311968C911197818312968C9112977B
:1004A000828313968C911397838314968C9114975F
:1004B000848315968C911597858316968C918683E7
:1004C0008091140181608093140108951F920F920E
:1004D0000FB60F9211240BB60F92CF92DF92EF92CC
:1004E000FF922F933F934F935F936F937F938F93DD
:1004F0009F93AF93BF93CF93EF93FF93C0901B0154
:10050000D0901C01E0901D01F0901E018091170118
:1005100090911801A0911901B0911A0180911601D2
:1005200090911501CFE1C80FCD3708F04BC08FEF88
:10053000C81AD80AE80AF80AC701B60128EE33E05B
:1005400040E050E00E949106DC01CB0163E0B695EB
:10055000A795979587956A95D1F7682F8F3130F0D9
:1005600061EE680F2F5F3F4F4F4F5F4FC0921B01EF
:10057000D0921C01E0921D01F0921E01C093160161
:1005800020931701309318014093190150931A01D9
:1005900060931501FF91EF91CF91BF91AF919F9122
:1005A0008F917F916F915F914F913F912F91FF902C
:1005B000EF90DF90CF900F900BBE0F900FBE0F907B
:1005C0001F901895C2EAC80F82E0C80ED11CE11C2A
:1005D000F11CB2CF10921F01109220011092210144
:1005E0001092220110921B0110921C0110921D0109
:1005F00010921E0110921701109218011092190109
:1006000010921A01109216011092150108950F937D
:100610001F93FC0180819181A281B381B7FD1CC031
:100620002FB7F89440911B0150911C0160911D015E
:1006300070911E012FBF8C019D01042715272627CD
:10064000372737FD05C0481759076A077B0720F48D
:1006500081E01F910F91089580E01F910F910895FF
:100660000F931F93FC01408151816281738177FD5B
:1006700014C08FB7F89400911701109118012091C0
:10068000190130911A018FBF81E004171507260761
:10069000370718F41F910F91089580E01F910F9173
:1006A00008952FB7F8946093170170931801809301
:1006B000190190931A012FBF08952FB7F8946091F4
:1006C0001B0170911C0180911D0190911E012FBF93
:1006D00008952FB7F89460911701709118018091D7
:1006E000190190911A012FBF089583B7846083BFC9
:1006F00083B7886083BF83B78F7B83BF88ED81BF5B
:1007000008958F929F92AF92BF92FF920F931F9383
:10071000CF93DF93FC019581A481D2819C30B0F00E
:10072000AF31A0F0D83190F0C181CC3380F0F080AF
:100730008BE38F1568F4DF91CF911F910F91FF909C
:10074000BF90AF909F908F900C946903C181F0800F
:10075000E681EE2309F465C080E040E050E0BA0194
:100760000BC00EE611E020E030E0400F511F621F89
:10077000731F8F5F8E1769F0882399F30DE611E0E0
:1007800020E030E0400F511F621F731F8F5F8E13F8
:10079000F3CF992381F0EEE3F1E08FEF890F90E042
:1007A000815C9E4F2491420F511D611D711D319638
:1007B0008E179F07B9F79A01AB012A0F311D411D12
:1007C000511D60E871E581E090E00E9481064B01D7
:1007D0005C012D2F30E0A0E1BEE00E94BC06AB0121
:1007E000BC014F0D511D611D711D8CE3C89FE001BF
:1007F0001124CE01DD0FAA0BBB0B840F951FA61F82
:10080000B71FBC01CD01680D791D8A1D9B1DDF91AD
:10081000CF911F910F91FF90BF90AF909F908F90BD
:1008200008959923A1F0EAE4F1E09150892F90E036
:10083000855B9E4F40E050E0BA012491420F511D6C
:10084000611D711D31968E179F07B9F7B4CF40E037
:1008500050E0BA01B0CFEF92FF920F931F93CF9366
:10086000DF93EA0120E831E541E050E00E94910683
:1008700079018A0120E13EE040E050E00E949106CB
:100880002A832CE330E040E050E00E949106298367
:100890006883C701D8010097A105B10509F43DC0DF
:1008A00020E009C04DE651E060E070E0841B950B4C
:1008B000A60BB70B2F5F222309F439C08D3631E028
:1008C0009307A105B10570F72E83EEE3F1E04491A3
:1008D00050E060E070E020E084179507A607B707B6
:1008E00098F0E4918E1B9109A109B1092F5FE22FC5
:1008F000F0E0E25CFE4F449150E060E070E084176D
:100900009507A607B70768F72D838C83DF91CF91F2
:100910001F910F91FF90EF9008951E821D821C82FF
:10092000DF91CF911F910F91FF90EF9008958E3638
:1009300031E09307A105B10528F04EE651E060E0F3
:1009400070E0B4CF1E82EAE4F1E0449150E060E050
:1009500070E084179507A607B707B0F2E4918E1BE5
:100960009109A109B1092F5FE22FF0E0E65BFE4F8C
:10097000449150E060E070E084179507A607B70740
:1009800068F7C2CF1F920F920FB60F9211240BB6C9
:100990000F922F933F938F939F93AF93BF93EF93B8
:1009A000FF9380917100E82FE87F8E2F90E08935CA
:1009B0009105D8F080912901811108C081E08093D0
:1009C00027018BEF8093280110922A01FF91EF916C
:1009D000BF91AF919F918F913F912F910F900BBE3F
:1009E0000F900FBE0F901F901895FC01EA5BFF4F10
:1009F0000C94B30681E08093270110922A0184E9C8
:100A0000809374008FEF80932801E0CF80912701BD
:100A10009EEF980F933008F491C0853009F49AC086
:100A200081E08093270110922A0184E98093740069
:100A30008BEF80932801CACF80912701843009F47D
:100A400095C09EEF980F923008F4A9C0853041F709
:100A500085EA80937400BACF81E08093270186EF06
:100A60008093280110922A01B1CF8091270185300F
:100A7000B9F62091260130E0E0912301F0912401A4
:100A8000878190E001972817390759F18091740008
:100A900080648093740080917400856880937400F2
:100AA00095CF9091730080912701853009F0B8CFE0
:100AB000A0912301B09124011596ED91FC91169718
:100AC0008091260121E0280F20932601E80FF11DD7
:100AD000908330E017968C9190E0019728173907A2
:100AE000ACF2809174008F7B8093740080917400CD
:100AF0008568809374006ACF90917300809127017C
:100B0000853009F08DCFE0912301F091240105801B
:100B1000F681E02D8091260121E0280F2093260107
:100B2000E80FF11D908384E98093740081E0809345
:100B300027011092280110922A0148CFE091230149
:100B4000F091240180818E7F8093730085E88093EB
:100B500074003CCFE0912301F091240180818160F9
:100B60008093730085E88093740030CF80912601D4
:100B7000E0912301F091240197818917A0F6058067
:100B8000F681E02D91E0980F90932601E80FF11D7A
:100B900080818093730085E88093740017CF9091D3
:100BA0002501E0912301F0912401E90FF11D21813C
:100BB0009F5F909325012093730025E82093740094
:100BC000E0912301F091240124819213FFCE823021
:100BD00021F085E080932701F9CE84E080932701FE
:100BE000F5CE009769F120912A01211127C0909339
:100BF000240180932301FC01808580937000109272
:100C000026011092250181E080932A01E0912301C1
:100C1000F09124018481882369F082E08093270188
:100C200085EA8093740080912A018111FCCF809124
:100C30002801089584E080932701F2CF80E8089589
:100C400088EF0895009771F1FC012781222351F16B
:100C500020912A01211128C090932401809323011F
:100C6000808580937000109226011092250181E00A
:100C700080932A01E0912301F0912401848188234B
:100C800069F083E08093270185EA80937400809166
:100C90002A018111FCCF80912801089585E080937D
:100CA0002701F2CF88EF089580E80895E4E7F0E0A7
:100CB00010828081846080831092710086E080932E
:100CC0007000808181608083109229018998919AB7
:100CD0008898909A80E008950E94BF000E94750352
:100CE0000E94EA020E9456060E94DE000E94C00096
:100CF00087B7826087BF78940E94F4000E94CE007C
:100D0000FBCFDB018F939F930E94CB06BF91AF91E6
:100D1000A29F800D911DA39F900DB29F900D112455
:100D20000895A1E21A2EAA1BBB1BFD010DC0AA1F2C
:100D3000BB1FEE1FFF1FA217B307E407F50720F044
:100D4000A21BB30BE40BF50B661F771F881F991FBF
:100D50001A9469F760957095809590959B01AC0108
:100D6000BD01CF010895EE0FFF1F0024001C0BBE34
:100D70000790F691E02D0994A29FB001B39FC001A6
:100D8000A39F700D811D1124911DB29F700D811DB7
:100D90001124911D08950E94BC06A59F900DB49F3B
:100DA000900DA49F800D911D11240895F894FFCFFC
:00000001FF
