:100000000C9446000C9458000C9458000C94580022
:100010000C9458000C9458000C9458000C94580000
:100020000C9458000C9458000C9458000C945800F0
:100030000C9458000C9458000C9458000C946C00CC
:100040000C9458000C9458000C9458000C945800D0
:100050000C9458000C9458000C9458000C945800C0
:100060000C9458000C9458000C9458000C945800B0
:100070000C9458000C9458000C9458000C945800A0
:100080000C9458000C9458000C94580011241FBE76
:10009000CFEFD0E1DEBFCDBF21E0A0E0B1E001C0F5
:1000A0001D92AD30B207E1F70E945D000C94510142
:1000B0000C9400000895089508950E945A000E942B
:1000C00023010E9408010E945B0087B7826087BFFE
:1000D00078940E945C00FDCF1F920F920FB60F9292
:1000E00011240BB60F924F925F926F927F928F9274
:1000F0009F92AF92BF92CF92DF92EF92FF922F9397
:100100003F934F935F936F937F938F939F93AF939F
:10011000BF93CF93EF93FF938090050190900601DA
:10012000A0900701B0900801409001015090020199
:10013000609003017090040180910001C09009015A
:10014000D0900A01E0900B01F0900C01CFE1C80FB4
:10015000CD3708F055C08FEF881A980AA80AB80A58
:100160008FEFC81AD80AE80AF80AC701B60120E2D8
:1001700033E040E050E00E942F01672B682B692B91
:1001800029F48FEF481A580A680A780A8092050104
:1001900090920601A0920701B0920801C09300015D
:1001A0004092010150920201609203017092040199
:1001B000C0920901D0920A01E0920B01F0920C0169
:1001C000FF91EF91CF91BF91AF919F918F917F91CF
:1001D0006F915F914F913F912F91FF90EF90DF9042
:1001E000CF90BF90AF909F908F907F906F905F90D7
:1001F0004F900F900BBE0F900FBE0F901F90189551
:10020000C2EAC80F82E0880E911CA11CB11CA8CFC5
:100210001092090110920A0110920B0110920C0128
:100220001092050110920601109207011092080128
:100230001092010110920201109203011092040128
:1002400010920001089583B7846083BF83B78860EC
:1002500083BF83B78F7B83BF88ED81BF0895A1E201
:100260001A2EAA1BBB1BFD010DC0AA1FBB1FEE1F30
:10027000FF1FA217B307E407F50720F0A21BB30B7B
:10028000E40BF50B661F771F881F991F1A9469F7F7
:1002900060957095809590959B01AC01BD01CF0153
:0602A0000895F894FFCF61
:00000001FF
