:100000000C949F000C94B1000C94B1000C94B100BE
:100010000C94B1000C94B1000C94B1000C94B1009C
:100020000C94B1000C94B1000C94B1000C94B1008C
:100030000C94B1000C94B1000C94B1000C945902D2
:100040000C94B1000C94B1000C94B1000C94B1006C
:100050000C94B1000C94B1000C94B1000C94B1005C
:100060000C94B1000C94B1000C94B1000C94B1004C
:100070000C94B1000C94B1000C94B1000C94B1003C
:100080000C94B1000C9419040C94B1005104310487
:100090003104310431043104310431045D0431048C
:1000A0003104310431043104310431045D0431047C
:1000B0003104310431043104310431047304310456
:1000C0003104310431043104310431045104310468
:1000D0003104310431043104310431047304310436
:1000E0003104310431043104310431045104310448
:1000F0003104310431043104310431048304310406
:100100003104310431043104310431048C043104EC
:100110003104310431043104310431045104310417
:10012000310431043104310431043104A8043104B0
:10013000310431043104310431043104D304112475
:100140001FBECFEFD0E1DEBFCDBF21E0A0E0B1E028
:1001500001C01D92AC32B207E1F70E94C3050C94B6
:100160002D060C940000089510922A0110922B0184
:10017000109A0895CF93DF93CDB7DEB729970FB6C6
:10018000F894DEBF0FBECDBF80912A018130B9F057
:1001900018F0823009F12AC08CE08B8385E08A83D5
:1001A00019821D8283E08C831E8286E18F83CE01BB
:1001B00001960E94E60181E080932A0117C00E9407
:1001C000E001811113C082E080932A0180912B010C
:1001D0008F5F80932B010AC080912B01823030F415
:1001E00093B181E0892783B910922A0129960FB62D
:1001F000F894DEBF0FBECDBFDF91CF91089510926E
:100200001401E0E0F1E080ED8083118281E08483DD
:10021000ADE0B1E0B683A58387E087839FE2908756
:10022000FD0111928A95E9F70895CF93DF93CDB739
:10023000DEB729970FB6F894DEBF0FBECDBF809111
:10024000140180FD93C081FF16C080E091E00E9400
:100250007905882359F189E091E00E9410038823F1
:1002600009F46DC029960FB6F894DEBF0FBECDBF5E
:10027000DF91CF91089589E091E00E9439038111C7
:10028000F1CF0E946603DC01CB014E96A11DB11D8A
:100290008093090190930A01A0930B01B0930C0184
:1002A00080911401826080931401DCCF80910D0154
:1002B000982F97708F702AE0929F800D1124898368
:1002C00080910E01982F97708F702AE0929F800D79
:1002D00011248A8380910F01982F93708F702AE0E8
:1002E000929F800D11248B838091100187708D83E4
:1002F00080911101982F93708F702AE0929F800D4A
:1003000011248C8380911201982F9170990F292FBD
:10031000220F220F920F8F70890F8E83809113010D
:10032000982F92959F708F702AE0929F800D1124D4
:100330008F83CE0101960E948A030E945A030E9475
:100340007203DC01CB01845D9E4FAF4FBF4F8093A2
:10035000090190930A01A0930B01B0930C018091C5
:1003600014018D7F8B7F809314017CCF80E091E01E
:100370000E944805811118C0809114018E7F82600F
:10038000809314010E946603DC01CB014E96A11DEF
:10039000B11D8093090190930A01A0930B01B093C2
:1003A0000C01809114014FCF89E091E00E9410036D
:1003B0008111F7CF809114018B7F80931401DCCFE2
:1003C0008091140182FB882780F90895DC018C91CB
:1003D000EDE0F1E09DEC899F212D112426952695D5
:1003E000269536E0239F800D11248F778083119608
:1003F0008C911197899F212D11242695269526955C
:1004000036E0239F800D11248F77818312968C9183
:100410001297899F212D112426952695269536E041
:10042000239F800D11248F73828314968C911497CF
:100430008F5F8770838313968C911397899F212DEB
:10044000112426952695269536E0239F800D1124AC
:100450008F73848315962C91159781E0820F8F708E
:1004600030E1239F800D11248F71858316968C9126
:10047000899F912D112496959695969526E0929FA9
:10048000800D112486830E946603DC01CB014E9609
:10049000A11DB11D8093090190930A01A0930B0146
:1004A000B0930C01809114018160846080931401E9
:1004B00008951F920F920FB60F9211240BB60F9250
:1004C0004F925F926F927F928F929F92AF92BF9264
:1004D000CF92DF92EF92FF922F933F934F935F93D0
:1004E0006F937F938F939F93AF93BF93CF93EF932C
:1004F000FF9380901A0190901B01A0901C01B09076
:100500001D014090160150901701609018017090E5
:10051000190180911501C0901E01D0901F01E0903B
:100520002001F0902101CFE1C80FCD3708F055C070
:100530008FEF881A980AA80AB80A8FEFC81AD80A43
:10054000E80AF80AC701B60120E233E040E050E0D3
:100550000E94E805672B682B692B29F48FEF481A56
:10056000580A680A780A80921A0190921B01A09298
:100570001C01B0921D01C0931501409216015092CA
:1005800017016092180170921901C0921E01D09259
:100590001F01E0922001F0922101FF91EF91CF9194
:1005A000BF91AF919F918F917F916F915F914F918B
:1005B0003F912F91FF90EF90DF90CF90BF90AF9041
:1005C0009F908F907F906F905F904F900F900BBE99
:1005D0000F900FBE0F901F901895C2EAC80F82E0CF
:1005E000880E911CA11CB11CA8CF10921E01109264
:1005F0001F01109220011092210110921A011092F5
:100600001B0110921C0110921D01109216011092F4
:1006100017011092180110921901109215010895F6
:100620000F931F93FC0180819181A281B381B7FD5B
:100630001CC02FB7F89440911A0150911B01609192
:100640001C0170911D012FBF8C019D0104271527EE
:100650002627372737FD05C0481759076A077B0744
:1006600020F481E01F910F91089580E01F910F9178
:1006700008950F931F93FC01408151816281738122
:1006800077FD14C08FB7F8940091160110911701EF
:1006900020911801309119018FBF81E004171507CF
:1006A0002607370718F41F910F91089580E01F91D6
:1006B0000F9108952FB7F894609316017093170166
:1006C00080931801909319012FBF08952FB7F894C4
:1006D00060911A0170911B0180911C0190911D0184
:1006E0002FBF08952FB7F8946091160170911701EC
:1006F00080911801909119012FBF089583B78460EC
:1007000083BF83B7886083BF83B78F7B83BF88ED48
:1007100081BF08958F929F92AF92BF92CF92DF9246
:10072000EF92FF92FC014681442309F471C08FEFE0
:10073000840FC82EC694C694C39499E2899F812DD4
:10074000112482958F70C81AD12CE12CF12C242F02
:1007500030E0ADE6B1E00E941306C60ED71EE81EDB
:10076000F91E93812581223008F45DC0965C81E0FA
:10077000411152C0980F2250253008F097568DEC49
:10078000289F812D112486958695382F330F330F9E
:10079000830F281B822F26953DE3239F900D112464
:1007A00080FD915EA7019601290F311D411D511D4C
:1007B00060E871E581E090E00E94D8054B015C01A2
:1007C000228130E0A0E1BEE00E9413066B017C01B3
:1007D000218130E0ACE3B0E00E941306DC01CB01E4
:1007E0008C0D9D1DAE1DBF1D2081820F911DA11D71
:1007F000B11DBC01CD01680D791D8A1D9B1DFF90A7
:10080000EF90DF90CF90BF90AF909F908F90089522
:10081000C12CD12C76019BCF80E0980F225025303F
:1008200008F4ADCFABCF222311F0925EBBCF915035
:10083000B9CF1F920F920FB60F9211240BB60F92E1
:100840002F933F938F939F93AF93BF93EF93FF9318
:1008500080917100E82FE87F8E2F90E08935910517
:10086000D8F080912801811108C081E08093260191
:100870008BEF8093270110922901FF91EF91BF9197
:10088000AF919F918F913F912F910F900BBE0F9041
:100890000FBE0F901F901895FC01EA5BFF4F0C9460
:1008A0000A0681E0809326011092290184E9809351
:1008B00074008FEF80932701E0CF809126019EEF97
:1008C000980F933008F491C0853009F49AC081E004
:1008D000809326011092290184E9809374008BEFA4
:1008E00080932701CACF80912601843009F495C0F6
:1008F0009EEF980F923008F4A9C0853041F785EA41
:1009000080937400BACF81E08093260186EF8093B4
:10091000270110922901B1CF809126018530B9F6C7
:100920002091250130E0E0912201F091230187819F
:1009300090E001972817390759F18091740080647D
:10094000809374008091740085688093740095CFC3
:100950009091730080912601853009F0B8CFA09165
:100960002201B09123011596ED91FC91169780918B
:10097000250121E0280F20932501E80FF11D908328
:1009800030E017968C9190E0019728173907ACF268
:10099000809174008F7B80937400809174008568CF
:1009A000809374006ACF9091730080912601853006
:1009B00009F08DCFE0912201F09123010580F681AD
:1009C000E02D8091250121E0280F20932501E80FDB
:1009D000F11D908384E98093740081E08093260167
:1009E000109227011092290148CFE0912201F09145
:1009F000230180818E7F8093730085E8809374004B
:100A00003CCFE0912201F0912301808181608093AD
:100A1000730085E88093740030CF80912501E091C8
:100A20002201F091230197818917A0F60580F681B4
:100A3000E02D91E0980F90932501E80FF11D808142
:100A40008093730085E88093740017CF9091240100
:100A5000E0912201F0912301E90FF11D21819F5FB7
:100A6000909324012093730025E820937400E09173
:100A70002201F091230124819213FFCE823021F0D4
:100A800085E080932601F9CE84E080932601F5CE9F
:100A9000009769F120912901211127C0909323012A
:100AA00080932201FC0180858093700010922501C3
:100AB0001092240181E080932901E0912201F091BC
:100AC00023018481882369F082E08093260185EAEE
:100AD00080937400809129018111FCCF80912701BE
:100AE000089584E080932601F2CF80E8089588EF8E
:100AF0000895009771F1FC012781222351F1209183
:100B00002901211128C0909323018093220180851F
:100B100080937000109225011092240181E080934F
:100B20002901E0912201F09123018481882369F059
:100B300083E08093260185EA8093740080912901E7
:100B40008111FCCF80912701089585E080932601D3
:100B5000F2CF88EF089580E80895E4E7F0E010828E
:100B60008081846080831092710086E080937000A1
:100B7000808181608083109228018998919A889859
:100B8000909A80E008950E94B3000E947E030E9424
:100B9000F5020E94AD050E94FF000E94B40087B7D5
:100BA000826087BF78940E9415010E94BA00FBCF33
:100BB000DB018F939F930E942206BF91AF91A29F6A
:100BC000800D911DA39F900DB29F900D112408954B
:100BD000A1E21A2EAA1BBB1BFD010DC0AA1FBB1F41
:100BE000EE1FFF1FA217B307E407F50720F0A21BB3
:100BF000B30BE40BF50B661F771F881F991F1A9420
:100C000069F760957095809590959B01AC01BD0149
:100C1000CF010895EE0FFF1F0024001C0BBE0790AC
:100C2000F691E02D0994A29FB001B39FC001A39F4C
:100C3000700D811D1124911DB29F700D811D112415
:100C4000911D08950E941306A59F900DB49F900DCD
:0E0C5000A49F800D911D11240895F894FFCFEC
:00000001FF
