:1000000028C037C036C035C034C033C032C031C05C
:1000100030C0FEC82EC02DC02CC02BC02AC029C0A5
:1000200028C027C026C03A003820014D0035040200
:100030002B003802013000350200000000000035BE
:10004000083510352032203240328038010000005F
:10005000000011241FBECFE5D4E0DEBFCDBF20E0FD
:10006000A0E6B0E001C01D92AE3FB207E1F7F6D9BD
:100070007FCAC6CFA09A86E290E09AD3F2C004D09D
:1000800048C1089507D049C18FEF80936100109255
:1000900060000895BDD6882309F18B3019F41092C1
:1000A000610019C08130A9F0823099F0833089F065
:1000B000843079F0853069F0863059F0873049F026
:1000C000883039F0893029F08A3019F08C3031F4D9
:1000D0008BE0809361008FEF809360000895382F4C
:1000E0004091600050E060E070E004C07695679554
:1000F000579547958A95D2F740FF14C0209160002C
:1001000081E090E0A0E0B0E004C0880F991FAA1F32
:10011000BB1F3A95D2F7809582238093600080912F
:10012000610008958FEF08958091620080FD3AC0CC
:1001300080E0D5DF8F3F09F47EC08A3039F4109219
:100140006300CED080916200826073C08B3081F4F6
:10015000809163008450873008F468C01092630077
:10016000A4D010926300E4E6F0E08EE690E015C0C3
:100170008A3008F060C0E0916300EA3028F4F0E0D3
:10018000EC59FF4F8083B2D0809163008F3F09F418
:1001900052C08F5F80936300089511928E179F075E
:1001A000E1F708958091620082958370813099F023
:1001B00018F08230F1F00895ADD481113CC044E6CE
:1001C00050E06091630081E090E054D4809162003F
:1001D0008F7C80612EC09ED481112DC043E650E0FB
:1001E00061E080E090E046D4809162008F7C806284
:1001F00020C090D481111FC010926300E4E6F0E0AB
:100200008EE690E011928E179F07E1F780916200D1
:100210008F7C809362008091620082608093620094
:10022000809162008E7F8093620024C08091620082
:100230008160809362000895E4E6F0E0119280E02E
:10024000EE36F807D9F710926200089580916200A7
:10025000869581700895809162008D7F8093620001
:10026000089585E390E081D685E390E0ACD285E304
:1002700090E0DFC5CF92EF920F93CC24C394E12C92
:1002800001E021E044E668EC70E085E390E0DCD535
:1002900023E040E568EE73E08BE290E0D5D580E3A3
:1002A00090E00F91EF90CF9042C6CF92EF920F93D4
:1002B0008AE0C82EE12C0AE022E040E568EC70E01C
:1002C00085E390E0C1D5CC24CA9423E040E564E600
:1002D00070E080E390E0B8D50F91EF90CF90089553
:1002E00080E390E024D68BE290E021C6CF92EF929B
:1002F0000F93CC24CA94EE24E39401E021E040E083
:1003000068EC70E080E390E09FD50F91EF90CF9084
:10031000089510926E0013D18FCF80916E008130BE
:1003200089F018F08230A1F018C080E0D8DE8A3061
:1003300011F481E004C02BD2813089F482E08093F3
:100340006E0008950DD0F1D0882349F0F2D005C099
:10035000EBDE7CDF882319F07EDF10926E000895BB
:10036000CF938091730081FD50C080E0B8DE8F3F55
:1003700021F480917300837F29C08A3039F4109270
:10038000760080917300837F846020C08B3029F4D5
:1003900080917300837F886019C08A30C8F490917F
:1003A00076009A3038F4E0917600F0E0EA57FF4F9B
:1003B00080839CDF809176008F3F29F080917600CA
:1003C0008F5F80937600809173008C6080937300C0
:1003D00080917300869586958370813029F480DF43
:1003E00080917300837F7DC0809173008695869590
:1003F0008370823009F097C080917300837F80936F
:10040000730080917300826071C0C091760080910A
:100410007500823051F128F4882359F0813091F031
:1004200082C0843009F43DC080F1853009F44EC0AB
:100430007AC070D3811177C061E080E090E044D34E
:1004400081E02CC067D381116EC084E790E067D350
:1004500080917400C81302C083E020C0C53011F43D
:1004600082E01CC01092750044C010927500E6E84E
:10047000F0E0A1E8B0E08BE890E031912D913213EB
:1004800038C08E179F07C9F73BC044D381114BC0BA
:100490006091740081E090E017D384E08093750050
:1004A00042C038D381113FC087E790E038D39091A4
:1004B0007400A6E8B0E0E7E7F0E080E0981701F10B
:1004C0003D912191321315C08F5FF8CF8FE690E0F8
:1004D000A3D7811128C010927500A898809173004D
:1004E0008D7F80937300809173008160809373008F
:1004F0001AC0809173008D7F80937300CF91D5CE09
:1005000085E080937500B6DEA89A7AD7DC01CB012E
:100510000596A11DB11D80936F0090937000A0936C
:100520007100B0937200CF91089580917300817033
:100530000895809173008E7F809373000895E1E8A1
:10054000F0E082E0808383E0818381E082838383A3
:1005500089E08483109274001092760010927300E8
:100560001092750008959F92AF92BF92CF92DF9242
:10057000EF92FF920F931F93CF93DF93A0909F0072
:10058000B090A000FF24F394DD24DA9438EC932E8D
:10059000CFEFCF0DA114B10409F485C08AE3A816EA
:1005A00080E0B80609F47FC0F501349624913297B3
:1005B00085919491009709F471C0DC0187FD02C018
:1005C000BB2703C0AF77BB27B16012973C91E22FE6
:1005D000E695892F9927232F30E08223932321E06A
:1005E000892B09F420E0D0E0E2131DC0FE01E256A1
:1005F000FF4F80818F5F8083893C10F090824EC0D6
:10060000883C29F46F2D6F73162F106420C0823040
:1006100009F044C01F2D1F73F0929D00D0929C00E2
:100620001123E1F114C0FE01E256FF4F80818230B8
:10063000A8F110821F2D106C80919D0090E09E010A
:100640002F5F3F4F8217930711F410929C00612F88
:1006500082E990E032D7612F70E02196CF73DD27D9
:10066000882361F06C177D07C9F4CC24C394E12C76
:1006700001E021E044E668EC70E00BC06C177D07F8
:1006800069F4CC24C394E12C01E021E044E664EF5A
:1006900071E08091900090919100D6D3F501A590E2
:1006A000B490F39475CFDF91CF911F910F91FF908C
:1006B000EF90DF90CF90BF90AF909F9008951092F1
:1006C0009E0044E068E970E082E990E0D6D610929E
:1006D0009C0010929D0020919F003091A000211558
:1006E000310509F453C080E02A33380709F44EC0BD
:1006F000F90134968491329780FF22C085919491BC
:100700005FB7F894BC0160787727FC0187FD02C0D1
:10071000FF2703C0EF77FF27F16031974081A92FB2
:10072000A0954A234083FC01672B11F4FF2703C0E7
:10073000EF77FF27F1608081892B80835FBF22C024
:10074000859194916FB7F894DC01A078BB27FC01E8
:1007500087FD02C0FF2703C0EF77FF27F1603197C5
:100760005081492F409554235083AB2B19F4DC0161
:10077000BB2704C08F779927DC01B1608C91482397
:100780004C936FBFF90125913491A9CF0895CF9370
:10079000DF931F92CDB7DEB7BE016F5F7F4F82E957
:1007A00090E073D6811189810F90DF91CF910895E8
:1007B000009741F020E08A33920721F09093A00047
:1007C00080939F000895009741F020E08D349207B8
:1007D00021F090939100809390000895E1EAF0E079
:1007E0001382128211821482108216821582089559
:1007F0008091A1008295837009F43BC18091A10092
:1008000082958370813009F0E5C08091A1008695C2
:1008100086958370F1F4E1990EC08091A10087FF65
:1008200004C08091A1008C6004C08091A100837FEE
:1008300084608093A1008CED90E0BDD5811109C04A
:100840008091A1008F778093A1008091A100837F88
:1008500009C18091A100869586958370813009F049
:100860004AC09091A5008091A2009817A8F58091A8
:10087000A3009091A4009FBB8EBBE09AE091A500DD
:100880008DB3F0E0E855FF4F8083E091A5008091A3
:10089000A500F0E0E855FF4FA091A600B091A70099
:1008A000A80FB11D90818C91981739F08091A1000B
:1008B000837F88608093A1001EC08091A3009091E7
:1008C000A40001969093A4008093A3008091A500BA
:1008D0008F5F8093A5000FC01092A5001092A40016
:1008E0001092A3008091A100837F8093A10080914A
:1008F000A1008F77B7C08091A100869586958370FF
:10090000823049F58091A3009091A4009FBB8EBBDB
:100910008091A500E091A600F091A700E80FF11DDD
:1009200080818DBBE29AE19A3AD5DC01CB01059634
:10093000A11DB11D8093DC009093DD00A093DE002B
:10094000B093DF008091A100837F8093A10080910C
:10095000A10080688CC08091A100869586958370E7
:10096000833009F086C08091A3009091A4009FBBC2
:100970008EBBE09AE091A5008DB3F0E0E855FF4F03
:100980008083E091A5008091A500F0E0E855FF4F3D
:10099000A091A600B091A700A80FB11D90818C91E5
:1009A000981313C08091A3009091A4000196909396
:1009B000A4008093A3008091A5008F5F8093A50081
:1009C0008091A100837F846052C08091A100837FC9
:1009D00088604DC08091A10082958370823009F0BB
:1009E00048C08091A10081FD0DC0E19905C08091B2
:1009F000A10082608093A1008CED90E0DCD488237C
:100A000071F137C08091A10081FF33C09091A500A2
:100A10008091A2009817E8F48091A3009091A4001F
:100A20009FBB8EBBE09AE091A5008DB3F0E0E85546
:100A3000FF4F80838091A3009091A4000196909332
:100A4000A4008093A3008091A5008F5F8093A500F0
:100A500008951092A5001092A4001092A300809116
:100A6000A1008D7F8093A1008091A1008F7C809355
:100A7000A10008959C01260F311D2F3F314018F52C
:100A80006B3008F06AE09093A4008093A30010926A
:100A9000A5005093A7004093A6006093A200809108
:100AA000A1008F7C80618093A10079D4DC01CB010F
:100AB0000296A11DB11D8093DC009093DD00A093F0
:100AC000DE00B093DF0008959C01260F311D2F3FFB
:100AD0003140F8F46B3008F06AE09093A400809302
:100AE000A3001092A5006093A2008091A1008F7CCA
:100AF00080628093A10053D4DC01CB010296A11D3A
:100B0000B11D8093DC009093DD00A093DE00B093D4
:100B1000DF0008958091A100829583700895AC0153
:100B20008091A200882389F090E02091A200921782
:100B300060F4292F30E0FA01E20FF31FD901A85524
:100B4000BF4F8C9180839F5FF0CF089527E430E002
:100B5000F901859194915FB7F894BC01607877278B
:100B6000FC0187FD02C0FF2703C0EF77FF27F1607C
:100B700031974081A92FA0954A234083FC01672B20
:100B800011F4FF2703C0EF77FF27F1608081892BE5
:100B900080835FBF2E5F3F4F80E02D343807C1F662
:100BA0002FE330E047E450E0F901859194917FB75D
:100BB000F894DC01A078BB27FC0187FD02C0FF2769
:100BC00003C0EF77FF27F16031976081692B608365
:100BD0007FBF6FB7F894FC01AB2B11F4FF2703C064
:100BE000EF77FF27F1608081892B80836FBF2E5FB5
:100BF0003F4F42175307C1F6E6EBF0E0119280E059
:100C0000E23CF807D9F744E068EC70E082EC90E051
:100C100034D41092B4001092B50008957F928F9250
:100C20009F92AF92BF92CF92DF92EF92FF920F937B
:100C30001F93CF93DF9300D0CDB7DEB71A8268EC55
:100C4000D62E77247A948A81843008F053C0EA81C2
:100C5000F0E0EE0FFF1FE15CFF4FA590B4909FB74F
:100C6000F894450180E888229924F501A7FC02C088
:100C7000FF2703C0EF77FF27F16080818B258083FA
:100C80009FBF19828981833018F5E981F0E0EE0F6A
:100C9000FF1FE95BFF4F859194912A811981622F93
:100CA000660F260F622F610FFC0187FD02C0FF2730
:100CB00003C0EF77FF27F16032972081892F9927B2
:100CC00030E082239323E62EF12C892B51F573C05B
:100CD0009FB7F894F501892811F4FF2703C0EF7737
:100CE000FF27F16080818B2580839FBF8A818F5F82
:100CF0008A83A9CF8091B500882309F479C08091B7
:100D0000B40081508093B400811172C084E080935C
:100D1000B4006091B5006F73606882EC90E0CDD351
:100D200067C0F701EA54FF4F8081823008F43FC06A
:100D300010826F5F162F106C8091B50090E09701C4
:100D40002F5F3F4F8217930711F41092B500612F68
:100D500082EC90E0B2D3612F70E0882391F08FEFA6
:100D6000E81AF80A8FE3E822FF246E157F05F9F4EC
:100D7000CC24C394E12C01E021E044E668EC70E06F
:100D800011C08FEFE81AF80A8FE3E822FF246E15EE
:100D90007F0569F4CC24C394E12C01E021E044E612
:100DA00064EF71E08091B2009091B3004DD08981E1
:100DB0008F5F898367CFF701EA54FF4F80818F5F90
:100DC0008083893C10F0D082F2CF883C29F46F5F99
:100DD0006F73162F1064BBCF823049F76F5F162FE9
:100DE0001F736093B5007092B400112301F3AFCF6D
:100DF0000F900F90DF91CF911F910F91FF90EF9087
:100E0000DF90CF90BF90AF909F908F907F9008958C
:100E1000CF93DF931F92CDB7DEB7BE016F5F7F4FD9
:100E200082EC90E032D3811189810F90DF91CF91D4
:100E30000895009741F020E08D34920721F09093BF
:100E4000B3008093B2000895AF92BF92CF92EF9219
:100E50000F93CF93DF9304965C01FC018491CAE069
:100E6000C89FF0011124E052FF4F2483F5018491C3
:100E7000C89FF0011124E052FF4F71836083F50198
:100E80008491C89FF0011124E052FF4F2683F501A1
:100E90008491C89FF0011124E052FF4F0583F501B2
:100EA0008491C89FF0011124E052FF4F4783F50160
:100EB000D491469FC001479F900D112464E670E0D5
:100EC00015D39B01A8EEB3E047D322EE34E040E017
:100ED00050E020D3CD9FF0011124E052FF4F338327
:100EE0002283F5018491C89FF0011124E751FF4F3F
:100EF000808181608083F5018491C89FF001112475
:100F0000E751FF4F8081E0FA82F98083F501A490D8
:100F1000CA94CA9DF0011124E052FF4FC086DF91B0
:100F2000CF910F91EF90CF90BF90AF900895FC01BB
:100F30003296259134914FB7F894F90127FD02C0FC
:100F4000FF2703C0EF77FF27F1602081309523232F
:100F500020834FBFFC013496E4918AE0E89FF001C2
:100F60001124E052FF4F11860895009721F09093CD
:100F7000CD008093CC0008954F925F926F927F9244
:100F80008F929F92AF92BF92CF92DF92EF92FF9299
:100F90000F931F93CF93DF930091CC001091CD005E
:100FA0003AE0532E4424439442EE842E44E0942E9F
:100FB000A12CB12C54E6652E712C0115110509F4F4
:100FC000F4C0F0E00D341F0709F4EFC0F8013496C7
:100FD000E491CE2ED12C5C9CF0015D9CF00D11248F
:100FE000DF01A751BF4F8C9180FFDBC0E052FF4F64
:100FF00082819381892B31F0828193810197938340
:101000008283CFC08681811124C08C9183FB882785
:1010100080F984259C9180FB93F99C938C9183FDAE
:1010200016C080858E3F51F08085882321F0808511
:101030008150808703C0C8017ADFB3C05C9CF00197
:101040005D9CF00D1124E052FF4F848107C0858123
:1010500005C08C9184FF03C08681815086835C9C8F
:10106000C0015D9C900D1124FC01E751FF4F2081D0
:10107000E801229623FD4BC020812695217024256E
:10108000308120FB31F930832081AC0140525F4F29
:101090007A01DA0121FF0EC017964C9117972D9116
:1010A0003C91429FC001439F900D1124B3011ED279
:1010B0009B0112C0ED91FC91119717964C911797D7
:1010C0002D913C91429FC001439F900D1124B3018B
:1010D0000DD29F01261B370BA8EEB3E03DD2A50130
:1010E000940118D2F70133832283FE0185919491F4
:1010F0002FB7F894FC0187FD02C0FF2703C0EF77EC
:10110000FF27F1608081892780832FBF3BC08081CA
:10111000FE0182FD10C0859194912FB7F894FC01D7
:1011200087FD02C0FF2703C0EF77FF27F1608081B2
:10113000909589230EC0859194912FB7F894FC0166
:1011400087FD02C0FF2703C0EF77FF27F160808192
:10115000892B80832FBF5C9CE0015D9CD00D112406
:10116000C052DF4F28813981A8EEB3E0F5D1A50147
:101170009401D0D1DA01C901B695A79597958795C5
:101180009B838A835C9CF0015D9CF00D1124E751E8
:10119000FF4F8081829581708425908180FB94F936
:1011A0009083F8010591149108CFDF91CF911F91A1
:1011B0000F91FF90EF90DF90CF90BF90AF909F90F6
:1011C0008F907F906F905F904F9008958091CC00AA
:1011D0009091CD000097D9F020E08D349207B9F0BE
:1011E000FC013296259134914FB7F894F90127FD0F
:1011F00002C0FF2703C0EF77FF27F16031972081FE
:10120000232B20834FBFFC0185919491E3CF089558
:101210001F920F920FB60F9211244F925F926F920E
:101220007F928F929F92AF92BF92CF92DF92EF9276
:10123000FF922F933F934F935F936F937F938F937F
:101240009F93AF93BF93CF93EF93FF93C090D4003E
:10125000D090D500E090D600F090D7004090D0001C
:101260005090D1006090D2007090D3008091CF0058
:101270008090D8009090D900A090DA00B090DB0068
:10128000CFE1C80FCD3730F48FEFC81AD80AE80A7B
:10129000F80A07C0C2EAC80F82E0C80ED11CE11CE0
:1012A000F11C8FEF881A980AA80AB80AC501B40180
:1012B00020E233E040E050E02DD1672B682B692B12
:1012C00029F48FEF481A580A680A780A8091CE00EC
:1012D000877009F4A3DC8091CE00877009F443D9AC
:1012E0004BDE8091CE008F5F8093CE00883011F46A
:1012F0001092CE00C092D400D092D500E092D600D9
:10130000F092D700C093CF004092D0005092D1000D
:101310006092D2007092D3008092D8009092D9004F
:10132000A092DA00B092DB0087E282BFFF91EF91DA
:10133000CF91BF91AF919F918F917F916F915F916D
:101340004F913F912F91FF90EF90DF90CF90BF9002
:10135000AF909F908F907F906F905F904F900F9085
:101360000FBE0F901F9018951092D8001092D900C0
:101370001092DA001092DB001092D4001092D50087
:101380001092D6001092D7001092D0001092D10087
:101390001092D2001092D3001092CF0008952FB770
:1013A000F8946091D4007091D5008091D60090910E
:1013B000D7002FBF0895CF92DF92EF92FF920F9345
:1013C0001F93FC01C080D180E280F380F7FE02C051
:1013D00080E00FC0E4DF9701860106271727282742
:1013E000392737FD05C06C157D058E059F0580F7F3
:1013F00081E01F910F91FF90EF90DF90CF900895C3
:101400002FB7F8946091D0007091D1008091D200F4
:101410009091D3002FBF0895CF92DF92EF92FF9269
:10142000FC01C080D180E280F380F7FC07C0E8DFD8
:1014300021E06C157D058E059F0508F020E0822FC8
:10144000FF90EF90DF90CF90089583B7826083BFC5
:1014500083B7816083BF87E282BF08950BD6F5DF33
:1014600083DFBCD973DB2BD9B1DE09D689B78160A4
:1014700089BF7894BDD906D6FDCFFC0175836483FE
:1014800043831282108211820895FC018281882395
:1014900099F08181A481B581A80FB11D8C91DB01E8
:1014A0008C9381818F5F818392819150928393810C
:1014B000891301C0118281E00895FC01928183812A
:1014C000981302C080E008958081A481B581A80F9F
:1014D000B11D6C9380818F5F808392819F5F928327
:1014E0009381891301C0108281E00895AA1BBB1B60
:1014F00051E107C0AA1FBB1FA617B70710F0A61B14
:10150000B70B881F991F5A95A9F780959095BC0134
:10151000CD010895A1E21A2EAA1BBB1BFD010DC02F
:10152000AA1FBB1FEE1FFF1FA217B307E407F50793
:1015300020F0A21BB30BE40BF50B661F771F881F6F
:10154000991F1A9469F760957095809590959B0105
:10155000AC01BD01CF010895A29FB001B39FC001AE
:10156000A39F01D0B29F700D811D1124911D08957C
:04157000F894FFCF1D
:00000001FF
