:100000000C9430000C944D000C944D000C944D0059
:100010000C944D000C944D000C944D000C944D002C
:100020000C944D000C944D000C944D000C944D001C
:100030000C944D000C944D000C944D000C944D000C
:100040000C944D000C944D000C944D000C94EF0159
:100050000C944D001F1C1F1E1F1E1F1F1E1F1E0065
:1000600011241FBECFE5D4E0DEBFCDBF10E0A0E677
:10007000B0E0EEE8F7E002C005900D92A036B107BF
:10008000D9F720E0A0E6B0E001C01D92AF3AB20778
:10009000E1F70E9484030C94C5030C9400000895BA
:1000A00008950E94A202882321F10E94AA02AB01B6
:1000B000BC0189EA90E00E94C80260EA70E089EA27
:1000C00090E00E943B0365E970E089EA90E00E94BD
:1000D000560329E040EA50E06FEF80E00E9475018E
:1000E0002BE045E950E06FEF81E00E9475010C9430
:1000F000E9010895D698DE98D298DA98D598DD98D7
:10010000D198D998DC98C49A8CE494E0DB9A0000EA
:10011000019729B3DB98DB9A34E03A95F1F7DB9845
:1001200021FF03C0009791F702C0892B29F4809129
:100130008100806880938100D69AD29AD59AD19A0C
:10014000C49808959FB7F89484FF02C0DE9A01C056
:10015000DE989FBF9FB7F89485FF02C0DA9A01C06E
:10016000DA989FBF9FB7F89486FF02C0DD9A01C05E
:10017000DD989FBF9FB7F89487FF02C0D99A01C04E
:10018000D9989FBFDB9A94E09A95F1F7DB989FB7D7
:10019000F89480FF02C0DE9A01C0DE989FBF9FB72F
:1001A000F89481FF02C0DA9A01C0DA989FBF9FB726
:1001B000F89482FF02C0DD9A01C0DD989FBF9FB70F
:1001C000F89483FF02C0D99A01C0D9989FBFDB9AE7
:1001D00084E08A95F1F7DB980895CF93C82F0E94A9
:1001E0007A00DC988C2FCF910C94A200DC989FB7FA
:1001F000F89484FF02C0DE9A01C0DE989FBF9FB7CB
:10020000F89485FF02C0DA9A01C0DA989FBF9FB7C1
:10021000F89486FF02C0DD9A01C0DD989FBF9FB7AA
:10022000F89487FF02C0D99A01C0D9989FBFDB9A82
:1002300084E08A95F1F7DB9808951092810080E0C0
:1002400090E020E2FC01E05AFF4F208301968032CB
:100250009105C1F7D49AD39ABC9AD69AD29AD59AD4
:10026000D19AD09AD8988CE0809383001092800025
:10027000109282008FEF91EA0197F1F700C0000021
:1002800080E30E94F6008FEF95E30197F1F700C03D
:10029000000080E30E94F60084E191E00197F1F70D
:1002A000000080E30E94F60093E99A95F1F700C000
:1002B00080E20E94F60083E98A95F1F700C088E2A7
:1002C0000E94ED008CE00E94ED0081E00E94ED00B4
:1002D00086E00E94ED008091810087FF05C080913B
:1002E00081008F778093810008958295807F6F3F92
:1002F00031F460E170E0621B710975956795680FD4
:10030000FA0170E0641B750B8E2F841B821740F47A
:10031000DB01AE0FBF1F8191A05ABF4F8C93F4CF6A
:100320000895CF938091810080FF51C08091820019
:100330008032C0F5809182008F7099F480918200A4
:1003400082958370833031F0823031F0813031F02A
:1003500080E805C080EE03C080EA01C080EC0E9406
:10036000ED00E0918200F0E0E05AFF4FC0810E9472
:100370007A00DC9A8C2F0E94A2008091810087FF76
:100380000BC0809181008D7F8093810080918100DE
:100390008F778093810016C0809182008F5F809359
:1003A000820015C0809181008D7F80938100109222
:1003B0008200809180000E94ED00809183008C601B
:1003C0000E94ED00809181008E7F80938100CF910B
:1003D00008958091810081608093810008951F922B
:1003E0000F920FB60F9211242F938F939F93AF9379
:1003F000BF9380918D0090918E00A0918F00B0915D
:1004000090000196A11DB11D80938D0090938E00E8
:10041000A0938F00B093900080918800815E8093BC
:100420008800809188008D37C0F0809188008D57BA
:100430008093880080918D0090918E00A0918F0014
:10044000B09190000196A11DB11D80938D009093F5
:100450008E00A0938F00B0939000809186009091C1
:1004600087008F38914050F48091860090918700EA
:100470000196909387008093860023C01092870096
:10048000109286008091840091E0892780938400F7
:100490009093850080918400811113C08091890020
:1004A00090918A00A0918B00B0918C000196A11DC3
:1004B000B11D8093890090938A00A0938B00B09324
:1004C0008C008091910090919200A0919300B09146
:1004D00094000196A11DB11D80939100909392000C
:1004E000A0939300B0939400BF91AF919F918F918F
:1004F0002F910F900FBE0F901F90189510929100A2
:1005000010929200109293001092940010928D001D
:1005100010928E0010928F00109290001092840022
:1005200081E0809385001092890010928A001092D9
:100530008B0010928C00109288001092870010920D
:100540008600089580918500882319F01092850017
:1005500081E008952FB7F8946091890070918A0026
:1005600080918B0090918C002FBF089583B78B7F73
:1005700083BF83B7826083BF83B7816083BF83B744
:10058000886083BF83B78F7B83BF87ED8CBF08955F
:100590008F929F92AF92BF92CF92DF92EF92FF9293
:1005A000CF93DF93EC016A017B018CE3882E912CC1
:1005B000A12CB12CCB01BA01A50194010E94A30387
:1005C0006883CA01B901A50194010E94A30369834C
:1005D000C701B60120E13EE040E050E00E94A303E5
:1005E000CA01B90128E130E040E050E00E94A303D5
:1005F0006A83C701B60120E831E541E050E00E947E
:10060000A3031D828D81982F937041E050E011F07B
:1006100040E050E0BA0163597E4F2617370738F0A3
:10062000241B350B2D5631408F5F8D83EBCF81E03E
:100630008C838C818C3070F4E82FF0E0ED5AFF4F02
:10064000E491911103C0823009F4EF5FF0E02E17BE
:100650003F0768F42F5F2B83DF91CF91FF90EF90DE
:10066000DF90CF90BF90AF909F908F9008952E1BFA
:100670003F0B8F5FDDCF0F931F93CF93DF93EC0181
:100680008B012AE340E08A810E9478032AE343E059
:10069000B80189810E94780320E046E0B801888192
:1006A000DF91CF911F910F910C9478030F931F93BB
:1006B000CF93DF938C01EB012DE240E0FC018381BD
:1006C0000E9478032DE243E0BE01F80184810E947C
:1006D000780382E38E8380E38F8320E048E0BE01CD
:1006E000F8018581DF91CF911F910F910C947803D0
:1006F000FB01E40FF11D6AE00E949703805D808397
:10070000905D9183228308950E944F000E94B6025B
:100710000E947E020E941D010E94500089B78260E3
:1007200089BF78940E9491010E945100FBCF991BD0
:1007300079E004C0991F961708F0961B881F7A95D8
:10074000C9F780950895A1E21A2EAA1BBB1BFD01D3
:100750000DC0AA1FBB1FEE1FFF1FA217B307E407A0
:10076000F50720F0A21BB30BE40BF50B661F771FF8
:10077000881F991F1A9469F76095709580959095D8
:0E0780009B01AC01BD01CF010895F894FFCF9D
:00000001FF
