:100000000C942D010C943F010C943F010C943F0182
:100010000C943F010C943F010C943F010C943F0160
:100020000C943F010C943F010C943F010C943F0150
:100030000C943F010C943F010C943F010C9450062A
:100040000C943F010C943F010C943F010C943F0130
:100050000C943F010C943F010C943F010C943F0120
:100060000C943F010C943F010C943F010C943F0110
:100070000C943F010C943F010C943F010C943F0100
:100080000C943F010C943F010C943F01BE00A5006D
:100090000E010E0200009800332E45726173652038
:1000A0007A6F6E65008C00BE000E010E020000B17A
:1000B00000322E4572617365204461746100A500B1
:1000C0008C000E010E020000CA00312E52657365CD
:1000D00074204461746100F200F2004B010E0200D2
:1000E00000E300322E526570204E6574776F726B9C
:1000F0002000D700D7004B010E020000FE00312E79
:1001000054657374204E6574776F726B20004B01D9
:100110002201CC01BE0000001A01342E5265736525
:1001200074000E013601CC010E0200002E01332EA8
:100130005A6F6E65730022014B01CC010E02000064
:100140004201322E506F696E74730036010E01CC7D
:1001500001F20000005701312E4E6574776F726B0B
:1001600000B9017A01E1010E0200006D01352E5245
:100170006573657420446174610061019001E1015F
:100180000E0200008601342E53756D6D6172790088
:100190007A01A601E1010E0200009C01332E526596
:1001A000706F727473009001B901E1010E020000DA
:1001B000B201322E4461746500A6016101E1010EB5
:1001C000020000C501312E54696D6500E101E101B5
:1001D000F4014B010000D801322E53797374656D20
:1001E00000CC01CC01F401B9010000ED01312E5524
:1001F000534552000E020E020E02E1010000000201
:10020000302E53595354454D204D454E5500000056
:1002100000000000000000000000381038203840C6
:10022000388038013802380438081F1F1F1F1F1F6D
:100230001F1F1F1E1E1E1E1E1E1F1F1C1C1C1C1CE3
:100240001C1F1F1818181818181F1F101010101036
:10025000101F1F0000000000001F11241FBECFEF61
:10026000D0E1DEBFCDBF21E0A0E0B1E001C01D9232
:10027000A235B207E1F70E94A2020C948C070C94FD
:1002800000000895089580915101882319F081306C
:1002900039F0089584EF91E00E94950281E005C055
:1002A0000E948F02811103C082E080935101089562
:1002B000009769F022E08E30920749F09093020196
:1002C0008093010180910001826080930001089574
:1002D000E0910101F0910201309751F082E0EE309F
:1002E000F80731F00084F185E02D309719F009947A
:1002F00080E0089581E008958091010190910201CC
:100300000696FC0125913491232B59F0FC0125918F
:1003100034912E50324029F0FC01859194910E9435
:100320005801809100018E7F8093000108958EE036
:1003300092E09093020180930101109200010895D0
:10034000AF92BF92CF92DF92EF92FF920F931F93E3
:10035000CF93DF93CDB7DEB70DB71EB78091000105
:1003600082FFCDC00E942504882309F455C0813046
:1003700031F4E0910101F0910201329606C0823021
:1003800061F4E0910101F0910201859194910E9444
:10039000580180910001826005C0833031F4809162
:1003A000000181608093000137C0843009F034C0BF
:1003B000E0910101F0910201349685919491FC0144
:1003C00034968591949122E08E309207D1F49093E7
:1003D0000201809301010E943D05809100018E7F02
:1003E00080930001809100018B7F809300018091B8
:1003F00000018D7F809300010E94CE040E944A0676
:100400000BC00E94CE04E0910101F09102013496EC
:10041000859194910E9458018091000180FF08C04D
:100420000E946801882309F46AC00E947C0167C0A9
:100430008091000181FF63C00E94460681115FC068
:10044000EDB6FEB68091010190910201009721F076
:100450008E50924009F44CC00E943D05E09101018C
:10046000F0910201349685919491FC013A96C590E1
:10047000D49082E0C80ED11CC6010E9483072DB71C
:100480003EB7281B31090FB6F8943EBF0FBE2DBFF3
:100490008DB79EB701965C01B6010E947C07A5014D
:1004A0006FEF80E00E94E904E0910101F091020108
:1004B0003A96A590B490C5010E9483072DB73EB728
:1004C000281B31090FB6F8943EBF0FBE2DBF8DB764
:1004D0009EB701966C01B5010E947C07A60160E001
:1004E00081E00E94E9040FB6F894FEBE0FBEEDBE97
:1004F0000E944A06809100018D7F809300010FB613
:10050000F8941EBF0FBE0DBFDF91CF911F910F91C9
:10051000FF90EF90DF90CF90BF90AF9008958091C3
:10052000000182FB882780F908950E9458010E94EB
:10053000680181110E947C01809100018460809398
:10054000000108950E9441010E9415070E94FA06C9
:100550000E94BB020E94D4040E9497010E944201A3
:1005600087B7826087BF78940E94A0010E944905E6
:100570000E944301F9CFCF9322E232E0F901859145
:1005800094917FB7F894AC0140785527FC0187FD22
:1005900002C0FF2703C0EF77FF27F1603197DC012E
:1005A0004115510511F4BB2703C0AF77BB27B160DC
:1005B00011976C91A92FA0956A236083FC014115C6
:1005C000510511F4FF2703C0EF77FF27F160DC012D
:1005D000452B11F4BB2703C0AF77BB27B1608C91CB
:1005E000892B80837FBF2E5F3F4F82E02A323807FE
:1005F00009F0C4CF2AE132E042E252E0F9018591EC
:100600009491CFB7F894BC0160787727FC0187FDFF
:1006100002C0FF2703C0EF77FF27F1603197DC01AD
:100620006115710511F4BB2703C0AF77BB27B1601B
:100630001197AC91A92BA083CFBFCFB7F894FC0141
:100640006115710511F4FF2703C0EF77FF27F160F3
:10065000DC01672B11F4BB2703C0AF77BB27B16068
:100660008C91892B8083CFBF2E5F3F4F421753075A
:1006700009F0C4CFE5E0F1E085E191E011928E1739
:100680009F07E1F744E06BE171E085E191E00E94B2
:1006900021071092030110920401CF910895CF9287
:1006A000DF92EF92FF920F931F93CF93DF9300D0CF
:1006B000CDB7DEB71A8268ECD62ECC24CA948A81D4
:1006C000843008F069C0EA81F0E0EE0FFF1FE65EBB
:1006D000FD4F059114919FB7F894780180E8E822C6
:1006E000FF24F80107FD02C0FF2703C0EF77FF27B3
:1006F000F160D801E114F10411F4BB2703C0AF7716
:10070000BB27B1608C91812780839FBF198289812B
:10071000843038F5E981F0E0EE0FFF1FEE5DFD4F0C
:10072000859194916A812981660F660F620FFC01A1
:1007300087FD05C0FF27E236F10521F405C0EF77FC
:10074000FF27F160329702C0E0E2F0E02081892FBC
:10075000992730E082239323E62FF0E0892BA1F53F
:100760004DC09FB7F894F801E114F10411F4FF278C
:1007700003C0EF77FF27F160D801EF2811F4BB2702
:1007800003C0AF77BB27B1608C91812780839FBF67
:100790008A818F5F8A8393CF80910401882309F433
:1007A00049C080910301815080930301811142C0AF
:1007B00084E080930301609104016F73606885E1B8
:1007C00091E00E94410736C0DF01AB5FBE4F8C91C4
:1007D000823080F01C926F5F606C8091040190E029
:1007E00031968E179F0711F41092040185E191E074
:1007F0000E94410789818F5F898389CFEB5FFE4F1C
:1008000080818F5F8083893C10F0D082F3CF883C59
:1008100021F46F5F6F736064E9CF823059F781E034
:10082000860F682F6F7380930401C09203016623C3
:1008300009F3DCCF0F900F90DF91CF911F910F91B3
:10084000FF90EF90DF90CF900895CF93DF931F92AA
:10085000CDB7DEB7BE016F5F7F4F85E191E00E94AB
:100860002907811189810F90DF91CF910895D39845
:10087000DB98D498DC98D598DD98D698DE98D998EE
:10088000D89A8CE494E0DA9A0000019729B3DA98B8
:10089000DA9ADA9826FF03C00097A9F702C0892BDD
:1008A00029F480914001806880934001D39AD49AC2
:1008B000D59AD69AD89808959FB7F89484FF02C025
:1008C000DB9A01C0DB989FBF9FB7F89485FF02C0F9
:1008D000DC9A01C0DC989FBF9FB7F89486FF02C0E6
:1008E000DD9A01C0DD989FBF9FB7F89487FF02C0D3
:1008F000DE9A01C0DE989FBFDA9ADA989FB7F89423
:1009000080FF02C0DB9A01C0DB989FBF9FB7F894BD
:1009100081FF02C0DC9A01C0DC989FBF9FB7F894AA
:1009200082FF02C0DD9A01C0DD989FBF9FB7F89497
:1009300083FF02C0DE9A01C0DE989FBFDA9ADA9880
:100940000895CF93C82F0E943704D9988C2FCF9148
:100950000C945C04D9989FB7F89484FF02C0DB9A8A
:1009600001C0DB989FBF9FB7F89485FF02C0DC9A57
:1009700001C0DC989FBF9FB7F89486FF02C0DD9A44
:1009800001C0DD989FBF9FB7F89487FF02C0DE9A31
:1009900001C0DE989FBFDA9ADA98089580914201EB
:1009A0008E7F8093420108951092400180E090E094
:1009B00020E2FC01E15EFE4F20830196803291052A
:1009C000C1F7D19AD29AD09AD39AD49AD59AD69A74
:1009D00008958295807F6F3F11F0680F0EC0FA0175
:1009E00001900020E9F79A012E1B3F0B2F5E3F4F2D
:1009F0003695279561E0680F620F20E070E0822F46
:100A000090E0FA0101900020E9F73197E41BF50B23
:100A10008E179F0760F4FB01E80FF91FDA01A80F9A
:100A2000B91F8C91E15EFE4F80832F5FE8CF089560
:100A3000EF92FF921F93CF93DF937B018770880F14
:100A4000880F880F805C0E94A104C0E0D0E0F7010D
:100A5000EC0FFD1F14910E943704D99A812F0E9438
:100A60005C042196C830D10591F780E8DF91CF91E1
:100A70001F91FF90EF900C94A10480E090E020E2A1
:100A8000FC01E15EFE4F2083019680329105C1F7A3
:100A90000895CF938091400180FFF6C0809140017E
:100AA00081FD94C08FE70E94A1040E943704D3986F
:100AB000DB98D498DC98D598DD98D698DE98D998AC
:100AC000D89ADA9ACB9902C080E001C080E1CC9933
:100AD000CAC0CD99CAC0DA98DA9ACB99C8C0CC9965
:100AE000C8C0CD99C8C0CE99C8C0DA98D39AD49A54
:100AF000D59AD69AD8988F3709F463C08CE0809342
:100B0000420110923F01109241018FEF91EA01974B
:100B1000F1F700C0000080E30E94AA048FEF95E384
:100B20000197F1F700C0000080E30E94AA0484E16D
:100B300091E00197F1F7000080E30E94AA0493E995
:100B40009A95F1F700C080E20E94AA0483E98A9591
:100B5000F1F700C088E20E94A1048CE00E94A10489
:100B600081E00E94A10486E00E94A10480914001DE
:100B700087FF09C0809140018F7780934001809169
:100B800040018D7F56C062E572E080E00E9418054A
:100B90006AE472E081E00E94180562E472E082E09B
:100BA0000E9418056AE372E083E00E94180562E380
:100BB00072E084E00E9418056AE272E085E00E941B
:100BC000180580914001826080934001809141012D
:100BD0008032C0F5809141018F7099F4809141017C
:100BE00082958370833031F0823031F0813031F082
:100BF00080E805C080ED03C080E901C080EC0E9460
:100C0000A104E0914101F0E0E15EFE4FC0810E944D
:100C10003704D99A8C2F0E945C048091400187FF91
:100C20000BC0809140018D7F8093400180914001F5
:100C30008F778093400123C0809141018F5F809323
:100C4000410122C0809140018D7F8093400110922C
:100C5000410180913F010E94A104809142018C607A
:100C60000E94A1040CC0806234CF806434CF8160C4
:100C700036CF826036CF846036CF886036CF8091A1
:100C800040018E7F80934001CF9108958091400173
:100C900081700895809140018160809340010895A2
:100CA0001F920F920FB60F9211240BB60F924F9214
:100CB0005F926F927F928F929F92AF92BF92CF92EC
:100CC000DF92EF92FF922F933F934F935F936F9337
:100CD0007F938F939F93AF93BF93CF93EF93FF93A4
:100CE000C0904901D0904A01E0904B01F0904C0136
:100CF0004090450150904601609047017090480136
:100D00008091440180904D0190904E01A0904F0140
:100D1000B0905001CFE1C80FCD3730F48FEFC81A33
:100D2000D80AE80AF80A07C0C2EAC80F82E0C80E6B
:100D3000D11CE11CF11C8FEF881A980AA80AB80A86
:100D4000C501B40120E233E040E050E00E945A07C0
:100D5000672B682B692B29F48FEF481A580A680A09
:100D6000780A80914301877011F40E944F038091AB
:100D700043018F5F80934301883011F41092430147
:100D8000C0924901D0924A01E0924B01F0924C018D
:100D9000C093440140924501509246016092470140
:100DA0007092480180924D0190924E01A0924F01A5
:100DB000B0925001FF91EF91CF91BF91AF919F9170
:100DC0008F917F916F915F914F913F912F91FF9004
:100DD000EF90DF90CF90BF90AF909F908F907F90DB
:100DE0006F905F904F900F900BBE0F900FBE0F90C3
:100DF0001F90189510924D0110924E0110924F01C4
:100E0000109250011092490110924A0110924B0128
:100E100010924C0110924501109246011092470128
:100E20001092480110924401089583B7846083BFF3
:100E300083B7886083BF83B78F7B83BF88ED81BF13
:100E40000895FC01758364834383128210821182AA
:100E50000895FC018281882399F08181A481B58164
:100E6000A80FB11D8C91DB018C9381818F5F8183F1
:100E70009281915092839381891301C0118281E004
:100E80000895FC0192818381981302C080E0089547
:100E90008081A481B581A80FB11D6C9380818F5F83
:100EA000808392819F5F92839381891301C0108216
:100EB00081E00895A1E21A2EAA1BBB1BFD010DC003
:100EC000AA1FBB1FEE1FFF1FA217B307E407F507FA
:100ED00020F0A21BB30BE40BF50B661F771F881FD6
:100EE000991F1A9469F760957095809590959B016C
:100EF000AC01BD01CF010895FB01DC0105900D920D
:100F00000020E1F70895FC0105900020E9F78095A5
:0C0F100090958E0F9F1F0895F894FFCF5E
:00000001FF
