:100000000C9446000C9458000C9458000C94580022
:100010000C9458000C9458000C9458000C94580000
:100020000C9458000C9458000C9458000C945800F0
:100030000C9458000C9458000C9458000C946C00CC
:100040000C9458000C9458000C9458000C945800D0
:100050000C9458000C9458000C9458000C945800C0
:100060000C9458000C9458000C9458000C945800B0
:100070000C9458000C9458000C9458000C945800A0
:100080000C9458000C9458000C94580011241FBE76
:10009000CFEFD0E1DEBFCDBF21E0A0E0B1E001C0F5
:1000A0001D92AE30B207E1F70E945D000C94590139
:1000B0000C9400000895089508950E945A000E942B
:1000C0002B010E9410010E945B0087B7826087BFEE
:1000D00078940E945C00FDCF1F920F920FB60F9292
:1000E00011240BB60F924F925F926F927F928F9274
:1000F0009F92AF92BF92CF92DF92EF92FF922F9397
:100100003F934F935F936F937F938F939F93AF939F
:10011000BF93CF93EF93FF93C0900601D090070158
:10012000E0900801F0900901409002015090030115
:1001300060900401709005018091010180900A0196
:1001400090900B01A0900C01B0900D01CFE1C80F71
:10015000CD3730F48FEFC81AD80AE80AF80A07C07A
:10016000C2EAC80F82E0C80ED11CE11CF11C8FEF5F
:10017000881A980AA80AB80AC501B40120E233E037
:1001800040E050E00E943701672B682B692B29F46F
:100190008FEF481A580A680A780A809100018F5F29
:1001A00080930001883011F410920001C092060182
:1001B000D0920701E0920801F0920901C093010179
:1001C0004092020150920301609204017092050175
:1001D00080920A0190920B01A0920C01B0920D0145
:1001E000FF91EF91CF91BF91AF919F918F917F91AF
:1001F0006F915F914F913F912F91FF90EF90DF9022
:10020000CF90BF90AF909F908F907F906F905F90B6
:100210004F900F900BBE0F900FBE0F901F90189530
:1002200010920A0110920B0110920C0110920D0114
:100230001092060110920701109208011092090114
:100240001092020110920301109204011092050114
:1002500010920101089583B7846083BF83B78860DB
:1002600083BF83B78F7B83BF88ED81BF0895A1E2F1
:100270001A2EAA1BBB1BFD010DC0AA1FBB1FEE1F20
:10028000FF1FA217B307E407F50720F0A21BB30B6B
:10029000E40BF50B661F771F881F991F1A9469F7E7
:1002A00060957095809590959B01AC01BD01CF0143
:0602B0000895F894FFCF51
:00000001FF
