:1000000012C021C020C01FC01EC01DC01CC01BC00C
:100010001AC040C018C017C016C015C014C013C005
:1000200012C011C010C011241FBECFE5D4E0DEBF46
:10003000CDBF20E0A0E6B0E001C01D92A737B20717
:10004000E1F766D191C1DCCF0895B89A08950F9376
:100050001F9380916000882319F0813079F017C0D8
:1000600001E010E020E030E040E050E0BA018FE62F
:1000700090E0C5D081E08093600009C08FE690E0F9
:10008000FFD0811104C098B381E0892788BB1F91FC
:100090000F9108951F920F920FB60F9211248F9215
:1000A0009F92AF92BF92CF92DF92EF92FF922F93E7
:1000B0003F934F935F936F937F938F939F93AF93F0
:1000C000BF93CF93EF93FF93C0906700D0906800E9
:1000D000E0906900F0906A00809163009091640064
:1000E000A0916500B09166008091620090916100DE
:1000F000CFE1C80FCD3730F48FEFC81AD80AE80A1D
:10010000F80A07C0C2EAC80F82E0C80ED11CE11C81
:10011000F11CC701B60128EE33E040E050E002D107
:1001200049015A01DC01CB01689412F8B695A795F4
:10013000979587951694D1F7682F8F3138F061EE37
:10014000680F8FEF881A980AA80AB80AC092670049
:10015000D0926800E0926900F0926A00C093620059
:100160008092630090926400A0926500B092660055
:100170006093610087E282BFFF91EF91CF91BF91C1
:10018000AF919F918F917F916F915F914F913F912F
:100190002F91FF90EF90DF90CF90BF90AF909F9006
:1001A0008F900F900FBE0F901F90189510926B00BC
:1001B00010926C0010926D0010926E001092670009
:1001C000109268001092690010926A001092630009
:1001D0001092640010926500109266001092620006
:1001E0001092610008952FB7F894609163007091A8
:1001F000640080916500909166002FBF08958F92F2
:100200009F92AF92BF92CF92DF92EF92FF920F93A5
:100210001F93CF93DF93EC014A015B0168017901E1
:10022000E2DF688379838A839B8381149104A1042C
:10023000B10459F0DC01CB01880D991DAA1DBB1D2D
:1002400088839983AA83BB830AC0DC01CB018C0D10
:100250009D1DAE1DBF1D88839983AA83BB83CC825D
:10026000DD82EE82FF82DF91CF911F910F91FF908F
:10027000EF90DF90CF90BF90AF909F908F900895B8
:100280000F931F93CF93DF93FC01448155816681C7
:1002900077814F3F5F4F6F4F7F4F49F1EC01A3DFF5
:1002A000088119812A813B816017710782079307B2
:1002B00000F14C815D816E817F81411551056105A1
:1002C000710561F0D901C801840F951FA61FB71FE2
:1002D00088839983AA83BB8380E00CC08FEF9FEF54
:1002E000DC018C839D83AE83BF8380E003C080E00C
:1002F00001C081E0DF91CF911F910F91089583B7E5
:10030000826083BF83B7816083BF87E282BF089525
:100310009BDEF5DF4BDF99DE89B7816089BF78947A
:1003200096DEFECFA1E21A2EAA1BBB1BFD010DC05B
:10033000AA1FBB1FEE1FFF1FA217B307E407F50795
:1003400020F0A21BB30BE40BF50B661F771F881F71
:10035000991F1A9469F760957095809590959B0107
:0C036000AC01BD01CF010895F894FFCF5F
:00000001FF
