:100000000C944E000C9460000C9460000C94600002
:100010000C9460000C9460000C9460000C946000E0
:100020000C9460000C9460000C9460000C946000D0
:100030000C9460000C9460000C9460000C945B03C2
:100040000C9460000C9460000C9460000C946000B0
:100050000C9460000C9460000C9460000C946000A0
:100060000C9460000C9460000C9460000C94600090
:100070000C9460000C9460000C9460000C94600080
:100080000C9460000C9460000C94600096003B029D
:10009000018C003B010000000000000011241FBE85
:1000A000CFEFD0E1DEBFCDBF21E0A0E0B1E001C0E5
:1000B0001D92A532B207E1F70E944A030C946D0429
:1000C0000C94000081E990E00C943701109210012B
:1000D0000895CF92EF920F9380911001882321F021
:1000E0000F91EF90CF90089581E990E00E943E013A
:1000F0008111F6CF82E0C82EE12C05E022E040E538
:1001000068EC70E081E990E00E94980093E0C92ECD
:100110000AE023E040E564E670E08CE890E00E94AD
:10012000980081E0809310010F91EF90CF90089597
:10013000AF92BF92CF92EF920F93CF93DF9304963B
:100140005C01FC018491CAE0C89FF0011124EF5EBC
:10015000FE4F2483F5018491C89FF0011124EF5EC6
:10016000FE4F71836083F5018491C89FF0011124D3
:10017000EF5EFE4F2683F5018491C89FF0011124A4
:10018000EF5EFE4F0583F5018491C89FF0011124B5
:10019000EF5EFE4F4783F501D491469FC001479F14
:1001A000900D112464E670E00E9428049B01A8EEE3
:1001B000B3E00E945E0422EE34E040E050E00E9492
:1001C0003C04CD9FF0011124EF5EFE4F3383228368
:1001D000F5018491C89FF0011124E65EFE4F8081F5
:1001E00081608083F5018491C89FF0011124E65E4F
:1001F000FE4F8081E0FA82F98083F501A490CA94D1
:10020000CA9DF0011124EF5EFE4FC086DF91CF91B1
:100210000F91EF90CF90BF90AF900895FC01329670
:10022000259134914FB7F894B90160787727F90197
:1002300027FD02C0FF2703C0EF77FF27F160D90138
:10024000672B11F4BB2703C0AF77BB27B1602C919C
:100250003095232320834FBFFC013496E4918AE03C
:10026000E89FF0011124EF5EFE4F1186089500977C
:1002700021F090930101809300010895FC013496D0
:10028000E4918AE0E89FF0011124E65EFE4F808150
:10029000817008954F925F926F927F928F929F929A
:1002A000AF92BF92CF92DF92EF92FF920F931F9384
:1002B000CF93DF93E0900001F09001013AE0932E9C
:1002C0008824839442EE442E44E0542E612C712CF9
:1002D00054E6A52EB12CE114F10409F49CC1F6E911
:1002E000EF16F0E0FF0609F496C1E7012496FE013F
:1002F0008491989EF0011124E65EFE4F808180FF7C
:1003000086C1FE018491989EF0011124EF5EFE4F9C
:1003100082819381FE01892B61F0C4919C9EE00152
:100320001124CF5EDE4F8A819B8101979B838A8354
:100330006EC18491989EF0011124EF5EFE4F86817C
:10034000FE01811159C08491989EF0011124E65E4E
:10035000FE4F808183FB882780F98825908180FB70
:1003600093F99083FE018491989EF0011124E65E3A
:10037000FE4F8081FE0183FD2DC08491989EF00187
:100380001124EF5EFE4F80858E3FC9F0FE018491FF
:10039000989EF0011124EF5EFE4F8085882359F06E
:1003A000FE018491989EF0011124EF5EFE4F80853E
:1003B0008150808704C0C7010E940E0128C1FE0140
:1003C000849190E02491929EF0011124EF5EFE4F03
:1003D000248109C0849190E02491929EF00111241F
:1003E000EF5EFE4F2581989EF001999EF00D11243D
:1003F000EF5EFE4F268313C08491989EF001112476
:10040000E65EFE4F808181FF0AC0FE018491989EC6
:10041000F0011124EF5EFE4F868181508683FE013C
:100420008491989EF0011124E65EFE4F8081870141
:100430000E5F1F4FFE0183FD79C08491989EF001ED
:100440001124E65EFE4F8081FE0181FD1CC0C49038
:10045000D12C8491989EF0011124EF5EFE4F4781CC
:10046000FE018491989EF0011124EF5EFE4F2081E1
:100470003181429FC001439F900D1124B5010E941C
:1004800028049B0125C0C490D12C8491989EF00132
:100490001124EF5EFE4F20813181FE018491989EF0
:1004A000F0011124EF5EFE4F6781FE018491989E5A
:1004B000F0011124EF5EFE4F40815181649FC00125
:1004C000659F900D1124B5010E942804261B370B4F
:1004D000A8EEB3E00E945E04A30192010E943C04D6
:1004E0009C9CF0019D9CF00D1124EF5EFE4F338328
:1004F0002283F801859194914FB7F8949C0120785C
:100500003327FC0187FD02C0FF2703C0EF77FF27D9
:10051000F160DC01232B11F4BB2703C0AF77BB27AD
:10052000B1608C91892780834FBF62C08491989E6F
:10053000F0011124E65EFE4F8081F80182FD1BC0B0
:10054000859194914FB7F8949C0120783327FC0152
:1005500087FD02C0FF2703C0EF77FF27F160DC01B2
:10056000232B11F4BB2703C0AF77BB27B1608C915D
:100570009095892319C0859194914FB7F8949C0167
:1005800020783327FC0187FD02C0FF2703C0EF77E7
:10059000FF27F160DC01232B11F4BB2703C0AF77E9
:1005A000BB27B1608C91892B80834FBFFE010491E2
:1005B00010E08491989EF0011124EF5EFE4F20819F
:1005C0003181A8EEB3E00E945E04A30192010E9473
:1005D0003C04DA01C901B695A79597958795909E39
:1005E000F001919EF00D1124EF5EFE4F9383828304
:1005F000FE01C4919C9EE0011124C65EDE4F8881FD
:10060000869581708825988180FB91F99883F70100
:10061000E590F49060CEDF91CF911F910F91FF9004
:10062000EF90DF90CF90BF90AF909F908F907F9092
:100630006F905F904F90089580910001909101011B
:10064000009739F120E08639920719F1FC013296C2
:10065000259134914FB7F894B90160787727F90163
:1006600027FD02C0FF2703C0EF77FF27F160319716
:10067000D901672B11F4BB2703C0AF77BB27B1604B
:1006800011972C91232B20834FBFFC0185919491CE
:10069000D7CF08950E9462000E941C040E940104AA
:1006A0000E941C030E94660087B7826087BF78940F
:1006B0000E946900FDCF1F920F920FB60F92112476
:1006C0000BB60F924F925F926F927F928F929F9292
:1006D000AF92BF92CF92DF92EF92FF922F933F9310
:1006E0004F935F936F937F938F939F93AF93BF933A
:1006F000CF93EF93FF93C0900801D0900901E09051
:100700000A01F0900B0140900401509005016090A7
:100710000601709007018091030180900C01909078
:100720000D01A0900E01B0900F01CFE1C80FCD37A1
:1007300030F48FEFC81AD80AE80AF80A07C0C2EAEC
:10074000C80F82E0C80ED11CE11CF11C8FEF881A83
:10075000980AA80AB80AC501B40120E233E040E0D3
:1007600050E00E943C04672B682B692B29F48FEF23
:10077000481A580A680A780A0E944A0180910201C0
:100780008F5F80930201883011F410920201C092B1
:100790000801D0920901E0920A01F0920B01C09386
:1007A000030140920401509205016092060170928B
:1007B000070180920C0190920D01A0920E01B0925F
:1007C0000F01FF91EF91CF91BF91AF919F918F91C9
:1007D0007F916F915F914F913F912F91FF90EF909B
:1007E000DF90CF90BF90AF909F908F907F906F9051
:1007F0005F904F900F900BBE0F900FBE0F901F9009
:10080000189510920C0110920D0110920E01109289
:100810000F01109208011092090110920A01109222
:100820000B01109204011092050110920601109222
:10083000070110920301089583B7846083BF83B7D3
:10084000886083BF83B78F7B83BF88ED81BF0895A6
:10085000AA1BBB1B51E107C0AA1FBB1FA617B707E6
:1008600010F0A61BB70B881F991F5A95A9F7809502
:100870009095BC01CD010895A1E21A2EAA1BBB1BC5
:10088000FD010DC0AA1FBB1FEE1FFF1FA217B3075C
:10089000E407F50720F0A21BB30BE40BF50B661F72
:1008A000771F881F991F1A9469F760957095809536
:1008B00090959B01AC01BD01CF010895A29FB001AD
:1008C000B39FC001A39F700D811D1124911DB29F84
:0E08D000700D811D1124911D0895F894FFCF25
:00000001FF
