:100000000C9446000C9458000C9458000C94580022
:100010000C9458000C9458000C9458000C94580000
:100020000C9458000C9458000C9458000C945800F0
:100030000C9458000C9458000C9458000C947902BD
:100040000C9458000C9458000C9458000C945800D0
:100050000C9458000C9458000C9458000C945800C0
:100060000C9458000C9458000C9458000C945800B0
:100070000C9458000C9458000C9458000C945800A0
:100080000C9458000C9458000C94580011241FBE76
:10009000CFEFD0E1DEBFCDBF21E0A0E0B1E001C0F5
:1000A0001D92A833B207E1F70E94A9000C949803AF
:1000B0000C940000889A899A0895E0E2F1E082E0C9
:1000C00081938F5F8C30E1F7089580911F0181301B
:1000D00099F028F08230D9F0833019F108950E9408
:1000E0005D02811135C040E251E06AE081E090E0BC
:1000F0000E940B0281E02AC00E945D02811128C08B
:100100006AE081E090E00E94360282E01FC00E9417
:100110005D0281111DC08AE291E00E94620283E0CB
:1001200015C0EAE2F1E0A0E2B1E092E021E0319115
:100130008D91381303C082B3822702C082B389270E
:1001400082BB81E0E433F80791F784E080931F01DC
:1001500008950E945A000E946A030E941D030E9493
:10016000BC000E945D0087B7826087BF78940E94C0
:10017000C6000E946500FBCFE0E0F1E0138212822E
:1001800011821482108216821582089580910001D6
:100190008295837009F43EC180910001829583703D
:1001A000813009F0E7C080910001869586958370C3
:1001B000F9F4E1990EC08091000187FF04C080919D
:1001C00000018C6004C080910001837F8460809373
:1001D000000184E391E00E944403811109C08091F1
:1001E00000018F778093000180910001837F0BC114
:1001F00080910001869586958370813009F04AC010
:1002000090910401809101019817A8F58091020155
:10021000909103019FBB8EBBE09AE09104018DB3E6
:10022000F0E0E95FFE4F8083E091040180910401DA
:10023000F0E0E95FFE4FA0910501B0910601A80F23
:10024000B11D90818C91981739F080910001837FC6
:100250008860809300011EC080910201909103018B
:1002600001969093030180930201809104018F5FB6
:10027000809304010FC010920401109203011092A8
:10028000020180910001837F809300018091000131
:100290008F77B9C0809100018695869583708230F2
:1002A00051F580910201909103019FBB8EBB80911B
:1002B0000401E0910501F0910601E80FF11D808134
:1002C0008DBBE29AE19A0E943803DC01CB010596CE
:1002D000A11DB11D8093340190933501A093360187
:1002E000B093370180910001837F8093000180915A
:1002F000000180688DC0809100018695869583708D
:10030000833009F087C080910201909103019FBB67
:100310008EBBE09AE09104018DB3F0E0E95FFE4FFF
:100320008083E091040180910401F0E0E95FFE4FD9
:10033000A0910501B0910601A80FB11D90818C918B
:10034000981313C08091020190910301019690933C
:10035000030180930201809104018F5F8093040167
:1003600080910001837F846053C080910001837F6E
:1003700088604EC08091000182958370823009F0C0
:1003800049C08091000181FD0EC0E19905C08091B6
:10039000000182608093000184E391E00E944403A5
:1003A000882371F137C08091000181FF33C09091A3
:1003B0000401809101019817E8F480910201909165
:1003C00003019FBB8EBBE09AE09104018DB3F0E086
:1003D000E95FFE4F808380910201909103010196B5
:1003E0009093030180930201809104018F5F8093B9
:1003F0000401089510920401109203011092020169
:10040000809100018D7F80930001809100018F7C9D
:100410008093000108959C01260F311D2F3F3F401E
:1004200020F56B3008F06AE090930301809302019D
:10043000109204015093060140930501609301015D
:10044000809100018F7C8061809300010E943803BD
:10045000DC01CB010296A11DB11D80933401909364
:100460003501A0933601B093370108959C01260F02
:10047000311D2F3F3F4000F56B3008F06AE090934C
:1004800003018093020110920401609301018091A5
:1004900000018F7C8062809300010E943803DC01A0
:1004A000CB010296A11DB11D8093340190933501BB
:1004B000A0933601B0933701089580910001829591
:1004C00083700895AC0180910101882389F090E048
:1004D00020910101921760F4292F30E0FA01E20F18
:1004E000F31FD901A95FBE4F8C9180839F5FF0CF2E
:1004F00008951F920F920FB60F9211240BB60F9210
:100500004F925F926F927F928F929F92AF92BF9223
:10051000CF92DF92EF92FF922F933F934F935F938F
:100520006F937F938F939F93AF93BF93CF93EF93EB
:10053000FF93C0901701D0901801E0901901F0903E
:100540001A014090130150901401609015017090B1
:1005500016018091120180901B0190901C01A090C7
:100560001D01B0901E01CFE1C80FCD3730F48FEFE1
:10057000C81AD80AE80AF80A07C0C2EAC80F82E017
:10058000C80ED11CE11CF11C8FEF881A980AA80A2A
:10059000B80AC501B40120E233E040E050E00E9417
:1005A0007603672B682B692B29F48FEF481A580ABA
:1005B000680A780A809111018F5F80931101883059
:1005C00011F410921101C0921701D0921801E0921B
:1005D0001901F0921A01C093120140921301509236
:1005E0001401609215017092160180921B01909285
:1005F0001C01A0921D01B0921E01FF91EF91CF91BD
:10060000BF91AF919F918F917F916F915F914F912A
:100610003F912F91FF90EF90DF90CF90BF90AF90E0
:100620009F908F907F906F905F904F900F900BBE38
:100630000F900FBE0F901F90189510921B011092F3
:100640001C0110921D0110921E01109217011092B0
:1006500018011092190110921A01109213011092B0
:1006600014011092150110921601109212010895B2
:100670002FB7F894609117017091180180911901BA
:1006800090911A012FBF0895CF92DF92EF92FF92BF
:100690000F931F93FC01C080D180E280F380F7FEAE
:1006A00002C080E010C00E9438039701860106272F
:1006B00017272827392737FD05C06C157D058E05BE
:1006C0009F0578F781E01F910F91FF90EF90DF90E9
:1006D000CF90089583B7846083BF83B7886083BF5A
:1006E00083B78F7B83BF88ED81BF0895A1E21A2E67
:1006F000AA1BBB1BFD010DC0AA1FBB1FEE1FFF1FC6
:10070000A217B307E407F50720F0A21BB30BE40B15
:10071000F50B661F771F881F991F1A9469F760955C
:100720007095809590959B01AC01BD01CF01089516
:04073000F894FFCF6B
:00000001FF
