:100000000C9450000C9462000C9462000C946200FA
:100010000C9462000C9462000C9462000C946200D8
:100020000C9462000C9462000C9462000C946200C8
:100030000C9462000C9462000C9462000C945604C0
:100040000C9462000C9462000C9462000C946200A8
:100050000C9462000C9462000C9462000C94620098
:100060000C9462000C9462000C9462000C94620088
:100070000C9462000C9462000C9462000C94620078
:100080000C9462000C9462000C9462009B003B0292
:100090000096003B0101000000000000000000008D
:1000A00011241FBECFEFD0E1DEBFCDBF21E0A0E025
:1000B000B1E001C01D92AB32B207E1F70E940A0421
:1000C0000C946E050C94000081E990E00E94D6012A
:1000D0008CE890E00E948B028CE890E00C94E101A7
:1000E000D29A08950E94C401882321F0813029F01A
:1000F000813409F00895DA9808959BB384E0892744
:100100008BBB0895AF92BF92CF92DF92EF92FF9296
:100110000F931F93CF93DF93A0900F01B090100126
:1001200011E0FF24FA9438ECD32ECFEFC10FA114C5
:10013000B10409F48DC086E9A81680E0B80609F478
:1001400087C0F50134962491329785919491009758
:1001500009F479C0DC0187FD05C0BB27A236B105D3
:1001600021F405C0AF77BB27B160129702C0A0E2AF
:10017000B0E03C91E22FE695892F9927232F30E0BC
:100180008223932321E0892B09F420E0D0E0E213BD
:100190001DC0FE01E25FFE4F80818F5F8083893C3E
:1001A00010F0D08250C0883C29F4612F6F73062F65
:1001B000006420C0823009F046C0012F0F731093F5
:1001C0000D01F0920C010023F1F114C0FE01E25F79
:1001D000FE4F80818230B8F11082012F006C809137
:1001E0000D0190E09E012F5F3F4F8217930711F49E
:1001F00010920C01602F82E091E00E943D04602F7C
:1002000070E02196CF73DD27882361F06C177D079E
:10021000D1F4CC24C394E12C01E021E044E668EC65
:1002200070E00BC06C177D0771F4CC24C394E12CF3
:1002300001E021E044E664EF71E0809100019091DB
:1002400001010E94EC01F501A590B4901F5F6DCFF4
:10025000DF91CF911F910F91FF90EF90DF90CF90A2
:10026000BF90AF900895CF9310920E0144E068E0E4
:1002700071E082E091E00E941D0410920C01109246
:100280000D0120910F01309110012115310509F464
:1002900079C080E02639380709F474C0F901349632
:1002A0008491329780FF35C0859194917FB7F894FF
:1002B000AC0140785527FC0187FD02C0FF2703C031
:1002C000EF77FF27F1603197DC014115510511F4FB
:1002D000BB2703C0AF77BB27B16011976C91A92FE3
:1002E000A0956A236083FC014115510511F4FF2795
:1002F00003C0EF77FF27F160DC01452B11F4BB272A
:1003000003C0AF77BB27B1608C91892B80837FBFFF
:1003100035C085919491CFB7F894AC0140785527BA
:10032000FC0187FD02C0FF2703C0EF77FF27F160C4
:100330003197DC014115510511F4BB2703C0AF779C
:10034000BB27B16011977C91692F609576237083EC
:10035000FC014115510511F4FF2703C0EF77FF277A
:10036000F160452B19F4DC01BB2704C08F77992776
:10037000DC01B1608C9168236083CFBFF9012591C6
:10038000349183CFCF910895CF93DF931F92CDB750
:10039000DEB7BE016F5F7F4F82E091E00E942504CF
:1003A000811189810F90DF91CF910895009741F0DD
:1003B00020E08639920721F09093100180930F017D
:1003C0000895009741F020E08B39920721F0909337
:1003D0000101809300010895AF92BF92CF92EF92F6
:1003E0000F93CF93DF9304965C01FC018491CAE0E4
:1003F000C89FF0011124EF5DFE4F2483F501849125
:10040000C89FF0011124EF5DFE4F71836083F501F9
:100410008491C89FF0011124EF5DFE4F2683F50102
:100420008491C89FF0011124EF5DFE4F0583F50113
:100430008491C89FF0011124EF5DFE4F4783F501C1
:10044000D491469FC001479F900D112464E670E04F
:100450000E9429059B01A8EEB3E00E945F0522EEF1
:1004600034E040E050E00E943D05CD9FF0011124B2
:10047000EF5DFE4F33832283F5018491C89FF00125
:100480001124E65DFE4F808181608083F5018491B7
:10049000C89FF0011124E65DFE4F8081E0FA82F9E9
:1004A0008083F501A490CA94CA9DF0011124EF5DE8
:1004B000FE4FC086DF91CF910F91EF90CF90BF900C
:1004C000AF900895FC013296259134914FB7F8947E
:1004D000B90160787727F90127FD02C0FF2703C023
:1004E000EF77FF27F160D901672B11F4BB2703C019
:1004F000AF77BB27B1602C913095232320834FBF6A
:10050000FC013496E4918AE0E89FF0011124EF5D4C
:10051000FE4F11860895009721F090931201809369
:10052000110108954F925F926F927F928F929F92E6
:10053000AF92BF92CF92DF92EF92FF920F931F93F1
:10054000CF93DF9300911101109112013AE0532EE5
:100550004424439442EE842E44E0942EA12CB12CEA
:1005600054E6652E712C0115110509F414C1F0E053
:100570000B391F0709F40FC1F8013496E491CE2E10
:10058000D12C5C9CF0015D9CF00D1124DF01A65D77
:10059000BE4F8C9180FFFBC0EF5DFE4F8281938147
:1005A000892B31F082819381019793838283EFC0FD
:1005B0008681811125C08C9183FB882780F9842551
:1005C0009C9180FB93F99C938C9183FD17C080854F
:1005D0008E3F59F08085882321F080858150808767
:1005E00004C0C8010E946202D2C05C9CF0015D9C04
:1005F000F00D1124EF5DFE4F848107C0858105C099
:100600008C9181FF03C08681815086835C9CC001F0
:100610005D9C900D1124FC01E65DFE4F2081E801F8
:10062000229623FD52C02081AC014F5D5E4F7A01BE
:10063000DA0121FD0FC017964C9117972D913C912F
:10064000429FC001439F900D1124B3010E942905D0
:100650009B0113C0ED91FC91119717964C91179740
:100660002D913C91429FC001439F900D1124B301F5
:100670000E9429059F01261B370BA8EEB3E00E94BC
:100680005F05A50194010E943D05F7013383228394
:10069000FE01859194914FB7F8949C0120783327FF
:1006A000FC0187FD02C0FF2703C0EF77FF27F16041
:1006B000DC01232B11F4BB2703C0AF77BB27B1604C
:1006C0008C91892780834FBF53C08081FE0182FDBA
:1006D0001BC0859194914FB7F8949C0120783327E3
:1006E000FC0187FD02C0FF2703C0EF77FF27F16001
:1006F000DC01232B11F4BB2703C0AF77BB27B1600C
:100700008C919095892319C0859194914FB7F89455
:100710009C0120783327FC0187FD02C0FF2703C01E
:10072000EF77FF27F160DC01232B11F4BB2703C017
:10073000AF77BB27B1608C91892B80834FBF5C9CC6
:10074000E0015D9CD00D1124CF5DDE4F2881398101
:10075000A8EEB3E00E945F05A50194010E943D054B
:10076000DA01C901B695A795979587959B838A83EA
:100770005C9CF0015D9CF00D1124E65DFE4F8081D4
:10078000869581708425908180FB91F99083F80192
:1007900005911491E8CEDF91CF911F910F91FF90B9
:1007A000EF90DF90CF90BF90AF909F908F907F9011
:1007B0006F905F904F900895809111019091120178
:1007C000009739F120E08B39920719F1FC0132963C
:1007D000259134914FB7F894B90160787727F901E2
:1007E00027FD02C0FF2703C0EF77FF27F160319795
:1007F000D901672B11F4BB2703C0AF77BB27B160CA
:1008000011972C91232B20834FBFFC01859194914C
:10081000D7CF08950E9464000E941D050E94020522
:100820000E9433010E94DC030E94700087B782603F
:1008300087BF78940E947200FDCFFC0175836483AA
:1008400043831282108211820895FC0182818823E1
:1008500099F08181A481B581A80FB11D8C91DB0134
:100860008C9381818F5F8183928191509283938158
:10087000891301C0118281E00895FC019281838176
:10088000981302C080E008958081A481B581A80FEB
:10089000B11D6C9380818F5F808392819F5F928373
:1008A0009381891301C0108281E008951F920F92F5
:1008B0000FB60F9211240BB60F924F925F926F9268
:1008C0007F928F929F92AF92BF92CF92DF92EF92E0
:1008D000FF922F933F934F935F936F937F938F93E9
:1008E0009F93AF93BF93CF93EF93FF93C090190162
:1008F000D0901A01E0901B01F0901C01409015016E
:1009000050901601609017017090180180911401A9
:1009100080901D0190901E01A0901F01B0902001B9
:10092000CFE1C80FCD3730F48FEFC81AD80AE80AE4
:10093000F80A07C0C2EAC80F82E0C80ED11CE11C49
:10094000F11C8FEF881A980AA80AB80AC501B401E9
:1009500020E233E040E050E00E943D05672B682B29
:10096000692B29F48FEF481A580A680A780A80918F
:100970001301877011F40E9482000E9492028091FC
:1009800013018F5F80931301883011F410921301CB
:10099000C0921901D0921A01E0921B01F0921C0141
:1009A000C0931401409215015092160160921701F4
:1009B0007092180180921D0190921E01A0921F0159
:1009C000B0922001FF91EF91CF91BF91AF919F9194
:1009D0008F917F916F915F914F913F912F91FF90F8
:1009E000EF90DF90CF90BF90AF909F908F907F90CF
:1009F0006F905F904F900F900BBE0F900FBE0F90B7
:100A00001F90189510921D0110921E0110921F0147
:100A1000109220011092190110921A0110921B01DC
:100A200010921C01109215011092160110921701DC
:100A30001092180110921401089583B7846083BF47
:100A400083B7886083BF83B78F7B83BF88ED81BF07
:100A50000895AA1BBB1B51E107C0AA1FBB1FA61705
:100A6000B70710F0A61BB70B881F991F5A95A9F757
:100A700080959095BC01CD010895A1E21A2EAA1B84
:100A8000BB1BFD010DC0AA1FBB1FEE1FFF1FA2173E
:100A9000B307E407F50720F0A21BB30BE40BF50B3B
:100AA000661F771F881F991F1A9469F760957095C4
:100AB000809590959B01AC01BD01CF010895A29F47
:100AC000B001B39FC001A39F700D811D1124911D22
:100AD000B29F700D811D1124911D0895F894FFCFD0
:00000001FF
